:020000040800F2
:1000000040580020450100080D770008AD41000868
:10001000317600089113000825E200080000000076
:100020000000000000000000000000002DB70008E4
:100030005918000800000000557D000879BD00082F
:100040006DED0008357D00085F0100085F010008C4
:100050005F010008B57F00085F0100085F0100082C
:100060005F0100085F0100085F010008DD1700085C
:100070005F0100085F0100085F0100085F010008E0
:100080005F0100085F0100085F0100085F010008D0
:100090005F0100085F0100085F0100085F010008C0
:1000A0005F0100085F0100085F0100085F010008B0
:1000B000CDC100085F0100085F0100085F01000872
:1000C0005F0100085F0100085F0100085F01000890
:1000D0005F01000821C800085F0100085F010008F7
:1000E0005F0100085F0100085F0100085F01000870
:1000F0005F0100085F0100085F0100085F01000860
:100100005F0100085F0100085F0100085F0100084F
:100110005F0100085F0100085F0100085F0100083F
:100120005F0100085F0100085F010008191800085E
:10013000DFF80CD000F032FC0048004795ED0008D5
:10014000405800200648804706480047FEE7FEE783
:10015000FEE7FEE7FEE7FEE7FEE7FEE7FEE7FEE777
:100160006DC10008310100082DE9F05F054600204F
:1001700092469B4688460646814640241BE0284618
:1001800041464746224600F0B0FA53465A46C01A46
:10019000914110D311461846224600F097FA2D1AC5
:1001A00067EB01084F4622460120002100F08EFA3D
:1001B00017EB00094E41201EA4F10104DFDC484684
:1001C00031462A464346BDE8F09FD2B201E000F82E
:1001D000012B491EFBD270470022F6E710B51346EB
:1001E0000A4604461946FFF7F0FF204610BDF0B45A
:1001F00080EA0102D40F4200B2EB410F02D2024664
:10020000084611464A0042D0C30DDDB2C1F3C752C1
:10021000AD1A202D35DAC1F3160141F4000204B104
:100220005242C5F1200602FA06F12A411044B3EB0E
:10023000D05F23D0C4B1012DA0EBC35009DCF0BCCA
:100240004FF0004202EAC352DBB200F5000000F0BA
:1002500077BA400000F1807000EBC350A0F18070CD
:1002600040EAD170490009E0490841EAC071A0EBB9
:10027000C35000F50000400800EBC350F0BC00F094
:1002800056BA6142012202EB4101001BF6E7F0BCC5
:10029000704781F00041AAE780F00040A7E780EABC
:1002A000010210B502F00043400022D04A001FD0E6
:1002B000010E01EB1261C0F35600C2F3560240F486
:1002C000000042F40002A0FB022000047F39140465
:1002D00000D0401C50EA124001D44000491EC2B276
:1002E0000C0604EBD010401C4008802A02D003E02A
:1002F000002010BD20F00100002900DA0020184382
:1003000010BD30B480EA010202F0004530F0004236
:1003100021F0004013D090B1C30DD40DC2F31601EB
:10032000C0F31600E41A41F4000140F400027D34E9
:10033000914201D3641C00E04900002C02DA30BC79
:10034000002070474FF400000023914201D3891A26
:10035000034340084FEA4101F7D151B1914202D124
:100360004FF0004105E002D24FF0010101E06FF0D3
:10037000010103EBC450284430BC00F0D8B92DE98A
:10038000FE4F804681EA0300C00F0C46009021F02A
:10039000004123F00045B8EB0200A94105D24046D8
:1003A000214690461C460B46024623F0004010436F
:1003B00047D0270DC7F30A00C3F30A510290401A31
:1003C000019040286BDAC3F3130040F4801B0098BF
:1003D000924620B10023D2EB030A63EB0B0B01988A
:1003E0005946C0F14002504600F070F906460D46ED
:1003F00050465946019A00F088F910EB0800614117
:10040000002487EA115284EAE7731A4340D0009A25
:1004100062B3019A012A4FEA075215DC001B61EB17
:1004200002014FF0004202EA0752CDE90042001CEF
:1004300041F5801132462B4600F0BFF903B0BDE80C
:10044000F08F40462146F9E7001B61EB0201001CDA
:1004500041F5801300185B412018A2F5001747EB07
:10046000030140EAD570B6196D4111E06D084FEAFD
:10047000360645EAC0754FEA0752001B61EB0201E0
:10048000001C41F5801149084FEA30000019514124
:1004900032462B4603B0BDE8F04F00F07FB900981C
:1004A000012240000023D0EB020263EBE0730098CE
:1004B00021464FEAE074B8EB000061EB0401E9E784
:1004C00083F000435BE781F0004158E72DE9F04DF0
:1004D00081EA030404F0004B21F0004514464FF07C
:1004E000000A23F0004150EA050220D054EA01023C
:1004F0001DD0C5F30A570246C5F31303C1F3130019
:10050000C1F30A5640F4801543F48013A7EB0608A4
:10051000101BD64608F2FD3873EB050002D308F134
:10052000010801E092185B41B8F1000F03DA0020E6
:100530000146BDE8F08D00204FF480110646844648
:100540000EE0171B73EB050705D3121B63EB0503C6
:1005500006434CEA010C49084FEA300092185B410F
:1005600050EA0107EDD152EA030012D082EA0400FA
:1005700083EA0501084305D0101BAB4106D20122D6
:10058000002306E000224FF0004302E06FF001027A
:1005900053101AEB06004CEB085110EB0A0041EB2C
:1005A0000B01BDE8F04D00F0F9B8C10F80EAE07032
:1005B0000844CA079623002100F0C2B896230022FF
:1005C000114600F0BDB80EB5C10F80EAE0700844D6
:1005D000CA07002140F233438DE80E000A460B465D
:1005E00000F0EBF803B000BD20F00040C10DC0F3F7
:1005F000160040F400007F2901DA00207047962998
:1006000003DCC1F19601C8407047963988407047B5
:10061000C1F30A5210B5C1F3130140F2FF3341F4A4
:1006200080119A4201DA002010BD40F233439A4211
:10063000A2F2334203DC524200F057F810BD904062
:1006400010BD00F0004230F000400AD0C10D01F5AD
:100650006071C0F3160042EA0151C208400711431D
:10066000704700200146704701F0004330B421F08C
:10067000004150EA010206D00A0DA2F56072C1F3F2
:100680001301002A02DC30BC00207047440F44EA0A
:10069000C104C100E01830BC00EBC25000F047B804
:1006A00030B50B46014600202022012409E021FA42
:1006B00002F59D4205D303FA02F5491B04FA02F53F
:1006C0002844151EA2F10102F1DC30BD202A04DB12
:1006D000203A00FA02F1002070479140C2F1200355
:1006E00020FA03F3194390407047202A04DB203A94
:1006F00021FA02F00021704721FA02F3D040C2F142
:1007000020029140084319467047202A06DBCB1788
:10071000203A41FA02F043EAE07306E041FA02F3BC
:10072000D040C2F120029140084319467047002989
:10073000A8BF7047401C490008BF20F00100704767
:1007400010B4B0FA80FC00FA0CF050EA010404BFC7
:1007500010BC704749B1CCF1200421FA04F411FA1D
:100760000CF118BF012121430843A3EB0C01CB1D61
:100770004FEA00614FEA102042BF002010BC7047D2
:1007800000EBC35010440029A4BF10BC7047401CAC
:10079000490008BF20F0010010BC704710B5141EBE
:1007A00073F1000408DA401C41F1000192185B412A
:1007B0001A4301D120F0010010BD2DE9F04D924601
:1007C0009B4611B1B1FA81F202E0B0FA80F2203218
:1007D0009046FFF77BFF04460F4640EA0A0041EAD5
:1007E0000B0153465A46084313D0114653EA010001
:1007F00019D0C8F140025046FFF777FF05460E4674
:10080000504659464246FFF761FF084305D0012094
:1008100004E020463946BDE8F08D0020054346EA55
:10082000E0762C4337430A986305E40AA0EB0800FE
:100830000022FD0A44EA47540A3002D5002001464E
:10084000E9E7010510196941DDE908450019694129
:10085000BDE8F04DA2E72DE9FE4F81EA030404F064
:10086000004421F0004100944FF0000B23F00043BE
:1008700050EA01045ED052EA03045BD0C3F30A5489
:10088000C1F30A552C44A4F2F3340194A0FB0254A2
:10089000C1F3130141F48011C3F3130343F4801334
:1008A00001FB024400FB034E840A970A44EA815488
:1008B00047EA8357A4FB076802958D0A05FB078565
:1008C0004FEA932C04FB0C542705029D4FEA06586F
:1008D00047EA1637B5EB08056EEB070C870E920E4C
:1008E00047EA811742EA8312A7FB0201B6EB0B012C
:1008F00064EB00042B0D43EA0C335E1844EB1C50F0
:10090000DA465146E7FB0201C5F313044FEA0B3305
:1009100043EA14534FEA0432019C43EA0603A4F16C
:100920000C040294009CCDE900B4FFF746FF03B02D
:10093000BDE8F08F00200146F9E7C1F30A52C1F388
:10094000130140F2FF3341F480119A4202DA002091
:100950000146704740F233439A42A2F2334202DC2E
:100960005242FFF7C2BEFFF7B1BE000030B5041E11
:1009700071F1000404DB4FF00044404264EB0101DC
:10098000141E73F1000405DB1C464FF00043524275
:1009900063EB0403994208BF904230BD064C074DFB
:1009A00006E0E06840F0010394E80700984710343F
:1009B000AC42F6D3FFF7C0FB5CFC00087CFC0008EF
:1009C00080B582B0014601900198009100F00EFBC5
:1009D00002B080BD80B582B00146019001980091BF
:1009E00000F046FB02B080BD80B500F085FB80BD05
:1009F00080B582B0014601900198009100F00AFC98
:100A000002B080BD80B582B001460190019800918E
:100A1000FFF7E0FF02B080BD80B5FFF7E5FF80BDC6
:100A200080B58AB00A46034609908DF8231000204D
:100A30008DF8220042F20040C4F2010007920693B2
:100A4000FFF7BEFF9DF823100329059008DBFFE7A1
:100A500043F60040C4F20100FFF7B2FF0490FFE745
:100A6000FFE740F21C00C2F2000000680078002896
:100A700001D1FFE7F5E79DF8230003280CDBFFE732
:100A8000FFE740F22000C2F2000000680078002872
:100A900001D1FFE7F5E7FFE740F21C00C2F20000DA
:100AA0000068FFF7A5FF9DF823E0BEF1030F039058
:100AB00009DBFFE740F22000C2F200000068FFF708
:100AC00097FF0290FFE700208DF82200FFE79DF8D6
:100AD00022009DF8231088423CDAFFE79DF82200AF
:100AE00001460328019128D80199DFE801F0020BA3
:100AF000141D40F21C00C2F20000006840880999F1
:100B0000088020E040F21C00C2F2000000688088EB
:100B10000999488017E040F22000C2F20000006806
:100B20004088099988800EE040F22000C2F200005F
:100B3000006880880999C88005E009989DF823100D
:100B4000FFF74AFBFFE7FFE79DF8220001308DF831
:100B50002200BCE700200AB080BD000080B582B052
:100B600000F00AF8019000F09FF84FF0000E00909E
:100B7000704602B080BD000080B592B00020C4F283
:100B8000020001210790069104F02EFE06990590BF
:100B9000084604F0B9FB08A828210490FFF71CFBC5
:100BA0002420109000200A9040F21C01C2F20001A3
:100BB0000968063109914FF480610F9180210D91F0
:100BC0000B9042F24C41C4F2010108914FF4807144
:100BD0000E910C904FF40051119107990390084623
:100BE0000699049A04F08CFF07990290084606992A
:100BF00004F056FF06F00AFF0699039A06F0C6FDB8
:100C00000B2101900846019A0091114606F08CFFD5
:100C1000009806F07FFD0798069904F059FF0398A5
:100C200012B080BD80B586B00020C4F20200012160
:100C300024220590049104F0E7FF0598049904F03C
:100C40002FFF42F20040C4F20100039004F0FCF9CF
:100C5000039800F06FFB0021039A02901046019167
:100C6000019A00F03FFB01990090084606B080BD54
:100C700080B582B00020C4F202000121019004F08E
:100C8000F7FE019804F014FD019804F061FD01984D
:100C900004F072FD42F20040C4F2010004F0C8F911
:100CA000002002B080BD000080B594B000201390F9
:100CB0001290119010900F900E900D900C9042F2A7
:100CC0000041C4F201010B9008460A9104F034F986
:100CD0000121DDF828E009907046089100F016FA2D
:100CE0000B9912914FF4807ECDF84CE012A90A9A2C
:100CF00007901046CDF818E004F0C4F94FF46021D5
:100D00000D914FF480110E910B990F9102221092C8
:100D1000069A11920DA9DDF828E00590704604F0BE
:100D2000EFF94FF400410490084605F0D5FB0B980D
:100D30000C900CA90A9804F0AFF84FF400710A2245
:100D4000DDF828E003907046029204F039FA0A9820
:100D50000299089A04F084FA40F205210B20C0F2AF
:100D600030000A9A01901046019A04F029FA0A9874
:100D70000199089A04F074FA0A9804F065F90A983F
:100D800000F0D8FA0B990090084614B080BD00001E
:100D900080B582B000F00AF8019000F0A1F84FF0A1
:100DA000000E0090704602B080BD000080B592B089
:100DB00040F20040C4F2020005210790069104F0C1
:100DC00013FD02210590084604F09EFA08A8282188
:100DD0000490FFF701FA2420109000200A9040F2BE
:100DE0002001C2F200010968063109914FF48061C7
:100DF0000F9180210D910B9043F64C41C4F20101FB
:100E000008914FF480710E910C904FF400511191A4
:100E10000799039008460699049A04F071FE079911
:100E200002900846069904F03BFE06F0EFFD012112
:100E3000039A06F0ABFC3B2101900846019A009111
:100E4000114606F071FE009806F064FC07980699BA
:100E500004F03EFE039812B080BD000080B586B05D
:100E600040F20040C4F202000521242205900491C2
:100E700004F0CAFE0598049904F012FE43F60040FF
:100E8000C4F20100039004F0DFF8039800F052FA76
:100E90000021029008460191039A00F023FA01997B
:100EA0000090084606B080BD80B582B040F2004098
:100EB000C4F202000521019004F0DAFD019804F06B
:100EC00029FC019804F04EFC019804F05FFC43F605
:100ED0000040C4F2010004F0ABF8002002B080BD75
:100EE00080B594B0002013901290119010900F9044
:100EF0000E900D900C9043F60041C4F201010B904E
:100F000008460A9104F018F80121DDF828E009905C
:100F1000704600F0FBF80B9912914FF4807ECDF8EB
:100F20004CE012A90A9A08901046CDF81CE004F093
:100F3000A9F84FF460210D914FF480110E910B9997
:100F40000F9102221092079A11920DA9DDF828E064
:100F50000690704604F0D4F84FF40041059008461E
:100F600005F0BAFA0B980C900CA90A9803F094FFBC
:100F70004FF400710C22C0F26002DDF828E004900A
:100F80007046039204F01CF903200A990290084667
:100F90000399029A04F064F940F205210D20C0F291
:100FA00090000A9A01901046019A04F009F90A98F3
:100FB0000199029A04F054F90A9804F045F80A9845
:100FC00000F0B8F90B990090084614B080BD0000FD
:100FD00080B582B0FFF7C2FD0190FFF7D9FE4FF058
:100FE000000E0090704602B080BD000080B584B055
:100FF00001460290029842F20042C4F2010290427D
:1010000001910CD1FFE740F21C00C2F20000006821
:1010100000210170FFF706FE8DF80F0023E0029813
:1010200042F60001C4F20101884204D1FFE700202A
:101030008DF80F0017E0029843F60041C4F2010159
:1010400088420CD1FFE740F22000C2F200000068A5
:1010500000210170FFF702FF8DF80F0003E0002070
:101060008DF80F00FFE79DF80F0004B080BD000071
:1010700080B584B001460290029842F20042C4F268
:101080000102904201910DD1FFE740F21C00C2F233
:1010900000000068017801310170FFF7E9FD8DF86B
:1010A0000F0024E0029842F60001C4F201018842D8
:1010B00004D1FFE700208DF80F0018E0029843F6F6
:1010C0000041C4F2010188420DD1FFE740F2200047
:1010D000C2F200000068017801310170FFF7E4FE00
:1010E0008DF80F0003E000208DF80F00FFE79DF85A
:1010F0000F0004B080BD000080B582B000F068F839
:101100000190FFF765FF02B080BD000080B586B09A
:101110000A46034604908DF80F10049800280292A6
:10112000019304D1FFE701208DF817004BE00498EC
:1011300042F20041C4F20101884210D1FFE79DF85C
:101140000F00002805D0FFE74FF4007004F0C8F945
:1011500004E04FF4007004F083F9FFE7FFE7049820
:1011600042F60001C4F20101884210D1FFE79DF868
:101170000F00002805D0FFE74FF4806004F0B0F9BD
:1011800004E04FF4806004F06BF9FFE7FFE7049898
:1011900043F60041C4F20101884210D1FFE79DF8F7
:1011A0000F00002805D0FFE74FF4004004F098F945
:1011B00004E04FF4004004F053F9FFE7FFE700209C
:1011C0008DF81700FFE79DF8170006B080BD0000FE
:1011D00080B588B041F20000C4F201000121029004
:1011E00002F0DCFE0020079006900590049003902A
:1011F00040F60F7103910490079003A9DDF808E011
:101200000190704604F0CCFD01990090084608B0AA
:1012100080BD000080B5A0B001461F9000208DF871
:101220007B000DF1560224230A90104609911946BD
:101230000893FEF7D1FF0DF132000899FEF7CCFFBD
:101240001F9806300B900A988DF87B00FFE79DF8F9
:101250007B0011281DDCFFE70B9800889DF87B10B0
:101260000DF1560222F811000B9802300B900B98EA
:1012700000889DF87B100DF1320222F811000B98C6
:1012800002300B90FFE79DF87B0001308DF87B006A
:10129000DDE70DF1560012210790069102F09CFD4A
:1012A0000DF1320105900846DDF818E00491714611
:1012B00002F092FD11214FF0010E079A03901046A3
:1012C00002917246CDF804E000F032FA1F9948808E
:1012D00004980299019A00F02BFA1F998880002047
:1012E00020B080BD80B586B013468C4686460590FA
:1012F00004910392059800280293CDF804C0CDF81C
:1013000000E004D0FFE7059803F09EFFFFE7049894
:10131000002804D0FFE7049803F096FFFFE7039846
:10132000002804D0FFE7039803F08EFFFFE70020BA
:1013300006B080BD80B584B00146029002980028B6
:1013400001911CD0FFE70298816841F0080181609B
:10135000FFE7029880680007002801D5FFE7F8E75B
:10136000029803F0C5FFFFE7029803F0B5FE0028DE
:1013700001D0FFE7F8E700208DF80F0003E001201F
:101380008DF80F00FFE79DF80F0004B080BD00004E
:10139000FFE7FEE780B584B00A460346039002915A
:1013A000039802990192009300F084F804B080BD84
:1013B00080B584B00A4603460390029103980299CF
:1013C0000192009300F0A6F804B080BD80B586B00D
:1013D00013468C4686468DF81700049103929DF8BB
:1013E00017000499039A0293CDF804C0CDF800E0E9
:1013F00000F0D4F806B080BD80B584B00A4603463C
:1014000003900291039802990192009300F010F961
:1014100004B080BD80B500F047F980BD80B500F014
:1014200049F980BD80B584B00A4603460390029115
:101430000398029901920093FFF7ACFF04B080BDBE
:1014400080B584B00A46034603900291039802993E
:1014500001920093FFF7ACFF04B080BD80B586B069
:1014600013468C4686468DF81700049103929DF82A
:1014700017000499039A0293CDF804C0CDF800E058
:10148000FFF7A4FF06B080BD80B584B00A460346CE
:10149000039002910398029901920093FFF7ACFF29
:1014A00004B080BD80B5FFF7B5FF80BD80B5FFF704
:1014B000B5FF80BD86B00A46034605900491002022
:1014C000ADF80C00029001920093FFE70298049996
:1014D00088421BD2FFE79DF80D000599029A895CAE
:1014E00048408DF80F00BDF80C009DF80F104FF22A
:1014F000AA72C0F6000232F8111081EA0020ADF89D
:101500000C00FFE7029801300290DFE7BDF80C0005
:1015100006B0704780B584B00A4603460390029136
:10152000039802990192009300F002F804B080BD84
:1015300080B588B00A4603460790069100200590C2
:10154000049003920293019000F020F80198059016
:10155000FFE705980699884210D2FFE7079805999A
:10156000405C0490049943F20000C4F2020004F0CD
:1015700061F8FFE7059801300590EAE743F20000C3
:10158000C4F2020004F062F808B080BD80B543F2F6
:101590000000C4F2020004F06BF880BD80B589B091
:1015A00013468C4686468DF823000791069200204C
:1015B0008DF8160004900393CDF808C0CDF804E030
:1015C000FFE70498069988422DD2FFE79DF81600A0
:1015D0000799049A895C48408DF817009DF823000C
:1015E00001460728009104D0FFE7009831280AD06F
:1015F00013E09DF817004FF6AA11C0F60001085C31
:101600008DF816000AE09DF817004FF6AA21C0F6E3
:101610000001085C8DF8160000E0FFE7FFE7049882
:1016200001300490CDE79DF8160009B080BD0000A0
:1016300086B00A46034605900491002003908DF879
:101640000B00039001920093FFE7039804998842EE
:101650000DD2FFE705980399405C9DF80B100844F4
:101660008DF80B00FFE7039801300390EDE79DF83C
:101670000B00C0F580708DF80B009DF80B0006B0D4
:101680007047000080B582B043F20000C4F202004F
:1016900003F0B2FF40F2040EC2F2000E01218EF8F8
:1016A0000010019002B080BD40F20400C2F20000C0
:1016B0000078704780B5FFF7E5FF402003F038FE63
:1016C00040F20400C2F200004FF0000E80F800E08B
:1016D00080BD000080B500F00DF880BD80B500F041
:1016E00017F880BD80B5FFF7F5FF80BD80B5FFF727
:1016F000F5FF80BD80B504F087FE002807D0FFE726
:1017000004F070FE04F014FE04F0F4FDFFE780BD69
:1017100080B504F081FE002809D0FFE704F0FEFD4B
:1017200004F0F2FD0DF034FB06F0E8FAFFE780BDAF
:1017300080B58EB013468C4686460D90ADF83210BB
:10174000ADF8302000200B900A90ADF82600BDF8CF
:101750003000ADF826000893CDF81CC0CDF818E095
:10176000FFE7BDF82600BDF8321088421BDAFFE71C
:101770000D98BDF8261030F81100FEF724FFDDF8B3
:1017800028E00B9A0590704604911146059A049B37
:10179000FEF7F5FD0B910A90FFE7BDF8260001303A
:1017A000ADF82600DDE70A980B99BDF83220BDF8A8
:1017B0003030D21A039010460291FEF704FF039ACC
:1017C00001901046029B00911946019A009BFEF77A
:1017D0007DFEFEF71DFF0EB080BD000080B582B01B
:1017E0000020C4F2020004F0BFF9002811D0FFE786
:1017F0000020C4F20200012104F0CAF9002808D038
:10180000FFE742F20040C4F20100FFF7FBF801904D
:10181000FFE702B080BD000080B582B040F200401A
:10182000C4F2020004F0AAF9002812D0FFE740F247
:101830000040C4F20200052104F0AAF9002808D0F3
:10184000FFE743F60040C4F20100FFF7DBF8019028
:10185000FFE702B080BD00007047000080B582B095
:1018600001468DF807009DF80700009100F056F83A
:1018700002B080BD80B500F0ADF980BD80B500F04C
:101880001DFE80BD80B500F09DFE80BD80B500F0DE
:1018900061FF80BD80B502F06FF980BD80B502F0B8
:1018A000C3F980BD80B502F0E3F980BD80B582B098
:1018B00001468DF807009DF807000091FFF7CEFF65
:1018C00002B080BD80B5FFF7D5FF80BD80B5FFF7C2
:1018D000D5FF80BD80B5FFF7D5FF80BD80B5FFF790
:1018E000D5FF80BD80B582B001468DF807000F207E
:1018F0000091FFF7DBFFFFF7E5FF00F003F802B010
:1019000080BD000080B5FFF7C5FF80BD80B5FFF743
:10191000C5FF80BD80B5FFF7C5FF80BD82B0014621
:101920008DF8070000208DF806000091FFE79DF874
:101930000600032824DCFFE79DF80700C007002805
:1019400009D0FFE79DF8060040F60C71C2F20001D5
:1019500001220A5408E09DF8060040F60C71C2F21C
:10196000000100220A54FFE79DF8070040088DF8A7
:101970000700FFE79DF8060001308DF80600D6E766
:1019800002B0704780B584B001468DF80F00019118
:101990000AF022F90130029002989DF80F1040F6EB
:1019A000B47EC2F2000E5EF82110884214D2FFE726
:1019B0009DF80F0040F6B471C2F2000151F820000A
:1019C000C043029908449DF80F1040F69472C2F289
:1019D000000242F8210012E002989DF80F1040F634
:1019E000B472C2F2000252F82110401A9DF80F1092
:1019F00040F69472C2F2000242F82100FFE704B000
:101A000080BD000080B584B00A46034603908DF87F
:101A10000B1003994FF080400192009305F00EF8EF
:101A2000002865D0FFE703994FF08040002205F0C1
:101A300065F99DF80B0040F65C71C2F2000151F8A7
:101A400020009DF80B1040F63872C2F2000242F8F6
:101A500021009DF80B0052F820009DF80B1040F675
:101A6000A472C2F2000252F8211088421DD2FFE790
:101A70009DF80B0040F63871C2F2000151F82000C9
:101A80004CF2503108449DF80B1040F6A472C2F29B
:101A9000000252F82110401A9DF80B1040F64C72CB
:101AA000C2F2000242F8210019E09DF80B0040F656
:101AB0003871C2F2000151F820009DF80B1040F679
:101AC000A472C2F2000252F82110401A9DF80B10C5
:101AD00040F64C72C2F2000242F82100FFE79DF886
:101AE0000B0040F67071C2F2000101220A5464E05A
:101AF00003994FF08040022205F000F99DF80B0099
:101B000040F65C71C2F2000151F820009DF80B1004
:101B100040F6A472C2F2000242F821009DF80B00C8
:101B200052F820009DF80B1040F63872C2F2000205
:101B300052F8211088421DD2FFE79DF80B0040F6B5
:101B4000A471C2F2000151F820004CF25031084457
:101B50009DF80B1040F63872C2F2000252F82110C4
:101B6000401A9DF80B1040F67472C2F2000242F85F
:101B7000210019E09DF80B0040F6A471C2F20001AB
:101B800051F820009DF80B1040F63872C2F20002A6
:101B900052F82110401A9DF80B1040F67472C2F2F0
:101BA000000242F82100FFE79DF80B0040F670713B
:101BB000C2F2000102220A54FFE70AF00DF89DF874
:101BC0000BE040F6B471C2F2000141F82E0004B0FF
:101BD00080BD000081B000200090FFE7009803283E
:101BE00070DCFFE7009840F65C71C2F20001002251
:101BF00041F82020009840F64C71C2F2000141F8F3
:101C00002020009840F67471C2F2000141F82020B3
:101C1000009840F67071C2F200010A54009840F634
:101C20006C71C2F200010A54009840F68471C2F24D
:101C300000010A54009840F68871C2F200010A546B
:101C4000009840F6A471C2F2000141F820200098EB
:101C500040F63871C2F2000141F82020009840F6A9
:101C6000B471C2F2000141F82020009840F694714E
:101C7000C2F2000141F82020009840F6C471C2F27F
:101C800000010A54009840F68C71C2F2000121F85C
:101C90001020009840F64871C2F200010A540098E2
:101CA00040F61871C2F2000141F82020009840F679
:101CB0002871C2F2000141F82020FFE700980130AE
:101CC00000908BE701B0704780B590B040F60000FF
:101CD000C4F2010001210A90099102F05FF90A980B
:101CE000099902F05BF90A98099902F057F90A98E4
:101CF000099902F053F900200F900E900D900C906E
:101D00000B9008210C9103210D910E900F9040F241
:101D100001100B900BA9DDF828E0089070460791A0
:101D200004F03EF80A9906900846089904F0F4F881
:101D300040F202200B900A9905900846079904F09A
:101D40002FF80A9904900846059904F0E5F840F246
:101D500004400B900A9903900846079904F020F874
:101D60000A9902900846039904F0D6F840F6080054
:101D70000B900A9901900846079904F011F80A9906
:101D800000900846019904F0C7F810B080BD00002B
:101D900080B584B00A4603468DF80F008DF80E100A
:101DA0009DF80F00014603280292019300916CD820
:101DB0000099DFE801F0021C36509DF80E00002863
:101DC0000AD0FFE740F60040C4F201001021C0F243
:101DD000104104F003F909E040F60040C4F20100AC
:101DE0001021C0F2104104F097F8FFE74EE09DF893
:101DF0000E0000280AD0FFE740F60040C4F20100C0
:101E00002021C0F2204104F0E9F809E040F600404A
:101E1000C4F201002021C0F2204104F07DF8FFE768
:101E200034E09DF80E0000280AD0FFE740F600409D
:101E3000C4F201004021C0F2404104F0CFF809E0B3
:101E400040F60040C4F201004021C0F2404104F0DD
:101E500063F8FFE71AE09DF80E0000280AD0FFE7BC
:101E600040F60040C4F201000821C0F2084104F02D
:101E7000B5F809E040F60040C4F201000821C0F2C4
:101E8000084104F049F8FFE700E0FFE704B080BD37
:101E900080B590B040F60040C4F2010001210A90E4
:101EA000099102F07BF80A98099902F077F80A98EC
:101EB000099902F073F80A98099902F06FF8002066
:101EC0000F900E900D900C900B9009990C910D9124
:101ED0000E900F911020C0F210400B900DF12C0EBF
:101EE0000A9A089010467146CDF81CE003F058FF9E
:101EF0000A9906900846089904F00EF82020C0F2CE
:101F000020400B900A9905900846079903F048FF76
:101F10000A9904900846059903F0FEFF4020C0F29C
:101F200040400B900A9903900846079903F038FF48
:101F30000A9902900846039903F0EEFF0820C0F2C8
:101F400008400B900A9901900846079903F028FF72
:101F50000A9900900846019903F0DEFF10B080BD99
:101F600080B584B00A4603468DF80F008DF80E1038
:101F70009DF80F000146032802920193009168D852
:101F80000099DFE801F0021C344C9DF80E00002897
:101F90000AD0FFE741F60000C4F201000221C0F2BE
:101FA000024103F0B9FF09E041F60000C4F201006C
:101FB0000221C0F2024104F011F8FFE74AE09DF867
:101FC0000E00002809D0FFE741F60000C4F201002E
:101FD00040F2011103F0A0FF08E041F60000C4F256
:101FE000010040F2011103F0F9FFFFE732E09DF834
:101FF0000E00002809D0FFE741F20040C4F20100C2
:1020000040F2022103F088FF08E041F20040C4F2F0
:10201000010040F2022103F0E1FFFFE71AE09DF822
:102020000E0000280AD0FFE741F20040C4F2010090
:102030000221C0F2024103F06FFF09E041F20040CB
:10204000C4F201000221C0F2024103F0C7FFFFE722
:1020500000E0FFE704B080BD80B590B041F600001D
:10206000C4F2010001210A90099101F097FF0A983A
:10207000099901F093FF41F20040C4F20100089079
:10208000099901F08BFF0898099901F087FF00205A
:102090000F900E900D900C900B9009980C900D9055
:1020A00004210E910F900221C0F202410B910DF11B
:1020B0002C0E0A9807917146CDF818E003F070FED7
:1020C0000A9905900846079903F088FF40F201102D
:1020D0000B900A9904900846069903F061FE0A994C
:1020E00003900846049903F079FF40F202200B9018
:1020F000089902900846069903F052FE089901904B
:102100000846029903F06AFF07980B900898069911
:1021100003F046FE089900900846079903F05EFF19
:1021200010B080BD80B592B041F60000C4F201004D
:1021300001210C900B9101F031FF40F60040C4F2F8
:1021400001000A900B9901F029FF41F20040C4F20E
:10215000010009900B9901F021FF09980B9901F0FA
:102160001DFF0020119010900F900E900D900B9875
:102170000E900F900421109111900121C0F20141A5
:102180000D910DF1340E0C9808917146CDF81CE0BC
:1021900003F006FE0C9906900846089903F01EFF0E
:1021A0000220C0F202400D900A9905900846079956
:1021B00003F0F6FD0A9904900846059903F00EFF16
:1021C00040F201100D90099903900846079903F019
:1021D000E7FD099902900846039903F0FFFE08986D
:1021E0000D900998079903F0DBFD099901900846C5
:1021F000089903F0F3FE12B080BD000080B598B0DE
:102200004FF0804001210E900D910AF003F800205C
:1022100017901690159014901390129011901090A2
:102220000F900E990C90084604F02EFA4CF25031A3
:10223000159140F20001C2F2000109684DF6836E6B
:10224000C4F21B3EA1FB0E1E4FEA9E4E4FF47A7263
:102250000EFB02F244F6D35EC1F2620EA2FB0E2E1A
:102260004FF0FF3303EB9E13ADF84C300C9B1693ED
:1022700014938DF85C300DF14C0EDDF838C00B90E6
:1022800060460A917146099204F0F0FD0E9908909B
:10229000084604F0F7FA0E980C9904F0FFFE0E9829
:1022A0000C9904F061FF0E9804F028FB4FF4803085
:1022B00010900C9811900F9012900FA90E980D9AF3
:1022C00007911146079A04F00BFC10210E9A069014
:1022D0001046079A04F004FC4FF480710E9A0590A2
:1022E0001046079A04F0FCFB4FF480510E9A0490BC
:1022F0001046079A04F0F4FB039005F097FB0C9945
:102300000C9A05F0C3FA1C2102900846029A01912A
:10231000114605F04DFC019805F010FA0E9804F0F6
:1023200063F90E9804F026FB0E9804F02FFB0E982C
:1023300004F038FB0E9804F041FB0E9804F002FB09
:1023400018B080BD80B590B040F60000C4F2010026
:1023500001210A90099101F021FE0A98099901F0E2
:102360001DFE41F20000C4F201000890099901F03D
:1023700015FE0898099901F011FE00200F900E90AB
:102380000D900C900B9009990C910D910E900F915E
:102390000820C0F208400B900DF12C0E0A9A07900D
:1023A00010467146CDF818E003F0FAFC0A99059042
:1023B0000846079903F0B0FD1020C0F210400B90C2
:1023C0000A9904900846069903F0EAFC0A990390DA
:1023D0000846049903F0A0FD0420C0F204400B90CD
:1023E000089902900846069903F0DAFC08990190D2
:1023F0000846029903F090FD07980B9008980699FB
:1024000003F0CEFC089900900846079903F084FD7C
:1024100010B080BD80B582B000208DF8070041F675
:102420000000C4F201000121C0F2014103F01EFDD1
:10243000002807D1FFE79DF8070040F001008DF864
:102440000700FFE740F60040C4F201000221C0F29D
:10245000024103F00BFD002807D1FFE79DF80700BC
:1024600040F002008DF80700FFE741F20040C4F29F
:10247000010040F2011103F0F9FC002807D1FFE749
:102480009DF8070040F004008DF80700FFE741F2D7
:102490000040C4F201000121C0F2014103F0E6FC5A
:1024A000002807D1FFE79DF8070040F008008DF8ED
:1024B0000700FFE79DF8070002B080BD80B584B03B
:1024C0004FF0804004F0A2FD002819D0FFE74FF044
:1024D0008040039004F092FA40F65C7EC2F2000E57
:1024E000CEF8000040F66C70C2F2000090F800E0F8
:1024F0000EF1010E80F800E0039804F07FF8FFE78A
:102500004FF0804004F08CFD002819D0FFE74FF019
:102510008040029004F07AFA40F65C7EC2F2000E2F
:10252000CEF8040040F66C70C2F2000090F801E0B2
:102530000EF1010E80F801E0029804F069F8FFE75F
:102540004FF0804004F076FD002819D0FFE74FF0EF
:102550008040019004F062FA40F65C7EC2F2000E08
:10256000CEF8080040F66C70C2F2000090F802E06D
:102570000EF1010E80F802E0019804F053F8FFE735
:102580004FF0804004F060FD002819D0FFE74FF0C5
:102590008040009004F04AFA40F65C7EC2F2000EE1
:1025A000CEF80C0040F66C70C2F2000090F803E028
:1025B0000EF1010E80F803E0009804F03DF8FFE70B
:1025C00004B080BD80B5FFF763FCFFF7ABFDFFF7FC
:1025D0007BFBFFF741FDFFF7B5FEFFF70FFE80BD68
:1025E00080B58CB00A460346ADF82E00ADF82C102D
:1025F000BDF82C0000280A92099354D0FFE7BDF8DB
:102600002E000146032808912CD80899DFE801F034
:10261000020C162040F60000C4F201000821C0F2AE
:10262000084103F0DBFC3DE040F60000C4F201008D
:102630001021C0F2104103F0D1FC33E041F2000060
:10264000C4F201000421C0F2044103F0C7FC29E0F8
:1026500041F20000C4F201000821C0F2084103F079
:10266000BDFC1FE040F60000C4F201000821C0F2EA
:1026700008410790069103F0B1FC1021C0F210410F
:10268000079803F0ABFC41F20000C4F20100042102
:10269000C0F20441059003F0A1FC0598069903F0EF
:1026A0009DFCFFE753E0BDF82E000146032804918E
:1026B0002CD80499DFE801F0020C162040F6000047
:1026C000C4F201000821C0F2084103F025FC3DE0FE
:1026D00040F60000C4F201001021C0F2104103F0E6
:1026E0001BFC33E041F20000C4F201000421C0F2FF
:1026F000044103F011FC29E041F20000C4F20100A2
:102700000821C0F2084103F007FC1FE040F600007A
:10271000C4F201000821C0F208410390029103F0C5
:10272000FBFB1021C0F21041039803F0F5FB41F2CE
:102730000000C4F201000421C0F20441019003F042
:10274000EBFB0198029903F0E7FBFFE7FFE70CB012
:1027500080BD000080B588B000208DF81F008DF886
:102760001E008DF81F00FFE79DF81F00032801F3EE
:10277000B381FFE79DF81F0040F60C71C2F2000123
:10278000085C012841F0A081FFE79DF81F00FFF7DA
:10279000F9F89DF81F0001F0A1F99DF81FE040F63F
:1027A0008471C2F2000111F80E108E460E290690B7
:1027B000CDF814E001F27E810599DFE811F00F00F9
:1027C0003F008F00670158022403BF034604B90489
:1027D00092053B06150787076708D9089DF81F0073
:1027E00040F68471C2F20001085C9DF81F2040F69B
:1027F0008873C2F2000398549DF81F0001220A5406
:102800009DF81F0040F67071C2F2000100220A54C8
:102810009DF81F0040F6A471C2F2000141F820208B
:102820009DF81F0040F63871C2F2000141F82020E7
:102830009DF81F0001F030FA01F045B99DF81F0026
:1028400040F68471C2F20001085C9DF81F2040F63A
:102850008873C2F2000398549DF81F0040F610726E
:10286000C2F20002002322F810309DF81F0040F64B
:102870008C72C2F2000222F810309DF81F0040F660
:102880004872C2F2000213549DF81F0040F61872FD
:10289000C2F2000242F820309DF81F000491194650
:1028A0000393FFF775FA9DF81F000399FFF758FB94
:1028B0009DF81F000121FFF793FE9DF81F000221E4
:1028C000049A115409F088F99DF81F1040F6B4726B
:1028D000C2F2000242F8210001F0F5B89DF81F0095
:1028E00040F68471C2F20001085C9DF81F1040F6AA
:1028F0008872C2F2000250549DF81F0040F67071B9
:10290000C2F20001085C00F00300012840F09D8045
:10291000FFE79DF81F0040F67071C2F2000100222F
:102920000A549DF81F0040F64C71C2F2000151F8A4
:102930002000B0F5967F0CD3FFE79DF81F0040F60E
:102940004C71C2F2000151F82000B0F52F7F30D950
:10295000FFE79DF81F0040F64C71C2F2000151F8EC
:102960002000B0F5C87F0CD3FFE79DF81F0040F6AC
:102970004C71C2F2000151F82000B0F5167F18D951
:10298000FFE79DF81F0040F64C71C2F2000151F8BC
:102990002000B0F5967F1DD3FFE79DF81F0040F69D
:1029A0004C71C2F2000151F82000B0F52F7F11D810
:1029B000FFE79DF81F0040F6C471C2F2000100223B
:1029C0000A549DF81F0040F68471C2F200010322F0
:1029D0000A5434E09DF81F0040F64C71C2F2000129
:1029E00051F8200040F2145188421ED3FFE79DF8B1
:1029F0001F0040F64C71C2F2000151F8200040F275
:102A0000A461884211D8FFE79DF81F0040F6C47109
:102A1000C2F2000102220A549DF81F0040F68471A0
:102A2000C2F2000106220A5408E09DF81F0040F699
:102A30008471C2F2000101220A54FFE7FFE79DF80A
:102A40001F000021FFF7CCFD1EE09DF81F0040F69F
:102A50009471C2F2000151F820001F2813D3FFE740
:102A60009DF81F0040F68471C2F2000101220A5451
:102A700009F0B2F89DF81F1040F6B472C2F20002DD
:102A800042F82100FFE7FFE701F01DB89DF81F00A5
:102A900040F68471C2F20001085C9DF81F1040F6F8
:102AA0008872C2F2000250549DF81F0040F6707107
:102AB000C2F20001085C00F00300022840F0B6807A
:102AC000FFE79DF81F0040F67471C2F2000151F853
:102AD0002000B0F5967F0CD3FFE79DF81F0040F66D
:102AE0007471C2F2000151F82000B0F52F7F30D987
:102AF000FFE79DF81F0040F67471C2F2000151F823
:102B00002000B0F5C87F0CD3FFE79DF81F0040F60A
:102B10007471C2F2000151F82000B0F5167F18D987
:102B2000FFE79DF81F0040F67471C2F2000151F8F2
:102B30002000B0F5967F28D3FFE79DF81F0040F6F0
:102B40007471C2F2000151F82000B0F52F7F1CD83B
:102B5000FFE79DF81F0040F6C471C2F20001002299
:102B60000A549DF81F0040F68471C2F20001092248
:102B70000A549DF81F0040F68C71C2F2000131F832
:102B80001020013221F810204AE09DF81F0040F685
:102B90007471C2F2000151F8200040F214518842D1
:102BA00034D3FFE79DF81F0040F67471C2F20001B4
:102BB00051F8200040F2A461884227D8FFE79DF831
:102BC0001F0040F6C471C2F2000102220A549DF8AF
:102BD0001F0040F68471C2F2000104220A549DF8DD
:102BE0001F0040F61071C2F2000131F810200132CE
:102BF00021F8102040F61870C2F200009DF81F1056
:102C000050F82120520040F8212008E09DF81F00D4
:102C100040F68471C2F2000101220A54FFE7FFE787
:102C20009DF81F000121FFF7DBFC1EE09DF81F004F
:102C300040F69471C2F2000151F820001F2813D30E
:102C4000FFE79DF81F0040F68471C2F200010122E7
:102C50000A5408F0C1FF9DF81F1040F6B472C2F28A
:102C6000000242F82100FFE7FFE700F02CBF9DF8CB
:102C70001F0040F68471C2F20001085C9DF81F102D
:102C800040F68872C2F2000250549DF81F0040F6D0
:102C90007071C2F20001085C00F00300012840F0EE
:102CA0009180FFE79DF81F0040F67071C2F20001AD
:102CB00000220A549DF81F0040F64C71C2F2000138
:102CC00051F82000B0F5967F15D3FFE79DF81F005F
:102CD00040F64C71C2F2000151F82000B0F52F7F90
:102CE00009D8FFE79DF81F0040F68471C2F2000189
:102CF00005220A5460E09DF81F0040F64C71C2F2B4
:102D0000000151F8200040F2145188424AD3FFE7F5
:102D10009DF81F0040F64C71C2F2000151F82000EE
:102D200040F2A46188423DD8FFE79DF81F0040F6BD
:102D30008471C2F2000106220A549DF81F0000218E
:102D4000FFF74EFC9DF81F0040F61071C2F2000123
:102D500031F81020013221F810209DF81F0040F6B4
:102D60001872C2F2000252F820E00EF1010E42F891
:102D700020E09DF81F0052F820E04FEA4E0E42F886
:102D800020E09DF81F0031F81000182809DBFFE74C
:102D90009DF81F0040F68471C2F2000106220A5419
:102DA000FFE708E09DF81F0040F68471C2F20001C1
:102DB00001220A54FFE7FFE79DF81F000021FFF7FB
:102DC0000FFC1EE09DF81F0040F69471C2F2000156
:102DD00051F820001F2813D3FFE79DF81F0040F68D
:102DE0008471C2F2000101220A5408F0F5FE9DF838
:102DF0001F1040F6B472C2F2000242F82100FFE751
:102E0000FFE700F060BE9DF81F0040F68471C2F23B
:102E10000001085C9DF81F1040F68872C2F20002A3
:102E200050549DF81F0040F67071C2F20001085C1A
:102E300000F00300022860D1FFE79DF81F0040F674
:102E40007071C2F2000100220A549DF81F0040F682
:102E50007471C2F2000151F8200040F2145188420E
:102E60003CD3FFE79DF81F0040F67471C2F20001E9
:102E700051F8200040F2A46188422FD8FFE79DF866
:102E80001F0040F68471C2F2000104220A549DF82A
:102E90001F0040F61071C2F2000131F8102001321B
:102EA00021F8102040F61870C2F200009DF81F2093
:102EB00050F822305B0040F822309DF81F0031F8B6
:102EC0001000182809DBFFE79DF81F0040F6847109
:102ED000C2F2000107220A54FFE708E09DF81F0034
:102EE00040F68471C2F2000101220A54FFE79DF806
:102EF0001F000121FFF774FB1EE09DF81F0040F644
:102F00009471C2F2000151F820001F2813D3FFE78B
:102F10009DF81F0040F68471C2F2000101220A549C
:102F200008F05AFE9DF81F1040F6B472C2F200027B
:102F300042F82100FFE7FFE700F0C5BD9DF81F0044
:102F400040F68471C2F20001085C9DF81F1040F643
:102F50008872C2F2000250549DF81F0040F6707152
:102F6000C2F20001085C00F0030002284CD1FFE728
:102F70009DF81F0040F67071C2F2000100220A5451
:102F80009DF81F0040F67471C2F2000151F8200054
:102F9000B0F5967F29D3FFE79DF81F0040F67471C6
:102FA000C2F2000151F82000B0F52F7F1DD8FFE7D5
:102FB0009DF81F0040F68471C2F2000104220A54F9
:102FC0009DF81F0040F61071C2F2000131F81000A8
:102FD000182809DBFFE79DF81F0040F68471C2F254
:102FE000000107220A54FFE708E09DF81F0040F6A1
:102FF0008471C2F2000101220A54FFE79DF81F000C
:103000000121FFF7EDFA1EE09DF81F0040F69471D4
:10301000C2F2000151F820001F2813D3FFE79DF8EA
:103020001F0040F68471C2F2000101220A5408F028
:10303000D3FD9DF81F1040F6B472C2F2000242F8B0
:103040002100FFE7FFE700F03EBD9DF81F0040F6BE
:103050008471C2F20001085C9DF81F1040F688726E
:10306000C2F2000250549DF81F0040F67071C2F287
:103070000001085C00F00300012838D1FFE79DF84B
:103080001F0040F67071C2F2000100220A549DF840
:103090001F0040F64C71C2F2000151F82000B0F55B
:1030A000967F15D3FFE79DF81F0040F64C71C2F2E2
:1030B000000151F82000B0F52F7F09D8FFE79DF8F7
:1030C0001F0040F68471C2F2000108220A5408E091
:1030D0009DF81F0040F68471C2F2000101220A54DB
:1030E000FFE79DF81F000021FFF77AFA1EE09DF828
:1030F0001F0040F69471C2F2000151F820001F2811
:1031000013D3FFE79DF81F0040F68471C2F200015F
:1031100001220A5408F060FD9DF81F1040F6B472B9
:10312000C2F2000242F82100FFE7FFE700F0CBBC4B
:103130009DF81F0040F68471C2F20001085C9DF802
:103140001F1040F68872C2F2000250549DF81F0012
:1031500040F67071C2F20001085C00F00300022822
:1031600040F09F80FFE79DF81F0040F67071C2F2AB
:10317000000100220A549DF81F0040F67471C2F24B
:10318000000151F8200043F2D40188427AD3FFE7CE
:103190009DF81F0040F67471C2F2000151F8200042
:1031A00044F25C4188426DD8FFE79DF81F0040F66D
:1031B0008471C2F2000102220A549DF81F0040F6F9
:1031C0001071C2F20001002221F810209DF81F00AA
:1031D00040F64871C2F200010A5C01320A549DF8BF
:1031E0001F00085C022838DBFFE79DF81F0040F64F
:1031F0002871C2F2000151F8201040F61872C2F294
:10320000000252F82000814204D1FFE701208DF82E
:103210001E0003E000208DF81E00FFE79DF81F0050
:103220009DF81E10FEF7B4FD9DF81F009DF81E10BE
:10323000FEF796FE9DF81F0040F64871C2F20001AD
:103240004FF0000E01F800E09DF81F0040F61871E5
:10325000C2F2000141F820E013E09DF81F0040F6A3
:103260001871C2F2000151F8202040F62873C2F212
:10327000000343F820209DF81F00002241F8202081
:10328000FFE708E09DF81F0040F68471C2F20001DC
:1032900001220A54FFE79DF81F000121FFF7A0F962
:1032A0001EE09DF81F0040F69471C2F2000151F833
:1032B00020001F2813D3FFE79DF81F0040F68471FC
:1032C000C2F2000101220A5408F086FC9DF81F108A
:1032D00040F6B472C2F2000242F82100FFE7FFE7B5
:1032E000F1E39DF81F0040F68471C2F20001085C12
:1032F0009DF81F1040F68872C2F2000250549DF8EB
:103300001F0040F67071C2F20001085C00F003007B
:1033100001286FD1FFE79DF81F0040F67071C2F2DF
:10332000000100220A549DF81F0040F68C71C2F281
:10333000000131F8100003282BDCFFE79DF81F0087
:1033400040F64C71C2F2000151F82000B0F5967FB2
:1033500015D3FFE79DF81F0040F64C71C2F2000143
:1033600051F82000B0F52F7F09D8FFE79DF81F0026
:1033700040F68471C2F200010A220A5408E09DF866
:103380001F0040F68471C2F2000101220A54FFE7D7
:103390002AE09DF81F0040F64C71C2F2000151F87E
:1033A0002000B0F5C87F15D3FFE79DF81F0040F659
:1033B0004C71C2F2000151F82000B0F5167F09D817
:1033C000FFE79DF81F0040F68471C2F200010A2257
:1033D0000A5408E09DF81F0040F68471C2F2000113
:1033E00001220A54FFE7FFE79DF81F000021FFF7C5
:1033F000F7F81EE09DF81F0040F69471C2F200013C
:1034000051F820001F2813D3FFE79DF81F0040F656
:103410008471C2F2000101220A5408F0DDFB9DF81C
:103420001F1040F6B472C2F2000242F82100FFE71A
:10343000FFE748E39DF81F0040F68471C2F20001E7
:10344000085C9DF81F1040F68872C2F200025054CA
:103450009DF81F0040F67071C2F20001085C00F098
:103460000300022840F0A080FFE79DF81F0040F60F
:103470007071C2F2000100220A549DF81F0040F64C
:103480008C71C2F2000131F81000032840DCFFE724
:103490009DF81F0040F67471C2F2000151F820003F
:1034A000B0F5967F2AD3FFE79DF81F0040F67471B0
:1034B000C2F2000151F82000B0F52F7F1ED8FFE7BF
:1034C0009DF81F0040F68471C2F2000109220A54DF
:1034D0009DF81F0040F68C71C2F2000131F81020F7
:1034E000013221F810209DF81F0031F8101040F62D
:1034F0001072C2F2000222F8101008E09DF81F00BE
:1035000040F68471C2F2000101220A54FFE745E04F
:103510009DF81F0040F67471C2F2000151F82000BE
:10352000B0F5C87F30D3FFE79DF81F0040F67471F7
:10353000C2F2000151F82000B0F5167F24D8FFE751
:103540009DF81F0040F68471C2F2000109220A545E
:103550009DF81F0040F61071C2F2000131F81020F2
:10356000013221F810209DF81F0031F810002F289B
:1035700009DBFFE79DF81F0040F68471C2F20001ED
:103580000B220A54FFE708E09DF81F0040F6847103
:10359000C2F2000101220A54FFE7FFE79DF81F0075
:1035A0000121FFF71DF81EE09DF81F0040F6947101
:1035B000C2F2000151F820001F2813D3FFE79DF845
:1035C0001F0040F68471C2F2000101220A5408F083
:1035D00003FB9DF81F1040F6B472C2F2000242F8DD
:1035E0002100FFE7FFE76EE29DF81F0040F68471BF
:1035F000C2F20001085C9DF81F1040F68872C2F20A
:10360000000250549DF81F0040F67071C2F2000194
:10361000085C00F00300012838D1FFE79DF81F0087
:1036200040F67071C2F2000100220A549DF81F009A
:1036300040F64C71C2F2000151F82000B0F5C87F8D
:1036400015D3FFE79DF81F0040F64C71C2F2000150
:1036500051F82000B0F5167F09D8FFE79DF81F004C
:1036600040F68471C2F200010C220A5408E09DF871
:103670001F0040F68471C2F2000101220A54FFE7E4
:103680009DF81F000021FEF7ABFF1EE09DF81F0014
:1036900040F69471C2F2000151F820001F2813D3A4
:1036A000FFE79DF81F0040F68471C2F2000101227D
:1036B0000A5408F091FA9DF81F1040F6B472C2F255
:1036C000000242F82100FFE7FFE7FCE19DF81F0040
:1036D00040F68471C2F20001085C9DF81F1040F6AC
:1036E0008872C2F2000250549DF81F0040F67071BB
:1036F000C2F20001085C00F00300022840F0A6803E
:10370000FFE79DF81F0040F67071C2F20001002231
:103710000A549DF81F0040F67471C2F2000151F87E
:10372000200043F2D40188424CD3FFE79DF81F00EC
:1037300040F67471C2F2000151F8200044F25C417D
:1037400088423FD8FFE79DF81F0040F68471C2F21F
:10375000000102220A549DF81F0040F64871C2F28F
:1037600000010A5C01320A549DF81F0040F61072F5
:10377000C2F20002002322F810309DF81F0040F62C
:103780008C72C2F2000222F810309DF81F00085C13
:10379000022816DBFFE79DF81F0001210291FEF7CA
:1037A000F7FA9DF81F000299FEF7DAFB9DF81F005B
:1037B00040F64871C2F200014FF0000E01F800E03F
:1037C000FFE73DE09DF81F0040F67471C2F2000172
:1037D00051F82000B0F5C87F28D3FFE79DF81F00FF
:1037E00040F67471C2F2000151F82000B0F5167F66
:1037F0001CD8FFE79DF81F0040F61071C2F20001CF
:1038000031F81020013221F810209DF81F0040F6F9
:10381000C471C2F2000100220A549DF81F0040F654
:103820008471C2F200010D220A5408E09DF81F00C5
:1038300040F68471C2F2000101220A54FFE7FFE75B
:103840009DF81F000121FEF7CBFE1EE09DF81F0032
:1038500040F69471C2F2000151F820001F2813D3E2
:10386000FFE79DF81F0040F68471C2F200010122BB
:103870000A5408F0B1F99DF81F1040F6B472C2F274
:10388000000242F82100FFE7FFE71CE19DF81F005E
:1038900040F68471C2F20001085C9DF81F1040F6EA
:1038A0008872C2F2000250549DF81F0040F67071F9
:1038B000C2F20001085C00F00300012838D1FFE7E4
:1038C0009DF81F0040F67071C2F2000100220A54F8
:1038D0009DF81F0040F64C71C2F2000151F8200023
:1038E000B0F5C87F15D3FFE79DF81F0040F64C7177
:1038F000C2F2000151F82000B0F5167F09D8FFE7A9
:103900009DF81F0040F68471C2F200010E220A5495
:1039100008E09DF81F0040F68471C2F20001012208
:103920000A54FFE79DF81F000021FEF759FE1EE034
:103930009DF81F0040F69471C2F2000151F820007A
:103940001F2813D3FFE79DF81F0040F68471C2F2D1
:10395000000101220A5408F03FF99DF81F1040F6BB
:10396000B472C2F2000242F82100FFE7FFE7AAE0CA
:103970009DF81F0040F68471C2F20001085C9DF8BA
:103980001F1040F68872C2F2000250549DF81F00CA
:1039900040F67071C2F20001085C00F003000228DA
:1039A00068D1FFE79DF81F0040F67071C2F2000178
:1039B00000220A549DF81F0040F67471C2F2000103
:1039C00051F82000B0F5C87F4AD3FFE79DF81F00EB
:1039D00040F67471C2F2000151F82000B0F5167F74
:1039E0003ED8FFE79DF81F0040F61071C2F20001BB
:1039F00031F81020013221F810209DF81F0031F815
:103A0000100050281DDBFFE79DF81F0040F6847171
:103A1000C2F2000102220A549DF81F000121019107
:103A2000FEF7B6F99DF81F000199FEF799FA9DF887
:103A30001F0040F61071C2F20001002221F8102090
:103A400008E09DF81F0040F68471C2F200010D22CB
:103A50000A54FFE79DF81F000121FEF7C1FD08E0B1
:103A60009DF81F0040F68471C2F2000101220A5441
:103A7000FFE71EE09DF81F0040F69471C2F20001BE
:103A800051F820001F2813D3FFE79DF81F0040F6D0
:103A90008471C2F2000101220A5408F09DF89DF8D9
:103AA0001F1040F6B472C2F2000242F82100FFE794
:103AB000FFE708E09DF81F0040F68471C2F20001A4
:103AC00000220A54FFE7FFE7FFE79DF81F000130DF
:103AD0008DF81F00FEF748BE08B080BD80B586B0E7
:103AE00001468DF8160001208DF815000020049085
:103AF0009DF81600024603280391029212D80299FB
:103B0000DFE801F00205080C012004900FE010200E
:103B100004900CE04FF48070049008E04FF4805063
:103B2000049004E09DF815008DF8170020E09DF842
:103B3000160040F66C71C2F20001085C002812D039
:103B4000FFE79DF8160040F66C71C2F200010022FA
:103B50000A5404989DF816100192FDF753FF01983E
:103B60008DF81500FFE79DF815008DF81700FFE7A9
:103B70009DF8170006B080BD80B586B040F60040C5
:103B8000C4F201001021C0F21041059002F0C4F906
:103B90002021C0F22041059802F0BEF94021C0F278
:103BA0004041059802F0B8F90821C0F20841059893
:103BB00002F0B2F941F60000C4F201000221C0F2A5
:103BC00002410490039102F009FA40F201110498B5
:103BD00002F004FA41F20040C4F2010040F2022176
:103BE000029002F0FBF90298039902F0F7F94FF006
:103BF0008040019002F052FE019802F031FD0198E0
:103C000002F0FCFC019802F003FD019802F00AFDAD
:103C1000019802F011FD0021019803F063FA019868
:103C200002F090FE06B080BD80B582B04FF08040BB
:103C300002F034FE40F60040C4F201001021C0F250
:103C40001041019002F068F92021C0F22041019852
:103C500002F062F94021C0F24041019802F05CF9A3
:103C60000821C0F20841019802F056F902B080BD67
:103C700080B582B0FEF7CEFB8DF807009DF80700F7
:103C8000002805D0FFE7FEF7C5FB8DF80700FFE72A
:103C90009DF8070002B080BD80B584B001468DF864
:103CA0000F009DF80F00024603280291019222D8CE
:103CB0000199DFE801F0020910184FF0804001215E
:103CC000002203F01BF817E04FF080401021002283
:103CD00003F014F810E04FF080404FF480710022A0
:103CE00003F00CF808E04FF080404FF480510022C0
:103CF00003F004F800E0FFE704B080BD80B582B0B7
:103D0000014601900198009100F04CF802B080BD8E
:103D100080B582B0014601900198009100F01EF834
:103D200002B080BD80B584B001460390039800289E
:103D3000029110D0FFE7FFE70398411E039100288E
:103D400008D0FFE74FF47A7000F008F800F034FD77
:103D50000190F1E7FFE704B080BD000080B584B0BA
:103D60000146039003980028029105D0FFE70398CD
:103D700007F03EFF0190FFE704B080BD80B582B040
:103D80000146019001980091FFF7B8FF02B080BD95
:103D900080B582B00146019001980091FFF7B8FF0D
:103DA00002B080BD80B584B001460390039800281E
:103DB00002910FD0FFE707F0F7FE002805D1FFE7DB
:103DC000039807F0F5FE019003E00398FFF7AAFFC0
:103DD000FFE7FFE704B080BD86B00A4603460590C2
:103DE000ADF812100020ADF81000ADF80E00BDF8CF
:103DF00012100139ADF80C10ADF8100001920093CB
:103E0000FFE7BDF81000BDF80C1088423FDAFFE76D
:103E10000020ADF80E00FFE7BDF80E00BDF80C1055
:103E2000BDF81020891A88422ADAFFE70598BDF804
:103E30000E1000EB410230F811005188884218DA68
:103E4000FFE70598BDF80E1000EB41004088ADF883
:103E50000A000598BDF80E1000EB410230F8110081
:103E60005080BDF80A000599BDF80E2021F8120017
:103E7000FFE7FFE7BDF80E000130ADF80E00CBE71D
:103E8000FFE7BDF810000130ADF81000B9E70020E1
:103E900006B0704780B500F005F880BD80B5FFF72B
:103EA000F9FF80BD80B540F6C871C2F200014FF63F
:103EB0000000C0F60F004FF4806200F017F880BDDC
:103EC00080B586B013468C46864605900491ADF8C1
:103ED0000E2005980499BDF80E200293CDF804C079
:103EE000CDF800E000F018F806B080BD80B586B0CF
:103EF00013468C46864605900491ADF80E20059831
:103F00000499BDF80E200293CDF804C0CDF800E06E
:103F1000FFF7D6FF06B080BD80B586B013468C464D
:103F2000864605900491ADF80E200020ADF80C00F7
:103F30000293CDF804C0CDF800E0FFE7BDF80C0017
:103F4000BDF80E10884213DAFFE7059801F0ECFE89
:103F5000DDF810E0BDF80C102EF8110005980230C5
:103F60000590FFE7BDF80C000130ADF80C00E5E767
:103F700006B080BD80B584B00A46034603908DF834
:103F80000B1003989DF80B100192009300F01AF8A3
:103F900004B080BD80B500F0BDF880BD80B584B0B0
:103FA0000A46034603908DF80B1003989DF80B10FA
:103FB00001920093FFF7DEFF04B080BD80B5FFF7EC
:103FC000E9FF80BD80B584B00A46034603908DF8B2
:103FD0000B10039840F60001C4F2010188420192DF
:103FE00000930ED1FFE79DF80B00002804D0FFE7F7
:103FF000042001F089FA03E0042001F041FAFFE710
:1040000085E0039840F60041C4F2010188420ED1D8
:10401000FFE79DF80B00002804D0FFE7082001F01F
:1040200073FA03E0082001F02BFAFFE76FE0039832
:1040300041F20001C4F2010188420ED1FFE79DF870
:104040000B00002804D0FFE7102001F05DFA03E028
:10405000102001F015FAFFE759E0039841F2004102
:10406000C4F2010188420ED1FFE79DF80B00002841
:1040700004D0FFE7202001F047FA03E0202001F000
:10408000FFF9FFE743E0039841F60001C4F20101A4
:1040900088420ED1FFE79DF80B00002804D0FFE70F
:1040A000402001F031FA03E0402001F0E9F9FFE798
:1040B0002DE0039841F60041C4F2010188420ED17F
:1040C000FFE79DF80B00002804D0FFE7802001F0F7
:1040D0001BFA03E0802001F0D3F9FFE717E0039813
:1040E00042F20001C4F20101884210D1FFE79DF8BD
:1040F0000B00002805D0FFE74FF4807001F004FAB0
:1041000004E04FF4807001F0BBF9FFE7FFE704B073
:1041100080BD000080B582B040F60000C4F201000E
:1041200001210191FFF74EFF40F60040C4F201006B
:104130000199FFF747FF41F20000C4F20100019925
:10414000FFF740FF41F20040C4F201000199FFF780
:1041500039FF41F60000C4F201000199FFF732FF78
:1041600041F60040C4F201000199FFF72BFF42F233
:104170000000C4F201000199FFF724FF019801F04B
:10418000C3F901F0F5FD01F0FFFD02B080BD0000B4
:1041900040F23C00C2F20000006844F63801C2F26E
:1041A00000010A681044086070470000FFE7FEE75E
:1041B00080B584B00A4603460390029103980299A1
:1041C0000192009300F092F804B080BD80B582B0F7
:1041D000014601900198009100F0DEF802B080BD28
:1041E00080B586B00A46034605908DF813100598F1
:1041F0000392029300F00EF99DF81310002901902C
:1042000006D0FFE70598C18A01F0FE01C18205E0F2
:104210000598C18A41F00101C182FFE70598817DBF
:1042200000F0DCF905990090084600F0B5F806B0FA
:1042300080BD000080B582B00146019001980091D8
:1042400000F03AF902B080BD80B584B00A4603465A
:1042500003908DF80B1003989DF80B1001920093BA
:1042600000F0BCF904B080BD80B584B00A460346B6
:10427000039002910398029901920093FFF798FF2F
:1042800004B080BD80B582B00146019001980091D4
:10429000FFF79CFF02B080BD80B584B00A4603469C
:1042A00003908DF80B1003989DF80B10019200936A
:1042B000FFF796FF04B080BD80B582B00146019043
:1042C00001980091FFF7B6FF02B080BD80B584B0C1
:1042D0000A46034603908DF80B1003989DF80B10C7
:1042E00001920093FFF7B0FF04B080BD80B590B09D
:1042F0000A4603460F900E910F98406801210891DD
:1043000007920693FFF74AFE0F98C0680899FFF7D7
:1043100045FE0F984168806805900846059901F0B0
:104320006BFE0F98C168006904900846049901F07B
:1043300063FE00200D900C900B900A9009900F984E
:104340008068099008980A9002210B9104210C9131
:104350000D900F99486809A9039101F021FD0F996B
:10436000096909910F99C96802900846039901F0FB
:1043700017FD0E990029019004D0FFE70E980F99C0
:10438000C86106E00F9843F69151C0F60001C16183
:10439000FFE7002010B080BD80B588B001460790CF
:1043A00000208DF81B000798C26800690590104630
:1043B000059A0491114601F01FFE07984168806834
:1043C00003900846039901F017FE0798C06900287A
:1043D00005D0FFE70798C169407D8847FFE7079848
:1043E000C168006902900846029901F051FD002859
:1043F00004D0FFE701208DF81B00FFE70798416814
:10440000806801900846019901F094FD9DF81B0019
:1044100008B080BD80B588B0014606900698C26895
:10442000006905901046059A0491114601F0E4FDDB
:1044300006984168806803900846039901F0DCFD06
:104440000698C069002805D0FFE70698C169407D3D
:104450008847FFE70698C1680069029008460299FC
:1044600001F068FD0698C069002805D0FFE70698AE
:10447000C169407D8847FFE70698416880680190E0
:104480000846019901F056FD0698C1680069009040
:104490000846009901F0FCFC002804D0FFE7012049
:1044A0008DF81F0003E000208DF81F00FFE79DF846
:1044B0001F0008B080BD000080B588B0014606909E
:1044C0000698C268006905901046059A0491114645
:1044D00001F030FD06984168806803900846039912
:1044E00001F08AFD0698C069002805D0FFE706980C
:1044F000C169407D8847FFE70698C168006902905E
:104500000846029901F078FD0698C069002805D098
:10451000FFE70698C169407D8847FFE70698C168B4
:10452000006901900846019901F0B2FC002804D10D
:10453000FFE701208DF81F0003E000208DF81F0029
:10454000FFE79DF81F0008B080BD000080B588B06F
:104550000A46034607908DF81B109DF81B000006C5
:1045600000280592049309D5FFE70798C168006900
:1045700003900846039901F03FFD08E00798C168E1
:10458000006902900846029901F0D4FCFFE7079801
:104590004168806801900846019901F02DFD079857
:1045A000C069002805D0FFE70798C169407D8847AA
:1045B000FFE707984168806800900846009901F07D
:1045C000B9FC0798C069002805D0FFE70798C169C2
:1045D000407D8847FFE7002008B080BD80B586B0E9
:1045E0000A46034605908DF8131000208DF812003E
:1045F0000599D1F804C0896803906046029201933E
:1046000001F098FC03988DF81200FFE79DF8120066
:10461000072812DCFFE705989DF81310FFF796FFB7
:104620009DF8131049008DF813100090FFE79DF8D6
:10463000120001308DF81200E8E7002006B080BDBE
:1046400080B584B00A460346039002910398016A3C
:1046500021F0010101620398806920F0FF000299B6
:10466000D1F804C0D1F808E0C96841EA0C0141EA78
:104670000E0140EA1140039988610398006A20F016
:104680000A0002990968084340F001000399086292
:1046900001200192009304B080BD000080B584B079
:1046A0000A460346039002910398016A21F0100123
:1046B00001620398806920F47F400299D1F804C018
:1046C000D1F808E0C96841EA0C0141EA0E0140EA6C
:1046D0001120039988610398006A20F0A0000299D4
:1046E000096840EA011040F01000039908620120B7
:1046F0000192009304B080BD80B584B00A460346A1
:10470000039002910398016A21F480710162039879
:10471000C06920F0FF000299D1F804C0D1F808E088
:10472000C96841EA0C0141EA0E0140EA11400399CF
:10473000C8610398006A20F430600299096840EA71
:10474000012040F4807003990862012001920093D7
:1047500004B080BD80B584B00A4603460390029140
:104760000398016A21F4805101620398C06920F422
:104770007F400299D1F804C0D1F808E0C96841EA45
:104780000C0141EA0E0140EA11200399C861039827
:10479000006A20F440500299096840EA013040F470
:1047A00080500399086201200192009304B080BDFB
:1047B00080B500F005F880BD80B5FFF7F9FF80BD3A
:1047C00080B543F20000C4F2000001F05DFD00205E
:1047D00080BD000080B582B001468DF807009DF8CD
:1047E0000700009100F076F802B080BD80B582B07D
:1047F00001468DF807009DF80700009100F08CF845
:1048000002B080BD80B582B001468DF807009DF8EA
:104810000700009100F0A0F802B080BD80B582B022
:1048200001468DF807009DF80700009100F0B4F8EC
:1048300002B080BD80B500F09DF980BD80B500F06C
:10484000D3F980BD80B500F045FA80BD80B500F099
:10485000AFFA80BD80B582B001468DF807009DF8A3
:1048600007000091FFF7B6FF02B080BD80B582B0AF
:1048700001468DF807009DF807000091FFF7B6FF8D
:1048800002B080BD80B582B001468DF807009DF86A
:1048900007000091FFF7B6FF02B080BD80B582B07F
:1048A00001468DF807009DF807000091FFF7B6FF5D
:1048B00002B080BD80B5FFF7BDFF80BD80B5FFF7BA
:1048C000BDFF80BD80B5FFF7BDFF80BD80B5FFF7A0
:1048D000BDFF80BD80B582B001468DF807009DF810
:1048E0000700002800910AD1FFE741F60000C4F25A
:1048F00001000221C0F2024101F02AFB09E041F669
:104900000000C4F201000221C0F2024101F082FB6A
:10491000FFE702B080BD000080B582B001468DF88F
:1049200007009DF807000028009109D1FFE741F634
:104930000000C4F2010040F2011101F009FB08E09F
:1049400041F60000C4F2010040F2011101F062FBE7
:10495000FFE702B080BD000080B582B001468DF84F
:1049600007009DF807000028009109D1FFE741F2F8
:104970000040C4F2010040F2022101F0E9FA08E02F
:1049800041F20040C4F2010040F2022101F042FB7A
:10499000FFE702B080BD000080B582B001468DF80F
:1049A00007009DF80700002800910AD1FFE741F2B7
:1049B0000040C4F201000221C0F2024101F0C8FA35
:1049C00009E041F20040C4F201000221C0F20241BC
:1049D00001F020FBFFE702B080BD000080B590B081
:1049E00041F60000C4F2010001210A900991FFF78D
:1049F000D5FA0A980999FFF7D1FA41F20040C4F2BA
:104A0000010008900999FFF7C9FA08980999FFF77A
:104A1000C5FA00200F900E900D900C900B90099805
:104A20000C900D9004210E910F900221C0F20241D2
:104A30000B910DF12C0E0A9807917146CDF818E0F4
:104A400001F0AEF90A9905900846079901F0E2FADB
:104A500040F201100B900A9904900846069901F063
:104A60009FF90A9903900846049901F0D3FA40F29D
:104A700002200B90089902900846069901F090F9DF
:104A8000089901900846029901F0C4FA07980B9022
:104A90000898069901F084F908990090084607994A
:104AA00001F0B8FA10B080BD80B590B041F60000BA
:104AB000C4F2010001210A900991FFF76FFA0A98E8
:104AC0000999FFF76BFA41F20040C4F20100089027
:104AD0000999FFF763FA08980999FFF75FFA002030
:104AE0000F900E900D900C900B9009980C900D90DB
:104AF00004210E910F900421C0F204410B910DF19D
:104B00002C0E0A9807917146CDF818E001F048F98B
:104B10000A9905900846079901F07CFA40F20220B4
:104B20000B900A9904900846069901F039F90A9900
:104B300003900846049901F06DFA40F204400B908E
:104B4000089902900846069901F02AF908990190FF
:104B50000846029901F05EFA07980B9008980699AA
:104B600001F01EF9089900900846079901F052FAE1
:104B700010B080BD80B586B041F60000C4F20100DF
:104B80000421C0F204410590049101F043FA40F27F
:104B90000220059903900846039901F03BFA41F27F
:104BA0000040C4F2010040F20441029001F032FAE8
:104BB0000298049901F02EFA0220C0F202400599F1
:104BC00001900846019901F025FA40F2011105987B
:104BD00001F020FA0298039901F01CFA0298019959
:104BE00001F018FA06B080BD80B584B041F600002F
:104BF000C4F201000421C0F204410390029101F0CB
:104C0000A7F940F20221039801F0A2F941F2004015
:104C1000C4F2010040F20441019001F099F90198B9
:104C2000029901F095F904B080BD000080B582B012
:104C300000208DF8070041F60000C4F201000821B1
:104C4000C0F2084101F036F9002807D1FFE79DF8CE
:104C5000070040F001008DF80700FFE741F6000073
:104C6000C4F2010040F2044101F024F9002807D108
:104C7000FFE79DF8070040F002008DF80700FFE70E
:104C800041F20040C4F2010040F6080101F012F9BF
:104C9000002807D1FFE79DF8070040F004008DF8D9
:104CA0000700FFE741F20040C4F201000821C0F212
:104CB000084101F0FFF8002807D1FFE79DF8070041
:104CC00040F008008DF80700FFE79DF8070002B0EC
:104CD00080BD000080B5FFF781FE00F003F8FFF70C
:104CE000E3FE80BD80B590B041F60000C4F2010043
:104CF00001210A900991FFF751F90A980999FFF7E4
:104D00004DF941F20040C4F2010008900999FFF703
:104D100045F908980999FFF741F900200F900E9086
:104D20000D900C900B9009980C900D9004210E9111
:104D30000F900821C0F208410B910DF12C0E0A983A
:104D400007917146CDF818E001F02AF80A9905900C
:104D50000846079901F05EF940F204400B900A9969
:104D600004900846069901F01BF80A99039008463A
:104D7000049901F04FF940F608000B900899029051
:104D80000846069901F00CF8089901900846029926
:104D900001F040F907980B900898069901F000F887
:104DA000089900900846079901F034F910B080BDC9
:104DB00080B582B0FFF73AFF8DF807009DF8070035
:104DC000002805D0FFE7FFF731FF8DF80700FFE768
:104DD0009DF8070002B080BD80B500F059F880BD95
:104DE00080B5FFF7F9FF80BD80B58CB040F600407C
:104DF000C4F20100012106900591FFF7CFF80020D1
:104E00000B900A900990089007900421C0F2044189
:104E10000791DDF814E0CDF820E0022209920A9013
:104E20000B9007A8069A04901046049B039119461C
:104E300000F0B6FF069902900846039901F096F833
:104E400044F65560C0F6000006F0BCFE01900CB0C0
:104E500080BD000080B540F24000C2F20000016851
:104E6000013101600068B0F5FA7F10D9FFE740F228
:104E70004000C2F200000021016040F60040C4F290
:104E800001000421C0F2044101F0EEF9FFE780BD0A
:104E900080B5FFF7A9FF80BD80B588B00A460346FC
:104EA0000790069101200590079842F20041C4F254
:104EB000010188420492039314D1FFE742F20040BB
:104EC000C4F2010000F012F942F6000EC4F2010E25
:104ED0000290704600F00AF9DDF808E040EA0E00A2
:104EE000019007E043F60040C4F2010000F0FEF834
:104EF0000190FFE70198002817D1FFE706980068A6
:104F000000280AD0FFE70798406820F4702006992F
:104F1000096808430799486006E00798406820F44C
:104F2000702007994860FFE702E000200590FFE746
:104F3000059808B080BD000080B584B0014603909C
:104F4000012002900398019100F0D0F801280ED1C1
:104F5000FFE703984FF4602100F064F903984FF4E1
:104F6000E04100F07DF8039800F056F8FFE7039861
:104F70008068C00700284CD1FFE70398016821F042
:104F80001F010160039841680022CFF63072114082
:104F900041600398816840F2F062CFF601721140DF
:104FA00081600398C16801F07F41C1600398016985
:104FB00001F0404101610398416940F6FF7291435D
:104FC0004161039881696FF30B0181610398C169A5
:104FD0006FF30B01C1610398016A6FF30B0101626A
:104FE0000398416A114341620398816A6FF30B0190
:104FF00081620398C16A01F07F41C1620398016B2D
:1050000001F0404101630398816B6FF315018163E7
:10501000FFE7029804B080BD82B00146019001987C
:10502000826822F001028260009102B070470000A5
:1050300082B0014601900198826822F001028260EC
:10504000009102B07047000082B0014601900198C3
:10505000826842F001028260009102B07047000055
:1050600084B00A460346039002910398806802992F
:10507000090B61F30E30039988600192009304B02C
:105080007047000080B586B00A460346059004913B
:105090000120039005980292019300F027F8002860
:1050A00013D1FFE70598406820F48070049949689F
:1050B0000843059948600598806820F400600499C9
:1050C000096808430599886002E000200390FFE723
:1050D000039806B080BD000082B00146019001989F
:1050E0008068C0F38000009102B0704782B0014632
:1050F00001900198806800F00100009102B07047B3
:1051000080B586B00A4603460590049101200390BD
:105110000498406800280292019301D0FFE7FFE75E
:105120000598FFF7E3FF002831D1FFE704984068B6
:1051300000280CD0FFE70598406820F468400499E7
:105140004A688968114308430599486009E0059851
:10515000406820F46840049949680843059948600C
:10516000FFE7059880684FF6FD61CFF6F1710840C2
:1051700004990A68CB6809691A43114308430599E1
:10518000886005980499496800F008F802E000205A
:105190000390FFE7039806B080BD000084B00A4684
:1051A0000346039002910398C06A20F470000299AC
:1051B00008430399C8620192009304B0704700004D
:1051C00010B589B013468C46864606900591049228
:1051D0000698059901F440714FF440720892089ABC
:1051E00092FAA2F20792079AB2FA82F2D14000EB49
:1051F00081002C30039003980168059A02F01F0289
:105200001F249440A143049C04F01F0404FA02F2FA
:10521000114301600293CDF804C0CDF800E009B05D
:1052200010BD000084B00A46034603900291039823
:1052300080680299490C61F3534003998860019298
:10524000009304B07047000082B0014601900198BD
:10525000826842F4A0028260009102B070470000B0
:1052600010B58DB013468C46864606900591049283
:105270000698059901F000714FF000720892089AA3
:1052800092FAA2F20792079AB2FA82F2D14000EBA8
:1052900081000C30039003980068059901F0F871C3
:1052A0004FF0F8720A920A9C94FAA4F40994099CAB
:1052B000B4FA84F4E140072404FA01F18843049924
:1052C000059C04F0F8740C920C9A92FAA2F20B92DC
:1052D0000B9AB2FA82F224FA02F29140084303993F
:1052E00008600293CDF804C0CDF800E00DB010BD09
:1052F00082B0014601900198826842F00402826007
:10530000009102B07047000084B0014603900398FA
:1053100041F21402C4F202021368184310601068CC
:10532000039A1040029002980191009004B07047D7
:1053300084B001460390039841F21402C4F20202C1
:105340001368184310601068039A10400290029886
:105350000191009004B0704782B00146019001981D
:1053600041F21C02C4F20202136823EA000010603A
:10537000009102B07047000082B001460190019890
:1053800041F21C02C4F20202136823EA000010601A
:10539000009102B07047000084B00146039003986A
:1053A00041F21C02C4F20202136818431060106834
:1053B000039A1040029002980191009004B0704747
:1053C00084B001460390039841F21C02C4F2020229
:1053D0001368184310601068039A104002900298F6
:1053E0000191009004B0704782B00146019001988D
:1053F00041F21002C4F202021368184310600091D7
:1054000002B0704782B001460190019841F210024B
:10541000C4F20202136818431060009102B0704792
:1054200082B001460190019841F21002C4F20202DA
:10543000136823EA00001060009102B0704700007A
:1054400082B001460190019841F21002C4F20202BA
:10545000136823EA00001060009102B0704700005A
:1054600082B001460190019841F21802C4F2020292
:10547000136823EA00001060009102B0704700003A
:1054800082B001460190019841F21802C4F2020272
:10549000136823EA00001060009102B0704700001A
:1054A00082B001460190019841F21802C4F2020252
:1054B000136823EA00001060009102B070470000FA
:1054C00082B001460190019841F21802C4F2020232
:1054D000136823EA00001060009102B070470000DA
:1054E00084B001460390039841F21802C4F202020C
:1054F0001368184310601068039A104002900298D5
:105500000191009004B0704784B001460390039865
:1055100041F21802C4F202021368184310601068C6
:10552000039A1040029002980191009004B07047D5
:1055300084B001460390039841F21802C4F20202BB
:105540001368184310601068039A10400290029884
:105550000191009004B0704784B001460390039815
:1055600041F21802C4F20202136818431060106876
:10557000039A1040029002980191009004B0704785
:1055800082B001460190019841F20C02C4F202027D
:10559000136818431060009102B0704782B0014652
:1055A0000190019841F20C02C4F202021368184300
:1055B0001060009102B0704782B0014601900198DE
:1055C00041F20C02C4F20202136823EA00001060E8
:1055D000009102B07047000082B00146019001982E
:1055E00041F20C02C4F20202136823EA00001060C8
:1055F000009102B07047000080B584B0014603906E
:1056000001200290039843F20002C4F20202904289
:10561000019108D1FFE7039800F020F803980021DA
:1056200000F030F802E000200290FFE7029804B09A
:1056300080BD000084B00A460346039002910298A0
:10564000039908600192009304B0704782B001464C
:10565000019001980068009102B0704782B0014645
:105660000190019801228260009102B07047000011
:1056700082B001460190019801228260009102B03F
:105680007047000084B00A460346039002910298D6
:10569000039908710192009304B0704782B00146EB
:1056A0000190019801224260009102B07047000011
:1056B00082B001460190019801224260009102B03F
:1056C0007047000082B001460190019810224260AC
:1056D000009102B07047000082B00146019001982D
:1056E0004FF480724260009102B0704782B0014670
:1056F000019001984FF480524260009102B07047CF
:1057000082B00146019001984FF4803242600091CE
:1057100002B0704782B00146019001984FF4803288
:105720004260009102B0704782B00146019001983A
:105730004FF480124260009102B0704782B001467F
:10574000019001984FF080724260009102B0704762
:1057500082B001460190019804224260009102B09B
:105760007047000082B00146019001984FF48022FA
:105770004260009102B0704782B0014601900198EA
:1057800002224260009102B07047000082B00146E0
:10579000019001984FF400324260009102B07047CE
:1057A00080B586B013468C468646059004910392D8
:1057B000059804994FF27F72C0F60002114411F867
:1057C000011C40580499114447F6F0729043039A23
:1057D0001043059A11F8011C50500293CDF804C0F3
:1057E000CDF800E006B080BD80B592B00A46034611
:1057F000119010910820C4F202000F9001200E9029
:1058000011980021C4F2020188420D920C9309D133
:10581000FFE71098012805D1FFE70820C4F2020035
:105820000B90D0E0119840F20041C4F2020188428E
:105830000AD1FFE71098012806D1FFE740F208409F
:10584000C4F202000A90BBE011980021C4F20201E8
:10585000884209D1FFE71098022805D1FFE71C20F4
:10586000C4F202000990A8E0119840F20041C4F28D
:10587000020188420AD1FFE71098022806D1FFE70B
:1058800040F21C40C4F20200089093E011980021FD
:10589000C4F20201884209D1FFE71098032805D11C
:1058A000FFE73020C4F20200079080E0119840F238
:1058B0000041C4F2020188420AD1FFE71098032890
:1058C00006D1FFE740F23040C4F2020006906BE0E0
:1058D00011980021C4F20201884209D1FFE7109813
:1058E000042805D1FFE74420C4F20200059058E0E7
:1058F000119840F20041C4F2020188420AD1FFE748
:105900001098042806D1FFE740F24440C4F2020098
:10591000049043E011980021C4F20201884209D1A9
:10592000FFE71098052805D1FFE75820C4F20200D0
:10593000039030E0119840F20041C4F20201884225
:105940000AD1FFE71098052806D1FFE740F258403A
:10595000C4F2020002901BE0119800210022C4F260
:1059600002029042019107D1FFE710980638B0FA81
:1059700080F040090190FFE70198C0078021C4F240
:10598000020100281CBF6C21C4F202010291FFE752
:1059900002980390FFE703980490FFE704980590AE
:1059A000FFE705980690FFE706980790FFE707983E
:1059B0000890FFE708980990FFE709980A90FFE729
:1059C0000A980B90FFE70B980F900F98016821F051
:1059D000010101600F98002101600F9841600F984C
:1059E00081600F98C1601098012804D1FFE71198D9
:1059F000FFF754FE38E01098022804D1FFE7119811
:105A0000FFF760FE2FE01098032804D1FFE71198FC
:105A1000FFF762FE26E01098042804D1FFE71198F2
:105A2000FFF764FE1DE01098052804D1FFE71198E8
:105A3000FFF766FE14E01098062804D1FFE71198DE
:105A4000FFF772FE0BE01098072804D1FFE71198CA
:105A5000FFF774FE02E000200E90FFE7FFE7FFE78C
:105A6000FFE7FFE7FFE7FFE70E9812B080BD0000F9
:105A700084B00A46034603900291039802994FF2BC
:105A8000867CC0F6000C614411F8011C50F801C07E
:105A90002CF0010C40F801C00192009304B0704753
:105AA00084B00A46034603900291039802994FF28C
:105AB000867CC0F6000C614411F8011C50F801C04E
:105AC0004CF0010C40F801C00192009304B0704703
:105AD00084B00A46034603900291039802994FF25C
