:020000040800F2
:10000000B857002045010008156D00088537000825
:10001000396C0008911300082DD80008000000007A
:1000200000000000000000000000000035AD0008E6
:1000300059180008000000005D73000881B3000833
:1000400075E300083D7300085F0100085F010008C8
:100050005F010008BD7500085F0100085F0100082E
:100060005F0100085F0100085F010008DD1700085C
:100070005F0100085F0100085F0100085F010008E0
:100080005F0100085F0100085F0100085F010008D0
:100090005F0100085F0100085F0100085F010008C0
:1000A0005F0100085F0100085F0100085F010008B0
:1000B000D5B700085F0100085F0100085F01000874
:1000C0005F0100085F0100085F0100085F01000890
:1000D0005F01000829BE00085F0100085F010008F9
:1000E0005F0100085F0100085F0100085F01000870
:1000F0005F0100085F0100085F0100085F01000860
:100100005F0100085F0100085F0100085F0100084F
:100110005F0100085F0100085F0100085F0100083F
:100120005F0100085F0100085F010008191800085E
:10013000DFF80CD000F032FC004800479DE30008D7
:10014000B85700200648804706480047FEE7FEE70C
:10015000FEE7FEE7FEE7FEE7FEE7FEE7FEE7FEE777
:1001600075B70008310100082DE9F05F0546002051
:1001700092469B4688460646814640241BE0284618
:1001800041464746224600F0B0FA53465A46C01A46
:10019000914110D311461846224600F097FA2D1AC5
:1001A00067EB01084F4622460120002100F08EFA3D
:1001B00017EB00094E41201EA4F10104DFDC484684
:1001C00031462A464346BDE8F09FD2B201E000F82E
:1001D000012B491EFBD270470022F6E710B51346EB
:1001E0000A4604461946FFF7F0FF204610BDF0B45A
:1001F00080EA0102D40F4200B2EB410F02D2024664
:10020000084611464A0042D0C30DDDB2C1F3C752C1
:10021000AD1A202D35DAC1F3160141F4000204B104
:100220005242C5F1200602FA06F12A411044B3EB0E
:10023000D05F23D0C4B1012DA0EBC35009DCF0BCCA
:100240004FF0004202EAC352DBB200F5000000F0BA
:1002500077BA400000F1807000EBC350A0F18070CD
:1002600040EAD170490009E0490841EAC071A0EBB9
:10027000C35000F50000400800EBC350F0BC00F094
:1002800056BA6142012202EB4101001BF6E7F0BCC5
:10029000704781F00041AAE780F00040A7E780EABC
:1002A000010210B502F00043400022D04A001FD0E6
:1002B000010E01EB1261C0F35600C2F3560240F486
:1002C000000042F40002A0FB022000047F39140465
:1002D00000D0401C50EA124001D44000491EC2B276
:1002E0000C0604EBD010401C4008802A02D003E02A
:1002F000002010BD20F00100002900DA0020184382
:1003000010BD30B480EA010202F0004530F0004236
:1003100021F0004013D090B1C30DD40DC2F31601EB
:10032000C0F31600E41A41F4000140F400027D34E9
:10033000914201D3641C00E04900002C02DA30BC79
:10034000002070474FF400000023914201D3891A26
:10035000034340084FEA4101F7D151B1914202D124
:100360004FF0004105E002D24FF0010101E06FF0D3
:10037000010103EBC450284430BC00F0D8B92DE98A
:10038000FE4F804681EA0300C00F0C46009021F02A
:10039000004123F00045B8EB0200A94105D24046D8
:1003A000214690461C460B46024623F0004010436F
:1003B00047D0270DC7F30A00C3F30A510290401A31
:1003C000019040286BDAC3F3130040F4801B0098BF
:1003D000924620B10023D2EB030A63EB0B0B01988A
:1003E0005946C0F14002504600F070F906460D46ED
:1003F00050465946019A00F088F910EB0800614117
:10040000002487EA115284EAE7731A4340D0009A25
:1004100062B3019A012A4FEA075215DC001B61EB17
:1004200002014FF0004202EA0752CDE90042001CEF
:1004300041F5801132462B4600F0BFF903B0BDE80C
:10044000F08F40462146F9E7001B61EB0201001CDA
:1004500041F5801300185B412018A2F5001747EB07
:10046000030140EAD570B6196D4111E06D084FEAFD
:10047000360645EAC0754FEA0752001B61EB0201E0
:10048000001C41F5801149084FEA30000019514124
:1004900032462B4603B0BDE8F04F00F07FB900981C
:1004A000012240000023D0EB020263EBE0730098CE
:1004B00021464FEAE074B8EB000061EB0401E9E784
:1004C00083F000435BE781F0004158E72DE9F04DF0
:1004D00081EA030404F0004B21F0004514464FF07C
:1004E000000A23F0004150EA050220D054EA01023C
:1004F0001DD0C5F30A570246C5F31303C1F3130019
:10050000C1F30A5640F4801543F48013A7EB0608A4
:10051000101BD64608F2FD3873EB050002D308F134
:10052000010801E092185B41B8F1000F03DA0020E6
:100530000146BDE8F08D00204FF480110646844648
:100540000EE0171B73EB050705D3121B63EB0503C6
:1005500006434CEA010C49084FEA300092185B410F
:1005600050EA0107EDD152EA030012D082EA0400FA
:1005700083EA0501084305D0101BAB4106D20122D6
:10058000002306E000224FF0004302E06FF001027A
:1005900053101AEB06004CEB085110EB0A0041EB2C
:1005A0000B01BDE8F04D00F0F9B8C10F80EAE07032
:1005B0000844CA079623002100F0C2B896230022FF
:1005C000114600F0BDB80EB5C10F80EAE0700844D6
:1005D000CA07002140F233438DE80E000A460B465D
:1005E00000F0EBF803B000BD20F00040C10DC0F3F7
:1005F000160040F400007F2901DA00207047962998
:1006000003DCC1F19601C8407047963988407047B5
:10061000C1F30A5210B5C1F3130140F2FF3341F4A4
:1006200080119A4201DA002010BD40F233439A4211
:10063000A2F2334203DC524200F057F810BD904062
:1006400010BD00F0004230F000400AD0C10D01F5AD
:100650006071C0F3160042EA0151C208400711431D
:10066000704700200146704701F0004330B421F08C
:10067000004150EA010206D00A0DA2F56072C1F3F2
:100680001301002A02DC30BC00207047440F44EA0A
:10069000C104C100E01830BC00EBC25000F047B804
:1006A00030B50B46014600202022012409E021FA42
:1006B00002F59D4205D303FA02F5491B04FA02F53F
:1006C0002844151EA2F10102F1DC30BD202A04DB12
:1006D000203A00FA02F1002070479140C2F1200355
:1006E00020FA03F3194390407047202A04DB203A94
:1006F00021FA02F00021704721FA02F3D040C2F142
:1007000020029140084319467047202A06DBCB1788
:10071000203A41FA02F043EAE07306E041FA02F3BC
:10072000D040C2F120029140084319467047002989
:10073000A8BF7047401C490008BF20F00100704767
:1007400010B4B0FA80FC00FA0CF050EA010404BFC7
:1007500010BC704749B1CCF1200421FA04F411FA1D
:100760000CF118BF012121430843A3EB0C01CB1D61
:100770004FEA00614FEA102042BF002010BC7047D2
:1007800000EBC35010440029A4BF10BC7047401CAC
:10079000490008BF20F0010010BC704710B5141EBE
:1007A00073F1000408DA401C41F1000192185B412A
:1007B0001A4301D120F0010010BD2DE9F04D924601
:1007C0009B4611B1B1FA81F202E0B0FA80F2203218
:1007D0009046FFF77BFF04460F4640EA0A0041EAD5
:1007E0000B0153465A46084313D0114653EA010001
:1007F00019D0C8F140025046FFF777FF05460E4674
:10080000504659464246FFF761FF084305D0012094
:1008100004E020463946BDE8F08D0020054346EA55
:10082000E0762C4337430A986305E40AA0EB0800FE
:100830000022FD0A44EA47540A3002D5002001464E
:10084000E9E7010510196941DDE908450019694129
:10085000BDE8F04DA2E72DE9FE4F81EA030404F064
:10086000004421F0004100944FF0000B23F00043BE
:1008700050EA01045ED052EA03045BD0C3F30A5489
:10088000C1F30A552C44A4F2F3340194A0FB0254A2
:10089000C1F3130141F48011C3F3130343F4801334
:1008A00001FB024400FB034E840A970A44EA815488
:1008B00047EA8357A4FB076802958D0A05FB078565
:1008C0004FEA932C04FB0C542705029D4FEA06586F
:1008D00047EA1637B5EB08056EEB070C870E920E4C
:1008E00047EA811742EA8312A7FB0201B6EB0B012C
:1008F00064EB00042B0D43EA0C335E1844EB1C50F0
:10090000DA465146E7FB0201C5F313044FEA0B3305
:1009100043EA14534FEA0432019C43EA0603A4F16C
:100920000C040294009CCDE900B4FFF746FF03B02D
:10093000BDE8F08F00200146F9E7C1F30A52C1F388
:10094000130140F2FF3341F480119A4202DA002091
:100950000146704740F233439A42A2F2334202DC2E
:100960005242FFF7C2BEFFF7B1BE000030B5041E11
:1009700071F1000404DB4FF00044404264EB0101DC
:10098000141E73F1000405DB1C464FF00043524275
:1009900063EB0403994208BF904230BD064C074DFB
:1009A00006E0E06840F0010394E80700984710343F
:1009B000AC42F6D3FFF7C0FB64F2000884F20008F3
:1009C00080B582B0014601900198009100F00EFBC5
:1009D00002B080BD80B582B00146019001980091BF
:1009E00000F046FB02B080BD80B500F085FB80BD05
:1009F00080B582B0014601900198009100F00AFC98
:100A000002B080BD80B582B001460190019800918E
:100A1000FFF7E0FF02B080BD80B5FFF7E5FF80BDC6
:100A200080B58AB00A46034609908DF8231000204D
:100A30008DF8220042F20040C4F2010007920693B2
:100A4000FFF7BEFF9DF823100329059008DBFFE7A1
:100A500043F60040C4F20100FFF7B2FF0490FFE745
:100A6000FFE740F21C00C2F2000000680078002896
:100A700001D1FFE7F5E79DF8230003280CDBFFE732
:100A8000FFE740F22000C2F2000000680078002872
:100A900001D1FFE7F5E7FFE740F21C00C2F20000DA
:100AA0000068FFF7A5FF9DF823E0BEF1030F039058
:100AB00009DBFFE740F22000C2F200000068FFF708
:100AC00097FF0290FFE700208DF82200FFE79DF8D6
:100AD00022009DF8231088423CDAFFE79DF82200AF
:100AE00001460328019128D80199DFE801F0020BA3
:100AF000141D40F21C00C2F20000006840880999F1
:100B0000088020E040F21C00C2F2000000688088EB
:100B10000999488017E040F22000C2F20000006806
:100B20004088099988800EE040F22000C2F200005F
:100B3000006880880999C88005E009989DF823100D
:100B4000FFF74AFBFFE7FFE79DF8220001308DF831
:100B50002200BCE700200AB080BD000080B582B052
:100B600000F00AF8019000F09FF84FF0000E00909E
:100B7000704602B080BD000080B592B00020C4F283
:100B8000020001210790069104F04AF906990590A8
:100B9000084603F0D5FE08A828210490FFF71CFBA7
:100BA0002420109000200A9040F21C01C2F20001A3
:100BB0000968063109914FF480610F9180210D91F0
:100BC0000B9042F24C41C4F2010108914FF4807144
:100BD0000E910C904FF40051119107990390084623
:100BE0000699049A04F0A8FA079902900846069913
:100BF00004F072FA06F00EFA0699039A06F0CAF8A3
:100C00000B2101900846019A0091114606F090FAD6
:100C1000009806F083F80798069904F075FA03988F
:100C200012B080BD80B586B00020C4F20200012160
:100C300024220590049104F003FB0598049904F024
:100C40004BFA42F20040C4F20100039003F018FD99
:100C5000039800F06FFB0021039A02901046019167
:100C6000019A00F03FFB01990090084606B080BD54
:100C700080B582B00020C4F202000121019004F08E
:100C800013FA019804F030F8019804F07DF8019807
:100C900004F08EF842F20040C4F2010003F0E4FCDC
:100CA000002002B080BD000080B594B000201390F9
:100CB0001290119010900F900E900D900C9042F2A7
:100CC0000041C4F201010B9008460A9103F050FC68
:100CD0000121DDF828E009907046089100F016FA2D
:100CE0000B9912914FF4807ECDF84CE012A90A9A2C
:100CF00007901046CDF818E003F0E0FC4FF46021B7
:100D00000D914FF480110E910B990F9102221092C8
:100D1000069A11920DA9DDF828E00590704603F0BF
:100D20000BFD4FF400410490084604F0F1FE0B98CF
:100D30000C900CA90A9803F0CBFB4FF400710A2227
:100D4000DDF828E003907046029203F055FD0A9802
:100D50000299089A03F0A0FD40F205210B20C0F291
:100D600030000A9A01901046019A03F045FD0A9856
:100D70000199089A03F090FD0A9803F081FC0A9803
:100D800000F0D8FA0B990090084614B080BD00001E
:100D900080B582B000F00AF8019000F0A1F84FF0A1
:100DA000000E0090704602B080BD000080B592B089
:100DB00040F20040C4F2020005210790069104F0C1
:100DC0002FF802210590084603F0BAFD08A8282153
:100DD0000490FFF701FA2420109000200A9040F2BE
:100DE0002001C2F200010968063109914FF48061C7
:100DF0000F9180210D910B9043F64C41C4F20101FB
:100E000008914FF480710E910C904FF400511191A4
:100E10000799039008460699049A04F08DF90799FA
:100E200002900846069904F057F906F0F3F80121FC
:100E3000039A05F0AFFF3B2101900846019A00910B
:100E4000114606F075F9009805F068FF07980699B5
:100E500004F05AF9039812B080BD000080B586B046
:100E600040F20040C4F202000521242205900491C2
:100E700004F0E6F90598049904F02EF943F60040D1
:100E8000C4F20100039003F0FBFB039800F052FA58
:100E90000021029008460191039A00F023FA01997B
:100EA0000090084606B080BD80B582B040F2004098
:100EB000C4F202000521019004F0F6F8019803F055
:100EC00045FF019803F06AFF019803F07BFF43F6AA
:100ED0000040C4F2010003F0C7FB002002B080BD57
:100EE00080B594B0002013901290119010900F9044
:100EF0000E900D900C9043F60041C4F201010B904E
:100F000008460A9103F034FB0121DDF828E009903E
:100F1000704600F0FBF80B9912914FF4807ECDF8EB
:100F20004CE012A90A9A08901046CDF81CE003F094
:100F3000C5FB4FF460210D914FF480110E910B9978
:100F40000F9102221092079A11920DA9DDF828E064
:100F50000690704603F0F0FB4FF400410590084600
:100F600004F0D6FD0B980C900CA90A9803F0B0FA87
:100F70004FF400710C22C0F26002DDF828E004900A
:100F80007046039203F038FC03200A990290084649
:100F90000399029A03F080FC40F205210D20C0F273
:100FA00090000A9A01901046019A03F025FC0A98D5
:100FB0000199029A03F070FC0A9803F061FB0A9809
:100FC00000F0B8F90B990090084614B080BD0000FD
:100FD00080B582B0FFF7C2FD0190FFF7D9FE4FF058
:100FE000000E0090704602B080BD000080B584B055
:100FF00001460290029842F20042C4F2010290427D
:1010000001910CD1FFE740F21C00C2F20000006821
:1010100000210170FFF706FE8DF80F0023E0029813
:1010200042F60001C4F20101884204D1FFE700202A
:101030008DF80F0017E0029843F60041C4F2010159
:1010400088420CD1FFE740F22000C2F200000068A5
:1010500000210170FFF702FF8DF80F0003E0002070
:101060008DF80F00FFE79DF80F0004B080BD000071
:1010700080B584B001460290029842F20042C4F268
:101080000102904201910DD1FFE740F21C00C2F233
:1010900000000068017801310170FFF7E9FD8DF86B
:1010A0000F0024E0029842F60001C4F201018842D8
:1010B00004D1FFE700208DF80F0018E0029843F6F6
:1010C0000041C4F2010188420DD1FFE740F2200047
:1010D000C2F200000068017801310170FFF7E4FE00
:1010E0008DF80F0003E000208DF80F00FFE79DF85A
:1010F0000F0004B080BD000080B582B000F068F839
:101100000190FFF765FF02B080BD000080B586B09A
:101110000A46034604908DF80F10049800280292A6
:10112000019304D1FFE701208DF817004BE00498EC
:1011300042F20041C4F20101884210D1FFE79DF85C
:101140000F00002805D0FFE74FF4007003F0E4FC27
:1011500004E04FF4007003F09FFCFFE7FFE7049802
:1011600042F60001C4F20101884210D1FFE79DF868
:101170000F00002805D0FFE74FF4806003F0CCFC9F
:1011800004E04FF4806003F087FCFFE7FFE704987A
:1011900043F60041C4F20101884210D1FFE79DF8F7
:1011A0000F00002805D0FFE74FF4004003F0B4FC27
:1011B00004E04FF4004003F06FFCFFE7FFE700207E
:1011C0008DF81700FFE79DF8170006B080BD0000FE
:1011D00080B588B041F20000C4F201000121029004
:1011E00002F0C8F900200790069005900490039043
:1011F00040F60F7103910490079003A9DDF808E011
:101200000190704604F0E8F801990090084608B093
:1012100080BD000080B5A0B001461F9000208DF871
:101220007B000DF1560224230A90104609911946BD
:101230000893FEF7D1FF0DF132000899FEF7CCFFBD
:101240001F9806300B900A988DF87B00FFE79DF8F9
:101250007B0011281DDCFFE70B9800889DF87B10B0
:101260000DF1560222F811000B9802300B900B98EA
:1012700000889DF87B100DF1320222F811000B98C6
:1012800002300B90FFE79DF87B0001308DF87B006A
:10129000DDE70DF1560012210790069102F088F863
:1012A0000DF1320105900846DDF818E00491714611
:1012B00002F07EF811214FF0010E079A03901046BC
:1012C00002917246CDF804E000F032FA1F9948808E
:1012D00004980299019A00F02BFA1F998880002047
:1012E00020B080BD80B586B013468C4686460590FA
:1012F00004910392059800280293CDF804C0CDF81C
:1013000000E004D0FFE7059803F0BAFAFFE704987D
:10131000002804D0FFE7049803F0B2FAFFE703982F
:10132000002804D0FFE7039803F0AAFAFFE70020A3
:1013300006B080BD80B584B00146029002980028B6
:1013400001911CD0FFE70298816841F0080181609B
:10135000FFE7029880680007002801D5FFE7F8E75B
:10136000029803F0E1FAFFE7029803F0D1F90028B0
:1013700001D0FFE7F8E700208DF80F0003E001201F
:101380008DF80F00FFE79DF80F0004B080BD00004E
:10139000FFE7FEE780B584B00A460346039002915A
:1013A000039802990192009300F084F804B080BD84
:1013B00080B584B00A4603460390029103980299CF
:1013C0000192009300F0A6F804B080BD80B586B00D
:1013D00013468C4686468DF81700049103929DF8BB
:1013E00017000499039A0293CDF804C0CDF800E0E9
:1013F00000F0D4F806B080BD80B584B00A4603463C
:1014000003900291039802990192009300F010F961
:1014100004B080BD80B500F047F980BD80B500F014
:1014200049F980BD80B584B00A4603460390029115
:101430000398029901920093FFF7ACFF04B080BDBE
:1014400080B584B00A46034603900291039802993E
:1014500001920093FFF7ACFF04B080BD80B586B069
:1014600013468C4686468DF81700049103929DF82A
:1014700017000499039A0293CDF804C0CDF800E058
:10148000FFF7A4FF06B080BD80B584B00A460346CE
:10149000039002910398029901920093FFF7ACFF29
:1014A00004B080BD80B5FFF7B5FF80BD80B5FFF704
:1014B000B5FF80BD86B00A46034605900491002022
:1014C000ADF80C00029001920093FFE70298049996
:1014D00088421BD2FFE79DF80D000599029A895CAE
:1014E00048408DF80F00BDF80C009DF80F104EF627
:1014F000B252C0F6000232F8111081EA0020ADF8B5
:101500000C00FFE7029801300290DFE7BDF80C0005
:1015100006B0704780B584B00A4603460390029136
:10152000039802990192009300F002F804B080BD84
:1015300080B588B00A4603460790069100200590C2
:10154000049003920293019000F020F80198059016
:10155000FFE705980699884210D2FFE7079805999A
:10156000405C0490049943F20000C4F2020003F0CE
:101570007DFBFFE7059801300590EAE743F20000A4
:10158000C4F2020003F07EFB08B080BD80B543F2D8
:101590000000C4F2020003F087FB80BD80B589B073
:1015A00013468C4686468DF823000791069200204C
:1015B0008DF8160004900393CDF808C0CDF804E030
:1015C000FFE70498069988422DD2FFE79DF81600A0
:1015D0000799049A895C48408DF817009DF823000C
:1015E00001460728009104D0FFE7009831280AD06F
:1015F00013E09DF817004EF6B271C0F60001085CCA
:101600008DF816000AE09DF817004FF2B201C0F6FF
:101610000001085C8DF8160000E0FFE7FFE7049882
:1016200001300490CDE79DF8160009B080BD0000A0
:1016300086B00A46034605900491002003908DF879
:101640000B00039001920093FFE7039804998842EE
:101650000DD2FFE705980399405C9DF80B100844F4
:101660008DF80B00FFE7039801300390EDE79DF83C
:101670000B00C0F580708DF80B009DF80B0006B0D4
:101680007047000080B582B043F20000C4F202004F
:1016900003F0CEFA40F2040EC2F2000E01218EF8E1
:1016A0000010019002B080BD40F20400C2F20000C0
:1016B0000078704780B5FFF7E5FF402003F054F94C
:1016C00040F20400C2F200004FF0000E80F800E08B
:1016D00080BD000080B500F00DF880BD80B500F041
:1016E00017F880BD80B5FFF7F5FF80BD80B5FFF727
:1016F000F5FF80BD80B504F0A3F9002807D0FFE70F
:1017000004F08CF904F030F904F010F9FFE780BD23
:1017100080B504F09DF9002809D0FFE704F01AF91C
:1017200004F00EF90CF038FE05F0ECFDFFE780BD8B
:1017300080B58EB013468C4686460D90ADF83210BB
:10174000ADF8302000200B900A90ADF82600BDF8CF
:101750003000ADF826000893CDF81CC0CDF818E095
:10176000FFE7BDF82600BDF8321088421BDAFFE71C
:101770000D98BDF8261030F81100FEF724FFDDF8B3
:1017800028E00B9A0590704604911146059A049B37
:10179000FEF7F5FD0B910A90FFE7BDF8260001303A
:1017A000ADF82600DDE70A980B99BDF83220BDF8A8
:1017B0003030D21A039010460291FEF704FF039ACC
:1017C00001901046029B00911946019A009BFEF77A
:1017D0007DFEFEF71DFF0EB080BD000080B582B01B
:1017E0000020C4F2020003F0DBFC002811D0FFE768
:1017F0000020C4F20200012103F0E6FC002808D01A
:10180000FFE742F20040C4F20100FFF7FBF801904D
:10181000FFE702B080BD000080B582B040F200401A
:10182000C4F2020003F0C6FC002812D0FFE740F229
:101830000040C4F20200052103F0C6FC002808D0D5
:10184000FFE743F60040C4F20100FFF7DBF8019028
:10185000FFE702B080BD00007047000080B582B095
:1018600001468DF807009DF80700009100F056F83A
:1018700002B080BD80B500F0DFF980BD80B500F01A
:10188000E7FD80BD80B500F02BFE80BD80B500F087
:1018900065FE80BD80B501F05BFC80BD80B501F0C8
:1018A000AFFC80BD80B501F0CFFC80BD80B582B0BB
:1018B00001468DF807009DF807000091FFF7CEFF65
:1018C00002B080BD80B5FFF7D5FF80BD80B5FFF7C2
:1018D000D5FF80BD80B5FFF7D5FF80BD80B5FFF790
:1018E000D5FF80BD80B582B001468DF807000F207E
:1018F0000091FFF7DBFFFFF7E5FF00F003F802B010
:1019000080BD000080B5FFF7C5FF80BD80B5FFF743
:10191000C5FF80BD80B5FFF7C5FF80BD82B0014621
:101920008DF8070000208DF806000091FFE79DF874
:101930000600002824DCFFE79DF80700C007002808
:1019400009D0FFE79DF8060040F60C71C2F20001D5
:1019500001220A5408E09DF8060040F60C71C2F21C
:10196000000100220A54FFE79DF8070040088DF8A7
:101970000700FFE79DF8060001308DF80600D6E766
:1019800002B0704780B584B00A460346ADF80E0039
:10199000ADF80C10BDF80C0000280292019310D095
:1019A000FFE7BDF80E0000280AD1FFE740F600006F
:1019B000C4F201000821C0F2084103F02BFEFFE74A
:1019C0000FE0BDF80E0000280AD1FFE740F6000046
:1019D000C4F201000821C0F2084103F0B9FDFFE79D
:1019E000FFE704B080BD000080B584B001468DF8EB
:1019F0000F00019109F0F4FB0130029002989DF86C
:101A00000F1040F63C7EC2F2000E5EF821108842B4
:101A100014D2FFE79DF80F0040F63C71C2F20001BE
:101A200051F82000C043029908449DF80F1040F679
:101A30003472C2F2000242F8210012E002989DF8CE
:101A40000F1040F63C72C2F2000252F82110401A08
:101A50009DF80F1040F63472C2F2000242F82100E5
:101A6000FFE704B080BD000080B584B00A4603469D
:101A700003908DF80B1003994FF080400192009372
:101A800004F0E0FA002865D0FFE703994FF08040AA
:101A9000002204F037FC9DF80B0040F62471C2F2DE
:101AA000000151F820009DF80B1040F61872C2F2A8
:101AB000000242F821009DF80B0052F820009DF82A
:101AC0000B1040F63872C2F2000252F82110884220
:101AD0001DD2FFE79DF80B0040F61871C2F200011D
:101AE00051F820004CF2503108449DF80B1040F69C
:101AF0003872C2F2000252F82110401A9DF80B1001
:101B000040F62072C2F2000242F8210019E09DF86E
:101B10000B0040F61871C2F2000151F820009DF848
:101B20000B1040F63872C2F2000252F82110401A2F
:101B30009DF80B1040F62072C2F2000242F821001C
:101B4000FFE79DF80B0040F62971C2F20001012267
:101B50000A5464E003994FF08040022204F0D2FB63
:101B60009DF80B0040F62471C2F2000151F82000EC
:101B70009DF80B1040F63872C2F2000242F82100C4
:101B80009DF80B0052F820009DF80B1040F61872DB
:101B9000C2F2000252F8211088421DD2FFE79DF8E0
:101BA0000B0040F63871C2F2000151F820004CF2EF
:101BB000503108449DF80B1040F61872C2F2000232
:101BC00052F82110401A9DF80B1040F62C72C2F208
:101BD000000242F8210019E09DF80B0040F6387130
:101BE000C2F2000151F820009DF80B1040F6187267
:101BF000C2F2000252F82110401A9DF80B1040F674
:101C00002C72C2F2000242F82100FFE79DF80B009F
:101C100040F62971C2F2000102220A54FFE709F0DE
:101C2000DFFA9DF80BE040F63C71C2F2000141F88A
:101C30002E0004B080BD000081B000200090FFE7BE
:101C40000098002870DCFFE7009840F62471C2F28B
:101C50000001002241F82020009840F62071C2F2D5
:101C6000000141F82020009840F62C71C2F20001DA
:101C700041F82020009840F62971C2F200010A5470
:101C8000009840F62871C2F200010A54009840F60C
:101C90003071C2F200010A54009840F63171C2F26C
:101CA00000010A54009840F63871C2F2000141F870
:101CB0002020009840F61871C2F2000141F820205F
:101CC000009840F63C71C2F2000141F820200098D3
:101CD00040F63471C2F2000141F82020009840F62D
:101CE0004071C2F200010A54009840F63271C2F20B
:101CF000000121F81020009840F61C71C2F200018A
:101D00000A54009840F61071C2F2000141F82020F8
:101D1000009840F61471C2F2000141F82020FFE75C
:101D20000098013000908BE701B0704780B590B00B
:101D300040F60000C4F2010001210A90099101F06F
:101D400019FC0A98099901F015FC0A98099901F003
:101D500011FC0A98099901F00DFC00200F900E90DB
:101D60000D900C900B9008210C9103210D910E9079
:101D70000F9040F201100B900BA9DDF828E00890BD
:101D80007046079103F028FB0A99069008460899C7
:101D900003F0DEFB40F202200B900A990590084602
:101DA000079903F019FB0A9904900846059903F076
:101DB000CFFB40F204400B900A9903900846079924
:101DC00003F00AFB0A9902900846039903F0C0FB4E
:101DD00040F608000B900A9901900846079903F015
:101DE000FBFA0A9900900846019903F0B1FB10B084
:101DF00080BD000080B584B00A4603468DF80F0010
:101E00008DF80E109DF80F000146032802920193F1
:101E100000916CD80099DFE801F0021C36509DF863
:101E20000E0000280AD0FFE740F60040C4F201008F
:101E30001021C0F2104103F0EDFB09E040F6004034
:101E4000C4F201001021C0F2104103F081FBFFE752
:101E50004EE09DF80E0000280AD0FFE740F6004053
:101E6000C4F201002021C0F2204103F0D3FB09E0BD
:101E700040F60040C4F201002021C0F2204103F0EE
:101E800067FBFFE734E09DF80E0000280AD0FFE76B
:101E900040F60040C4F201004021C0F2404103F08E
:101EA000B9FB09E040F60040C4F201004021C0F255
:101EB000404103F04DFBFFE71AE09DF80E000028BB
:101EC0000AD0FFE740F60040C4F201000821C0F24A
:101ED000084103F09FFB09E040F60040C4F2010016
:101EE0000821C0F2084103F033FBFFE700E0FFE701
:101EF00004B080BD80B590B040F60040C4F201004F
:101F000001210A90099101F035FB0A98099901F025
:101F100031FB0A98099901F02DFB0A98099901F003
:101F200029FB00200F900E900D900C900B900999BA
:101F30000C910D910E900F911020C0F210400B905B
:101F40000DF12C0E0A9A089010467146CDF81CE04F
:101F500003F042FA0A9906900846089903F0F8FA45
:101F60002020C0F220400B900A990590084607995E
:101F700003F032FA0A9904900846059903F0E8FA4A
:101F80004020C0F240400B900A9903900846079900
:101F900003F022FA0A9902900846039903F0D8FA4E
:101FA0000820C0F208400B900A9901900846079952
:101FB00003F012FA0A9900900846019903F0C8FA52
:101FC00010B080BD80B584B00A4603468DF80F007E
:101FD0008DF80E109DF80F00014603280292019320
:101FE000009168D80099DFE801F0021C344C9DF89C
:101FF0000E0000280AD0FFE741F60000C4F20100FD
:102000000221C0F2024103F0A3FA09E041F6000008
:10201000C4F201000221C0F2024103F0FBFAFFE723
:102020004AE09DF80E00002809D0FFE741F60000C5
:10203000C4F2010040F2011103F08AFA08E041F60F
:102040000000C4F2010040F2011103F0E3FAFFE7DF
:1020500032E09DF80E00002809D0FFE741F2004071
:10206000C4F2010040F2022103F072FA08E041F2EA
:102070000040C4F2010040F2022103F0CBFAFFE776
:102080001AE09DF80E0000280AD0FFE741F2004058
:10209000C4F201000221C0F2024103F059FA09E042
:1020A00041F20040C4F201000221C0F2024103F0FB
:1020B000B1FAFFE700E0FFE704B080BD80B590B063
:1020C00041F60000C4F2010001210A90099101F0DB
:1020D00051FA0A98099901F04DFA41F20040C4F210
:1020E00001000890099901F045FA0898099901F052
:1020F00041FA00200F900E900D900C900B900998D3
:102100000C900D9004210E910F900221C0F202411B
:102110000B910DF12C0E0A9807917146CDF818E03D
:1021200003F05AF90A9905900846079903F072FAE4
:1021300040F201100B900A9904900846069903F0AA
:102140004BF90A9903900846049903F063FA40F2A8
:1021500002200B90089902900846069903F03CF97A
:10216000089901900846029903F054FA07980B90D9
:102170000898069903F030F90899009008460799E5
:1021800003F048FA10B080BD80B592B041F600006F
:10219000C4F2010001210C900B9101F0EBF940F623
:1021A0000040C4F201000A900B9901F0E3F941F2FA
:1021B0000040C4F2010009900B9901F0DBF9099885
:1021C0000B9901F0D7F90020119010900F900E900C
:1021D0000D900B980E900F900421109111900121F9
:1021E000C0F201410D910DF1340E0C980891714629
:1021F000CDF81CE003F0F0F80C9906900846089919
:1022000003F008FA0220C0F202400D900A990590EE
:102210000846079903F0E0F80A99049008460599E2
:1022200003F0F8F940F201100D9009990390084667
:10223000079903F0D1F8099902900846039903F031
:10224000E9F908980D900998079903F0C5F80999DC
:1022500001900846089903F0DDF912B080BD000036
:1022600080B598B04FF0804001210E900D9109F09B
:10227000D5FA002017901690159014901390129094
:10228000119010900F900E990C90084603F018FDD5
:102290004CF25031159140F20001C2F20001096880
:1022A0004DF6836EC4F21B3EA1FB0E1E4FEA9E4EFE
:1022B0004FF47A720EFB02F244F6D35EC1F2620E64
:1022C000A2FB0E2E4FF0FF3303EB9E13ADF84C3004
:1022D0000C9B169314938DF85C300DF14C0EDDF8C9
:1022E00038C00B9060460A917146099204F0C2F81A
:1022F0000E990890084603F0E1FD0E980C9904F041
:10230000D1F90E980C9904F033FA0E9803F012FEEE
:102310004FF4803010900C9811900F9012900FA9EC
:102320000E980D9A07911146079A03F0DDFE1021D1
:102330000E9A06901046079A03F0D6FE4FF480716D
:102340000E9A05901046079A03F0CEFE4FF4805186
:102350000E9A04901046079A03F0C6FE039004F00C
:1023600069FE0C990C9A04F095FD1C210290084618
:10237000029A0191114604F01FFF019804F0E2FC5B
:102380000E9803F04DFC0E9803F010FE0E9803F02B
:1023900019FE0E9803F022FE0E9803F02BFE0E9805
:1023A00003F0ECFD18B080BD80B582B000208DF840
:1023B000070041F60000C4F201000121C0F2014112
:1023C00003F070F8002807D1FFE79DF8070040F000
:1023D00001008DF80700FFE740F60040C4F201005D
:1023E0000221C0F2024103F05DF8002807D1FFE7A7
:1023F0009DF8070040F002008DF80700FFE741F26A
:102400000040C4F2010040F2011103F04BF8002833
:1024100007D1FFE79DF8070040F004008DF80700A2
:10242000FFE741F20040C4F201000121C0F2014186
:1024300003F038F8002807D1FFE79DF8070040F0C7
:1024400008008DF80700FFE79DF8070002B080BD87
:1024500080B582B04FF0804004F0DCF8002819D03D
:10246000FFE74FF08040019003F0E4FD40F6247E4A
:10247000C2F2000ECEF8000040F62870C2F2000052
:1024800090F800E00EF1010E80F800E0019803F0F2
:10249000D1FBFFE74FF0804004F0C6F8002805D0DC
:1024A000FFE74FF0804003F0CFFBFFE74FF08040A5
:1024B00004F0C4F8002805D0FFE74FF0804003F097
:1024C000CDFBFFE74FF0804004F0C2F8002805D0B4
:1024D000FFE74FF0804003F0CBFBFFE702B080BD89
:1024E00080B5FFF707FDFFF74FFEFFF71FFCFFF773
:1024F000E5FDFFF7B5FE80BD80B584B00A46034612
:10250000ADF80E00ADF80C10BDF80C0000280292DA
:10251000019310D0FFE7BDF80E0000280AD1FFE7B5
:1025200040F60000C4F201000821C0F2084103F0A7
:1025300071F8FFE70FE0BDF80E0000280AD1FFE7B1
:1025400040F60000C4F201000821C0F2084102F088
:10255000FFFFFFE7FFE704B080BD000080B586B055
:1025600000208DF817008DF816008DF81700FFE792
:102570009DF81700002800F39A85FFE79DF81700E3
:1025800040F60C71C2F20001085C012840F087851A
:10259000FFE79DF81700FFF727FA9DF8170000F0F6
:1025A00089FD9DF817E040F63071C2F2000111F884
:1025B0000E108E4609290490CDF80CE000F26585D6
:1025C0000399DFE811F00A003A008A004F01210266
:1025D000EC0290031F04910461059DF8170040F67A
:1025E0003071C2F20001085C9DF8172040F631738B
:1025F000C2F2000398549DF8170001220A549DF876
:10260000170040F62971C2F2000100220A549DF819
:10261000170040F63871C2F2000141F820209DF801
:10262000170040F61871C2F2000141F820209DF811
:10263000170000F01DFE00F031BD9DF8170040F6B8
:102640003071C2F20001085C9DF8172040F631732A
:10265000C2F2000398549DF8170040F60E72C2F2C1
:102660000002002322F810309DF8170040F6327265
:10267000C2F2000222F810309DF8170040F61C72DA
:10268000C2F2000213549DF8170040F61072C2F215
:10269000000242F820309DF817000291194601937C
:1026A000FFF7A8FB9DF817000199FFF78BFC9DF839
:1026B00017000121FFF720FF9DF817000221029A61
:1026C000115408F08DFD9DF8171040F63C72C2F2CF
:1026D000000242F8210000F0E1BC9DF8170040F62E
:1026E0003071C2F20001085C9DF8171040F631729B
:1026F000C2F2000250549DF8170040F62971C2F250
:102700000001085C00F00300012840F08A80FFE728
:102710009DF8170040F62971C2F2000100220A5408
:102720009DF8170040F62071C2F2000151F8200018
:10273000B0F5967F0CD3FFE79DF8170040F62071A7
:10274000C2F2000151F82000B0F52F7F18D9FFE741
:102750009DF8170040F62071C2F2000151F82000E8
:10276000B0F5C87F22D3FFE79DF8170040F620712F
:10277000C2F2000151F82000B0F5167F16D8FFE72D
:102780009DF8170040F64071C2F2000100220A5481
:102790009DF8170040F63071C2F2000103230B547C
:1027A0009DF817001146FFF7A7FE39E09DF81700C6
:1027B00040F62071C2F2000151F8200040F214519D
:1027C000884223D3FFE79DF8170040F62071C2F23C
:1027D000000151F8200040F2A461884216D8FFE7BA
:1027E0009DF8170040F64071C2F2000102220A541F
:1027F0009DF8170040F63071C2F2000106220A541B
:102800009DF817000021FFF777FE08E09DF81700FC
:1028100040F63071C2F2000101220A54FFE7FFE7DF
:102820001EE09DF8170040F63471C2F2000151F825
:1028300020001F2813D3FFE79DF8170040F63071E2
:10284000C2F2000101220A5408F0CAFC9DF81710D8
:1028500040F63C72C2F2000242F82100FFE7FFE7B7
:1028600000F01CBC9DF8170040F63071C2F2000168
:10287000085C9DF8171040F63172C2F20002505405
:102880009DF8170040F62971C2F20001085C00F0C3
:102890000300022840F09880FFE79DF8170040F6FB
:1028A0002C71C2F2000151F82000B0F5967F0CD3D4
:1028B000FFE79DF8170040F62C71C2F2000151F8B5
:1028C0002000B0F52F7F18D9FFE79DF8170040F6DC
:1028D0002C71C2F2000151F82000B0F5C87F22D35C
:1028E000FFE79DF8170040F62C71C2F2000151F885
:1028F0002000B0F5167F16D8FFE79DF8170040F6C8
:102900004071C2F2000100220A549DF8170040F6FF
:102910003071C2F2000109220A549DF8170001210A
:10292000FFF7EAFD4FE09DF8170040F62C71C2F268
:10293000000151F8200040F21451884239D3FFE7DA
:102940009DF8170040F62C71C2F2000151F82000EA
:1029500040F2A46188422CD8FFE79DF8170040F6AA
:102960004071C2F2000102220A549DF8170040F69D
:102970003071C2F2000104220A549DF817000121AF
:10298000FFF7BAFD9DF8170040F60E71C2F2000184
:1029900031F81020013221F8102040F61070C2F2F8
:1029A00000009DF8171050F82120520040F8212017
:1029B00008E09DF8170040F63071C2F200010122D4
:1029C0000A54FFE7FFE71EE09DF8170040F6347158
:1029D000C2F2000151F820001F2813D3FFE79DF831
:1029E000170040F63071C2F2000101220A5408F0CB
:1029F000F7FB9DF8171040F63C72C2F2000242F855
:102A00002100FFE7FFE749E39DF8170040F630712A
:102A1000C2F20001085C9DF8171040F63172C2F254
:102A2000000250549DF8170040F62971C2F20001CF
:102A3000085C00F00300012840F09180FFE79DF85A
:102A4000170040F62971C2F2000100220A549DF8D5
:102A5000170040F62071C2F2000151F82000B0F5D5
:102A6000967F1AD3FFE79DF8170040F62071C2F257
:102A7000000151F82000B0F52F7F0ED8FFE79DF838
:102A8000170040F63071C2F2000105220A549DF889
:102A900017000021FEF776FF60E09DF8170040F672
:102AA0002071C2F2000151F8200040F21451884216
:102AB0004AD3FFE79DF8170040F62071C2F20001EB
:102AC00051F8200040F2A46188423DD8FFE79DF80C
:102AD000170040F63071C2F2000106220A549DF838
:102AE00017000021FFF708FD9DF8170040F60E7152
:102AF000C2F2000131F81020013221F810209DF8B7
:102B0000170040F61072C2F2000252F820E00EF1F7
:102B1000010E42F820E09DF8170052F820E04FEA3D
:102B20004E0E42F820E09DF8170031F810001828EA
:102B300009DBFFE79DF8170040F63071C2F2000193
:102B400006220A54FFE708E09DF8170040F63071AE
:102B5000C2F2000101220A54FFE7FFE71EE09DF8E0
:102B6000170040F63471C2F2000151F820001F280E
:102B700013D3FFE79DF8170040F63071C2F2000151
:102B800001220A5408F02CFB9DF8171040F63C7205
:102B9000C2F2000242F82100FFE7FFE77EE29DF863
:102BA000170040F63071C2F20001085C9DF8171062
:102BB00040F63172C2F2000250549DF8170040F600
:102BC0002971C2F20001085C00F0030002286AD1FA
:102BD000FFE79DF8170040F62971C2F200010022BC
:102BE0000A549DF8170040F62C71C2F2000151F80A
:102BF000200040F2145188424BD3FFE79DF81700A4
:102C000040F62C71C2F2000151F8200040F2A4619C
:102C100088423ED8FFE79DF8170040F63071C2F2B7
:102C2000000104220A549DF817000121FFF764FCFB
:102C30009DF8170040F60E71C2F2000131F8102025
:102C4000013221F8102040F61070C2F200009DF809
:102C5000172050F822E04FEA4E0E40F822E09DF88F
:102C6000170031F81000182812DBFFE79DF8170055
:102C700040F63071C2F2000107220A549DF8170095
:102C800040F60E71C2F20001002221F81020FFE789
:102C900008E09DF8170040F63071C2F200010122F1
:102CA0000A54FFE71EE09DF8170040F63471C2F2A7
:102CB000000151F820001F2813D3FFE79DF81700EB
:102CC00040F63071C2F2000101220A5408F088FA7D
:102CD0009DF8171040F63C72C2F2000242F8210043
:102CE000FFE7FFE7DAE19DF8170040F63071C2F226
:102CF0000001085C9DF8171040F63172C2F2000224
:102D000050549DF8170040F62971C2F20001085C8A
:102D100000F00300022855D1FFE79DF8170040F6A8
:102D20002971C2F2000100220A549DF8170040F6F2
:102D30002C71C2F2000151F82000B0F5967F37D314
:102D4000FFE79DF8170040F62C71C2F2000151F820
:102D50002000B0F52F7F2BD8FFE79DF8170040F635
:102D60003071C2F2000104220A549DF817000121BB
:102D7000FFF7C2FB9DF8170040F60E71C2F200018A
:102D800031F81000182812DBFFE79DF8170040F615
:102D90003071C2F2000107220A549DF8170040F674
:102DA0000E71C2F20001002221F81020FFE708E0B6
:102DB0009DF8170040F63071C2F2000101220A545A
:102DC000FFE71EE09DF8170040F63471C2F20001E3
:102DD00051F820001F2813D3FFE79DF8170040F695
:102DE0003071C2F2000101220A5408F0F9F99DF88D
:102DF000171040F63C72C2F2000242F82100FFE7D1
:102E0000FFE74BE19DF8170040F63071C2F2000178
:102E1000085C9DF8171040F63172C2F2000250545F
:102E20009DF8170040F62971C2F20001085C00F01D
:102E30000300012838D1FFE79DF8170040F62971FB
:102E4000C2F2000100220A549DF8170040F62071DA
:102E5000C2F2000151F82000B0F5967F1AD3FFE7C7
:102E60009DF8170040F62071C2F2000151F82000D1
:102E7000B0F52F7F0ED8FFE79DF8170040F63071B0
:102E8000C2F2000108220A549DF817000021FFF742
:102E900033FB08E09DF8170040F63071C2F20001E4
:102EA00001220A54FFE71EE09DF8170040F6347136
:102EB000C2F2000151F820001F2813D3FFE79DF84C
:102EC000170040F63071C2F2000101220A5408F0E6
:102ED00087F99DF8171040F63C72C2F2000242F8E2
:102EE0002100FFE7FFE7D9E09DF8170040F63071B9
:102EF000C2F20001085C9DF8171040F63172C2F270
:102F0000000250549DF8170040F62971C2F20001EA
:102F1000085C00F00300022840F09680FFE79DF86F
:102F2000170040F62971C2F2000100220A549DF8F0
:102F3000170040F62C71C2F2000151F8200043F254
:102F4000D401884276D3FFE79DF8170040F62C7134
:102F5000C2F2000151F8200044F25C41884269D875
:102F6000FFE79DF8170040F63071C2F2000102221F
:102F70000A549DF817000121FFF7BEFA9DF81700CB
:102F800040F61C71C2F200010A5C01320A549DF83D
:102F90001700085C022838DBFFE79DF8170040F6B1
:102FA0001471C2F2000151F8201040F61072C2F202
:102FB000000252F82000814204D1FFE701208DF881
:102FC000160003E000208DF81600FFE79DF81700BB
:102FD0009DF81610FEF70EFF9DF817009DF81610CD
:102FE000FEF7F0FF9DF8170040F61C71C2F20001D9
:102FF0004FF0000E01F800E09DF8170040F6107148
:10300000C2F2000141F820E013E09DF8170040F6FD
:103010001071C2F2000151F8202040F61473C2F280
:10302000000343F820209DF81700002241F82020DB
:10303000FFE708E09DF8170040F63071C2F200018A
:1030400001220A54FFE71EE09DF8170040F6347194
:10305000C2F2000151F820001F2813D3FFE79DF8AA
:10306000170040F63071C2F2000101220A5408F044
:10307000B7F89DF8171040F63C72C2F2000242F811
:103080002100FFE7FFE709E0FFE79DF8170040F6A2
:103090003071C2F2000100220A54FFE7FFE7FFE7A8
:1030A0009DF8170001308DF81700FFF761BA06B0E0
:1030B00080BD000080B586B001468DF81600012065
:1030C0008DF81500002004909DF816000246032894
:1030D0000391029212D80299DFE801F00205080C70
:1030E000012004900FE0102004900CE04FF4807059
:1030F000049008E04FF48050049004E09DF815001F
:103100008DF8170020E09DF8160040F62871C2F2F5
:103110000001085C002812D0FFE79DF8160040F679
:103120002871C2F2000100220A5404989DF816107A
:103130000192FEF799FC01988DF81500FFE79DF8C4
:1031400015008DF81700FFE79DF8170006B080BD49
:1031500080B586B040F60040C4F201001021C0F2F4
:103160001041059002F0F4F92021C0F220410598A9
:1031700002F0EEF94021C0F24041059802F0E8F972
:103180000821C0F20841059802F0E2F941F600007A
:10319000C4F201000221C0F202410490039102F046
:1031A00039FA40F20111049802F034FA41F2004079
:1031B000C4F2010040F20221029002F02BFA0298C0
:1031C000039902F027FA4FF08040019002F082FE4E
:1031D000019802F061FD019802F02CFD019802F0C7
:1031E00033FD019802F03AFD019802F041FD002103
:1031F000019803F07BFA019802F0C0FE06B080BD92
:1032000080B582B04FF0804002F064FE40F600408E
:10321000C4F201001021C0F21041019002F098F9AF
:103220002021C0F22041019802F092F94021C0F221
:103230004041019802F08CF90821C0F20841019840
:1032400002F086F902B080BD80B582B0FFF7ACF81D
:103250008DF807009DF80700002805D0FFE7FFF76D
:10326000A3F88DF80700FFE79DF8070002B080BDC6
:1032700080B584B001468DF80F009DF80F0002461E
:1032800003280291019222D80199DFE801F0020996
:1032900010184FF080400121002203F033F817E0AE
:1032A0004FF080401021002203F02CF810E04FF086
:1032B00080404FF48071002203F024F808E04FF0C2
:1032C00080404FF48051002203F01CF800E0FFE73B
:1032D00004B080BD80B582B0014601900198009194
:1032E00000F04CF802B080BD80B582B0014601907C
:1032F0000198009100F01EF802B080BD80B584B046
:103300000146039003980028029110D0FFE7FFE7E1
:103310000398411E0391002808D0FFE74FF47A700C
:1033200000F008F800F034FD0190F1E7FFE704B089
:1033300080BD000080B584B001460390039800284A
:10334000029105D0FFE7039807F056FF0190FFE7D1
:1033500004B080BD80B582B0014601900198009113
:10336000FFF7B8FF02B080BD80B582B00146019082
:1033700001980091FFF7B8FF02B080BD80B584B01E
:10338000014603900398002802910FD0FFE707F051
:103390000FFF002805D1FFE7039807F00DFF01900C
:1033A00003E00398FFF7AAFFFFE7FFE704B080BD43
:1033B00086B00A4603460590ADF812100020ADF81D
:1033C0001000ADF80E00BDF812100139ADF80C1068
:1033D000ADF8100001920093FFE7BDF81000BDF8B2
:1033E0000C1088423FDAFFE70020ADF80E00FFE73F
:1033F000BDF80E00BDF80C10BDF81020891A8842E7
:103400002ADAFFE70598BDF80E1000EB410230F80C
:1034100011005188884218DAFFE70598BDF80E10B0
:1034200000EB41004088ADF80A000598BDF80E1089
:1034300000EB410230F811005080BDF80A000599F8
:10344000BDF80E2021F81200FFE7FFE7BDF80E00DF
:103450000130ADF80E00CBE7FFE7BDF810000130FA
:10346000ADF81000B9E7002006B0704780B500F055
:1034700005F880BD80B5FFF7F9FF80BD80B540F647
:103480004271C2F200014FF60000C0F60F004FF487
:10349000806200F017F880BD80B586B013468C4678
:1034A000864605900491ADF80E2005980499BDF864
:1034B0000E200293CDF804C0CDF800E000F018F81B
:1034C00006B080BD80B586B013468C468646059012
:1034D0000491ADF80E2005980499BDF80E200293D2
:1034E000CDF804C0CDF800E0FFF7D6FF06B080BDF0
:1034F00080B586B013468C46864605900491ADF89B
:103500000E200020ADF80C000293CDF804C0CDF8D9
:1035100000E0FFE7BDF80C00BDF80E10884213DA9A
:10352000FFE7059801F01CFFDDF810E0BDF80C1076
:103530002EF81100059802300590FFE7BDF80C0049
:103540000130ADF80C00E5E706B080BD80B584B071
:103550000A46034603908DF80B1003989DF80B1054
:103560000192009300F01AF804B080BD80B500F01D
:10357000BDF880BD80B584B00A46034603908DF83F
:103580000B1003989DF80B1001920093FFF7DEFFDC
:1035900004B080BD80B5FFF7E9FF80BD80B584B081
:1035A0000A46034603908DF80B10039840F600017D
:1035B000C4F201018842019200930ED1FFE79DF809
:1035C0000B00002804D0FFE7042001F0B9FA03E063
:1035D000042001F071FAFFE785E0039840F600410E
:1035E000C4F2010188420ED1FFE79DF80B000028CC
:1035F00004D0FFE7082001F0A3FA03E0082001F05F
:103600005BFAFFE76FE0039841F20001C4F20101A9
:1036100088420ED1FFE79DF80B00002804D0FFE799
:10362000102001F08DFA03E0102001F045FAFFE7C9
:1036300059E0039841F20041C4F2010188420ED1E1
:10364000FFE79DF80B00002804D0FFE7202001F0E1
:1036500077FA03E0202001F02FFAFFE743E0039818
:1036600041F60001C4F2010188420ED1FFE79DF846
:103670000B00002804D0FFE7402001F061FA03E0CE
:10368000402001F019FAFFE72DE0039841F60041D0
:10369000C4F2010188420ED1FFE79DF80B0000281B
:1036A00004D0FFE7802001F04BFA03E0802001F016
:1036B00003FAFFE717E0039842F20001C4F20101A8
:1036C000884210D1FFE79DF80B00002805D0FFE7E6
:1036D0004FF4807001F034FA04E04FF4807001F090
:1036E000EBF9FFE7FFE704B080BD000080B582B0D2
:1036F00040F60000C4F2010001210191FFF74EFFE6
:1037000040F60040C4F201000199FFF747FF41F283
:103710000000C4F201000199FFF740FF41F20040B0
:10372000C4F201000199FFF739FF41F60000C4F22D
:1037300001000199FFF732FF41F60040C4F2010099
:103740000199FFF72BFF42F20000C4F2010001993A
:10375000FFF724FF019801F0F3F901F025FE01F0D5
:103760002FFE02B080BD000040F23C00C2F200001B
:10377000006844F2B471C2F200010A6810440860A3
:1037800070470000FFE7FEE780B584B00A460346B5
:1037900003900291039802990192009300F092F82D
:1037A00004B080BD80B582B00146019001980091BF
:1037B00000F0DEF802B080BD80B586B00A46034650
:1037C00005908DF8131005980392029300F00EF9FE
:1037D0009DF813100029019006D0FFE70598C18AD3
:1037E00001F0FE01C18205E00598C18A41F00101A6
:1037F000C182FFE70598817D00F0DCF90599009012
:10380000084600F0B5F806B080BD000080B582B073
:10381000014601900198009100F03AF902B080BD94
:1038200080B584B00A46034603908DF80B100398C8
:103830009DF80B100192009300F0BCF904B080BD1C
:1038400080B584B00A46034603900291039802991A
:1038500001920093FFF798FF04B080BD80B582B05D
:103860000146019001980091FFF79CFF02B080BDD6
:1038700080B584B00A46034603908DF80B10039878
:103880009DF80B1001920093FFF796FF04B080BDE6
:1038900080B582B00146019001980091FFF7B6FF14
:1038A00002B080BD80B584B00A46034603908DF80F
:1038B0000B1003989DF80B1001920093FFF7B0FFD7
:1038C00004B080BD80B590B00A4603460F900E91BB
:1038D0000F9840680121089107920693FFF74AFE6E
:1038E0000F98C0680899FFF745FE0F9841688068F7
:1038F00005900846059901F09BFE0F98C168006984
:1039000004900846049901F093FE00200D900C905D
:103910000B900A9009900F988068099008980A9077
:1039200002210B9104210C910D900F99486809A96F
:10393000039101F051FD0F99096909910F99C96827
:1039400002900846039901F047FD0E990029019065
:1039500004D0FFE70E980F99C86106E00F9843F274
:103960006931C0F60001C161FFE7002010B080BDE1
:1039700080B588B00146079000208DF81B0007989D
:10398000C268006905901046059A0491114601F03D
:103990004FFE07984168806803900846039901F03C
:1039A00047FE0798C069002805D0FFE70798C1695E
:1039B000407D8847FFE70798C16800690290084684
:1039C000029901F081FD002804D0FFE701208DF865
:1039D0001B00FFE70798416880680190084601993D
:1039E00001F0C4FD9DF81B0008B080BD80B588B013
:1039F000014606900698C268006905901046059A2F
:103A00000491114601F014FE069841688068039005
:103A10000846039901F00CFE0698C069002805D0FD
:103A2000FFE70698C169407D8847FFE70698C168AF
:103A3000006902900846029901F098FD0698C06955
:103A4000002805D0FFE70698C169407D8847FFE759
:103A500006984168806801900846019901F086FD4A
:103A60000698C168006900900846009901F02CFD95
:103A7000002804D0FFE701208DF81F0003E000209C
:103A80008DF81F00FFE79DF81F0008B080BD000003
:103A900080B588B0014606900698C2680069059016
:103AA0001046059A0491114601F060FD06984168A0
:103AB000806803900846039901F0BAFD0698C06932
:103AC000002805D0FFE70698C169407D8847FFE7D9
:103AD0000698C168006902900846029901F0A8FDA5
:103AE0000698C069002805D0FFE70698C169407DA7
:103AF0008847FFE70698C168006901900846019968
:103B000001F0E2FC002804D1FFE701208DF81F003E
:103B100003E000208DF81F00FFE79DF81F0008B0AC
:103B200080BD000080B588B00A46034607908DF836
:103B30001B109DF81B00000600280592049309D570
:103B4000FFE70798C168006903900846039901F0F0
:103B50006FFD08E00798C168006902900846029965
:103B600001F004FDFFE7079841688068019008466E
:103B7000019901F05DFD0798C069002805D0FFE7B5
:103B80000798C169407D8847FFE7079841688068CA
:103B900000900846009901F0E9FC0798C0690028E8
:103BA00005D0FFE70798C169407D8847FFE70020FF
:103BB00008B080BD80B586B00A46034605908DF8F2
:103BC000131000208DF812000599D1F804C08968FF
:103BD000039060460292019301F0C8FC03988DF8AF
:103BE0001200FFE79DF81200072812DCFFE7059896
:103BF0009DF81310FFF796FF9DF8131049008DF8FC
:103C000013100090FFE79DF8120001308DF81200AC
:103C1000E8E7002006B080BD80B584B00A460346C0
:103C2000039002910398016A21F001010162039857
:103C3000806920F0FF000299D1F804C0D1F808E0B3
:103C4000C96841EA0C0141EA0E0140EA11400399BA
:103C500088610398006A20F00A0002990968084305
:103C600040F001000399086201200192009304B022
:103C700080BD000080B584B00A46034603900291DF
:103C80000398016A21F0100101620398806920F411
:103C90007F400299D1F804C0D1F808E0C96841EA30
:103CA0000C0141EA0E0140EA112003998861039852
:103CB000006A20F0A0000299096840EA011040F073
:103CC00010000399086201200192009304B080BDA6
:103CD00080B584B00A460346039002910398016AB6
:103CE00021F4807101620398C06920F0FF000299FD
:103CF000D1F804C0D1F808E0C96841EA0C0141EAF2
:103D00000E0140EA11400399C8610398006A20F44B
:103D100030600299096840EA012040F480700399FC
:103D2000086201200192009304B080BD80B584B088
:103D30000A460346039002910398016A21F48051D8
:103D400001620398C06920F47F400299D1F804C051
:103D5000D1F808E0C96841EA0C0141EA0E0140EAE5
:103D600011200399C8610398006A20F44050029919
:103D7000096840EA013040F480500399086201204C
:103D80000192009304B080BD80B500F005F880BDBD
:103D900080B5FFF7F9FF80BD80B543F20000C4F2A3
:103DA000000001F08DFD002080BD000080B582B0D4
:103DB00001468DF807009DF80700009100F076F8A5
:103DC00002B080BD80B582B001468DF807009DF835
:103DD0000700009100F08CF802B080BD80B582B081
:103DE00001468DF807009DF80700009100F0A0F84B
:103DF00002B080BD80B582B001468DF807009DF805
:103E00000700009100F0B4F802B080BD80B500F06A
:103E10009DF980BD80B500F0D3F980BD80B500F07C
:103E200045FA80BD80B500F0AFFA80BD80B582B0A4
:103E300001468DF807009DF807000091FFF7B6FFD7
:103E400002B080BD80B582B001468DF807009DF8B4
:103E500007000091FFF7B6FF02B080BD80B582B0C9
:103E600001468DF807009DF807000091FFF7B6FFA7
:103E700002B080BD80B582B001468DF807009DF884
:103E800007000091FFF7B6FF02B080BD80B5FFF7D5
:103E9000BDFF80BD80B5FFF7BDFF80BD80B5FFF7DA
:103EA000BDFF80BD80B5FFF7BDFF80BD80B582B08E
:103EB00001468DF807009DF80700002800910AD1FF
:103EC000FFE741F60000C4F201000221C0F2024106
:103ED00001F05AFB09E041F60000C4F201000221A2
:103EE000C0F2024101F0B2FBFFE702B080BD00006A
:103EF00080B582B001468DF807009DF807000028C4
:103F0000009109D1FFE741F60000C4F2010040F240
:103F1000011101F039FB08E041F60000C4F2010094
:103F200040F2011101F092FBFFE702B080BD0000FA
:103F300080B582B001468DF807009DF80700002883
:103F4000009109D1FFE741F20040C4F2010040F2C4
:103F5000022101F019FB08E041F20040C4F2010027
:103F600040F2022101F072FBFFE702B080BD0000C9
:103F700080B582B001468DF807009DF80700002843
:103F800000910AD1FFE741F20040C4F20100022192
:103F9000C0F2024101F0F8FA09E041F20040C4F237
:103FA00001000221C0F2024101F050FBFFE702B024
:103FB00080BD000080B590B041F60000C4F2010061
:103FC00001210A900991FFF7D5FA0A980999FFF79C
:103FD000D1FA41F20040C4F2010008900999FFF7BC
:103FE000C9FA08980999FFF7C5FA00200F900E90BA
:103FF0000D900C900B9009980C900D9004210E914F
:104000000F900221C0F202410B910DF12C0E0A9883
:1040100007917146CDF818E001F0DEF90A99059094
:104020000846079901F012FB40F201100B900A9923
:1040300004900846069901F0CFF90A9903900846C2
:10404000049901F003FB40F202200B9008990290C2
:104050000846069901F0C0F90899019008460299AE
:1040600001F0F4FA07980B900898069901F0B4F95A
:10407000089900900846079901F0E8FA10B080BD51
:1040800080B590B041F60000C4F2010001210A9011
:104090000991FFF76FFA0A980999FFF76BFA41F255
:1040A0000040C4F2010008900999FFF763FA0898EC
:1040B0000999FFF75FFA00200F900E900D900C9079
:1040C0000B9009980C900D9004210E910F900421F3
:1040D000C0F204410B910DF12C0E0A980791714624
:1040E000CDF818E001F078F90A990590084607998B
:1040F00001F0ACFA40F202200B900A9904900846B5
:10410000069901F069F90A9903900846049901F0AB
:104110009DFA40F204400B900899029008460699D7
:1041200001F05AF9089901900846029901F08EFAB7
:1041300007980B900898069901F04EF9089900909D
:104140000846079901F082FA10B080BD80B586B0AC
:1041500041F60000C4F201000421C0F204410590C0
:10416000049101F073FA40F2022005990390084689
:10417000039901F06BFA41F20040C4F2010040F2F1
:104180000441029001F062FA0298049901F05EFA8B
:104190000220C0F20240059901900846019901F001
:1041A00055FA40F20111059801F050FA029803996E
:1041B00001F04CFA0298019901F048FA06B080BD6E
:1041C00080B584B041F60000C4F201000421C0F2C1
:1041D00004410390029101F0D7F940F202210398C3
:1041E00001F0D2F941F20040C4F2010040F2044172
:1041F000019001F0C9F90198029901F0C5F904B0E4
:1042000080BD000080B582B000208DF8070041F627
:104210000000C4F201000821C0F2084101F066F973
:10422000002807D1FFE79DF8070040F001008DF856
:104230000700FFE741F60000C4F2010040F204412C
:1042400001F054F9002807D1FFE79DF8070040F07E
:1042500002008DF80700FFE741F20040C4F20100C0
:1042600040F6080101F042F9002807D1FFE79DF868
:10427000070040F004008DF80700FFE741F200401E
:10428000C4F201000821C0F2084101F02FF9002812
:1042900007D1FFE79DF8070040F008008DF8070000
:1042A000FFE79DF8070002B080BD000080B5FFF772
:1042B00081FE00F003F8FFF7E3FE80BD80B590B00B
:1042C00041F60000C4F2010001210A900991FFF7B4
:1042D00051F90A980999FFF74DF941F20040C4F2EB
:1042E000010008900999FFF745F908980999FFF727
:1042F00041F900200F900E900D900C900B900998B2
:104300000C900D9004210E910F900821C0F20841ED
:104310000B910DF12C0E0A9807917146CDF818E01B
:1043200001F05AF80A9905900846079901F08EF9AC
:1043300040F204400B900A9904900846069901F057
:104340004BF80A9903900846049901F07FF940F66A
:1043500008000B90089902900846069901F03CF875
:10436000089901900846029901F070F907980B909E
:104370000898069901F030F80899009008460799C6
:1043800001F064F910B080BD80B582B0FFF73AFF4C
:104390008DF807009DF80700002805D0FFE7FFF71C
:1043A00031FF8DF80700FFE79DF8070002B080BDE0
:1043B00080B58AB040F60000C4F2010001210490EB
:1043C0000391FFF7D7F80020099008900790069016
:1043D00005900821C0F208410591DDF80CE0CDF808
:1043E00018E0032207920890099005A8049A029009
:1043F0001046029B0191194600F0EEFF04990090CF
:104400000846019901F0CEF80AB080BD80B500F0F1
:1044100059F880BD80B5FFF7F9FF80BD80B58CB03D
:1044200040F60040C4F20100012106900591FFF71B
:10443000A1F800200B900A900990089007900421A1
:10444000C0F204410791DDF814E0CDF820E002222B
:1044500009920A900B9007A8069A04901046049BB4
:104460000391194600F0B8FF069902900846039997
:1044700001F098F844F28940C0F6000006F0A6FE6C
:1044800001900CB080BD000080B540F24000C2F247
:1044900000000168013101600068B0F5FA7F10D9B1
:1044A000FFE740F24000C2F200000021016040F648
:1044B0000040C4F201000421C0F2044101F0F0F90F
:1044C000FFE780BD80B5FFF7A9FFFFF771FF80BD53
:1044D00080B588B00A4603460790069101200590F2
:1044E000079842F20041C4F201018842049203930A
:1044F00014D1FFE742F20040C4F2010000F012F9CB
:1045000042F6000EC4F2010E0290704600F00AF965
:10451000DDF808E040EA0E00019007E043F60040B5
:10452000C4F2010000F0FEF80190FFE701980028B6
:1045300017D1FFE70698006800280AD0FFE7079820
:10454000406820F47020069909680843079948607C
:1045500006E00798406820F4702007994860FFE75C
:1045600002E000200590FFE7059808B080BD00003C
:1045700080B584B001460390012002900398019118
:1045800000F0D0F801280ED1FFE703984FF4602126
:1045900000F064F903984FF4E04100F07DF80398CF
:1045A00000F056F8FFE703988068C00700284CD158
:1045B000FFE70398016821F01F010160039841683B
:1045C0000022CFF63072114041600398816840F2BA
:1045D000F062CFF60172114081600398C16801F06A
:1045E0007F41C1600398016901F040410161039876
:1045F000416940F6FF7291434161039881696FF30D
:104600000B0181610398C1696FF30B01C1610398CC
:10461000016A6FF30B0101620398416A1143416221
:104620000398816A6FF30B0181620398C16A01F0FC
:104630007F41C1620398016B01F04041016303981F
:10464000816B6FF315018163FFE7029804B080BDB1
:1046500082B0014601900198826822F001028260D6
:10466000009102B07047000082B0014601900198AD
:10467000826822F001028260009102B0704700005F
:1046800082B0014601900198826842F00102826086
:10469000009102B07047000084B00A4603460390C0
:1046A0000291039880680299090B61F30E30039917
:1046B00088600192009304B07047000080B586B016
:1046C0000A46034605900491012003900598029242
:1046D000019300F027F8002813D1FFE70598406800
:1046E00020F480700499496808430599486005984A
:1046F000806820F40060049909680843059988607F
:1047000002E000200390FFE7039806B080BD0000A0
:1047100082B00146019001988068C0F3800000914A
:1047200002B0704782B0014601900198806800F0A5
:104730000100009102B0704780B586B00A4603467A
:10474000059004910120039004984068002802928B
:10475000019301D0FFE7FFE70598FFF7E3FF00288B
:1047600031D1FFE70498406800280CD0FFE7059896
:10477000406820F4684004994A68896811430843F6
:104780000599486009E00598406820F4684004995C
:104790004968084305994860FFE7059880684FF627
:1047A000FD61CFF6F171084004990A68CB68096988
:1047B0001A4311430843059988600598049949688C
:1047C00000F008F802E000200390FFE7039806B02D
:1047D00080BD000084B00A4603460390029103980E
:1047E000C06A20F47000029908430399C8620192DC
:1047F000009304B07047000010B589B013468C4692
:1048000086460690059104920698059901F4407138
:104810004FF440720892089A92FAA2F20792079A0D
:10482000B2FA82F2D14000EB81002C300390039861
:104830000168059A02F01F021F249440A143049CC2
:1048400004F01F0404FA02F2114301600293CDF850
:1048500004C0CDF800E009B010BD000084B00A46E5
:10486000034603900291039880680299490C61F312
:104870005340039988600192009304B07047000090
:1048800082B0014601900198826842F4A0028260E1
:10489000009102B07047000010B58DB013468C46F1
:1048A00086460690059104920698059901F00071DC
:1048B0004FF000720892089A92FAA2F20792079AB1
:1048C000B2FA82F2D14000EB81000C3003900398E1
:1048D0000068059901F0F8714FF0F8720A920A9C8D
:1048E00094FAA4F40994099CB4FA84F4E1400724EE
:1048F00004FA01F188430499059C04F0F8740C92C1
:104900000C9A92FAA2F20B920B9AB2FA82F224FA61
:1049100002F291400843039908600293CDF804C065
:10492000CDF800E00DB010BD82B0014601900198B5
:10493000826842F004028260009102B07047000079
:1049400084B001460390039841F21402C4F20202BB
:104950001368184310601068039A10400290029880
:104960000191009004B0704784B001460390039811
:1049700041F21402C4F20202136818431060106876
:10498000039A1040029002980191009004B0704781
:1049900082B001460190019841F21C02C4F2020269
:1049A000136823EA00001060009102B07047000015
:1049B00082B001460190019841F21C02C4F2020249
:1049C000136823EA00001060009102B070470000F5
:1049D00084B001460390039841F21C02C4F2020223
:1049E0001368184310601068039A104002900298F0
:1049F0000191009004B0704784B001460390039881
:104A000041F21C02C4F202021368184310601068DD
:104A1000039A1040029002980191009004B07047F0
:104A200082B001460190019841F21002C4F20202E4
:104A3000136818431060009102B0704782B00146BD
:104A40000190019841F21002C4F202021368184367
:104A50001060009102B0704782B001460190019849
:104A600041F21002C4F20202136823EA000010604F
:104A7000009102B07047000082B001460190019899
:104A800041F21002C4F20202136823EA000010602F
:104A9000009102B07047000082B001460190019879
:104AA00041F21802C4F20202136823EA0000106007
:104AB000009102B07047000082B001460190019859
:104AC00041F21802C4F20202136823EA00001060E7
:104AD000009102B07047000082B001460190019839
:104AE00041F21802C4F20202136823EA00001060C7
:104AF000009102B07047000082B001460190019819
:104B000041F21802C4F20202136823EA00001060A6
:104B1000009102B07047000084B0014603900398F2
:104B200041F21802C4F202021368184310601068C0
:104B3000039A1040029002980191009004B07047CF
:104B400084B001460390039841F21802C4F20202B5
:104B50001368184310601068039A1040029002987E
:104B60000191009004B0704784B00146039003980F
:104B700041F21802C4F20202136818431060106870
:104B8000039A1040029002980191009004B070477F
:104B900084B001460390039841F21802C4F2020265
:104BA0001368184310601068039A1040029002982E
:104BB0000191009004B0704782B0014601900198C5
:104BC00041F20C02C4F20202136818431060009113
:104BD00002B0704782B001460190019841F20C0288
:104BE000C4F20202136818431060009102B07047CB
:104BF00082B001460190019841F20C02C4F2020217
:104C0000136823EA00001060009102B070470000B2
:104C100082B001460190019841F20C02C4F20202F6
:104C2000136823EA00001060009102B07047000092
:104C300080B584B00146039001200290039843F2AE
:104C40000002C4F202029042019108D1FFE70398EA
:104C500000F020F80398002100F030F802E0002076
:104C60000290FFE7029804B080BD000084B00A46BD
:104C70000346039002910298039908600192009301
:104C800004B0704782B0014601900198006800911D
:104C900002B0704782B00146019001980122826003
:104CA000009102B07047000082B001460190019867
:104CB00001228260009102B07047000084B00A4671
:104CC00003460390029102980399087101920093A0
:104CD00004B0704782B00146019001980122426001
:104CE000009102B07047000082B001460190019827
:104CF00001224260009102B07047000082B001467C
:104D00000190019810224260009102B070470000AB
:104D100082B00146019001984FF480724260009188
:104D200002B0704782B00146019001984FF4805262
:104D30004260009102B0704782B001460190019834
:104D40004FF480324260009102B0704782B0014659
:104D5000019001984FF480324260009102B0704798
:104D600082B00146019001984FF480124260009198
:104D700002B0704782B00146019001984FF08072F6
:104D80004260009102B0704782B0014601900198E4
:104D900004224260009102B07047000082B00146D8
:104DA000019001984FF480224260009102B0704758
:104DB00082B001460190019802224260009102B047
:104DC0007047000082B00146019001984FF4003214
:104DD0004260009102B0704780B586B013468C46A1
:104DE0008646059004910392059804994EF68752E1
:104DF000C0F60002114411F8011C405804991144F6
:104E000047F6F0729043039A1043059A11F8011C7B
:104E100050500293CDF804C0CDF800E006B080BD3C
:104E200080B592B00A460346119010910820C4F252
:104E300002000F9001200E9011980021C4F202018F
:104E400088420D920C9309D1FFE71098012805D1F3
:104E5000FFE70820C4F202000B90D0E0119840F266
:104E60000041C4F2020188420AD1FFE710980128EC
:104E700006D1FFE740F20840C4F202000A90BBE00E
:104E800011980021C4F20201884209D1FFE710986D
:104E9000022805D1FFE71C20C4F202000990A8E017
:104EA000119840F20041C4F2020188420AD1FFE7A2
:104EB0001098022806D1FFE740F21C40C4F202001D
:104EC000089093E011980021C4F20201884209D1B0
:104ED000FFE71098032805D1FFE73020C4F2020055
:104EE000079080E0119840F20041C4F2020188422C
:104EF0000AD1FFE71098032806D1FFE740F23040BF
:104F0000C4F2020006906BE011980021C4F2020185
:104F1000884209D1FFE71098042805D1FFE7442013
:104F2000C4F20200059058E0119840F20041C4F22A
:104F3000020188420AD1FFE71098042806D1FFE752
:104F400040F24440C4F20200049043E01198002172
:104F5000C4F20201884209D1FFE71098052805D163
:104F6000FFE75820C4F20200039030E0119840F2AD
:104F70000041C4F2020188420AD1FFE710980528D7
:104F800006D1FFE740F25840C4F2020002901BE055
:104F9000119800210022C4F202029042019107D12F
:104FA000FFE710980638B0FA80F040090190FFE75B
:104FB0000198C0078021C4F2020100281CBF6C21A7
:104FC000C4F202010291FFE702980390FFE7039801
:104FD0000490FFE704980590FFE705980690FFE727
:104FE00006980790FFE707980890FFE70898099050
:104FF000FFE709980A90FFE70A980B90FFE70B98E4
:105000000F900F98016821F0010101600F980021B5
:1050100001600F9841600F9881600F98C1601098EF
:10502000012804D1FFE71198FFF754FE38E01098EB
:10503000022804D1FFE71198FFF760FE2FE01098D7
:10504000032804D1FFE71198FFF762FE26E01098CD
:10505000042804D1FFE71198FFF764FE1DE01098C3
:10506000052804D1FFE71198FFF766FE14E01098B9
:10507000062804D1FFE71198FFF772FE0BE01098A5
:10508000072804D1FFE71198FFF774FE02E0002023
:105090000E90FFE7FFE7FFE7FFE7FFE7FFE7FFE728
:1050A0000E9812B080BD000084B00A4603460390FB
:1050B0000291039802994EF68E5CC0F6000C614492
:1050C00011F8011C50F801C02CF0010C40F801C08F
:1050D0000192009304B0704784B00A4603460390DF
:1050E0000291039802994EF68E5CC0F6000C614462
:1050F00011F8011C50F801C04CF0010C40F801C03F
:105100000192009304B0704784B00A4603460390AE
:105110000291039802994EF68E5CC0F6000C614431
:1051200011F8011C50F801C04CF0020C40F801C00D
:105130000192009304B07047F0B587B013468C46D7
:10514000864606900591049206980599049A9468FB
:10515000D568166957692C4334433C4395692C4301
:10516000D5692C43526A22430393CDF808C0CDF889
:1051700004E0FFF731FE06980599049A526800F0A2
:1051800085F806980599049A126800F09BF806982D
:105190000599049A126A00F02DF8012007B0F0BDBD
:1051A00082B00146019001980068C0F34000009170
:1051B00002B0704782B00146019001980068C0F3C8
:1051C0004040009102B0704784B00A460346039005
:1051D0000291039802994EF6805CC0F6000C61447F
:1051E00011F8011C4058C0F340000192009304B034
:1051F0007047000080B586B013468C468646059001
:1052000004910392059804994EF68752C0F6000265
:10521000114411F8011C08444068049911444FF6E8
:10522000FF729043039A1043059A11F8011C114430
:1052300048600293CDF804C0CDF800E006B080BD10
:1052400080B586B013468C4686460590049103923D
:10525000059804994EF68E52C0F60002114411F8DA
:10526000011C08444068049911444FF6FF729043B2
:10527000039A1043059A11F8011C114448600293E7
:10528000CDF804C0CDF800E006B080BD10B586B002
:1052900013468C468646059004910392039805991F
:1052A000049A4EF68754C0F60004224412F8012CEA
:1052B0001144C8600293CDF804C0CDF800E006B0F8
:1052C00010BD000010B586B013468C46864605908A
:1052D0000491039203980599049A4EF68754C0F6F8
:1052E0000004224412F8012C114488600293CDF886
:1052F00004C0CDF800E006B010BD000082B0014649
:105300000190019840F21442C4F201021060009131
:1053100002B0704742F20000C4F20200016841F49A
:10532000806101607047000042F20000C4F2020098
:10533000016841F4007101607047000042F2000012
:10534000C4F20200016841F01001016070470000E2
:1053500042F20000C4F20200006800F0070070474B
:1053600082B00146019001980088009102B0704718
:1053700082B00146019042F20000C4F202000268CD
:1053800022F00702019B1A430260009102B07047AD
:105390000420C4F20100016821F440610160016849
:1053A00041F40061016070470420C4F2010001680B
:1053B00021F0E0610160016841F000710160704717
:1053C0000420C4F20100016821F0E061016001687D
:1053D00041F080710160704780B58AB00A4603468B
:1053E0000790069106980068C0F30F200590059875
:1053F0000990099890FAA0F008900898B0FA80F007
:10540000049002920193FFE705980499C840002890
:1054100045D0FFE705980499012202FA01F10842FC
:1054200039D0FFE70498072807D8FFE7049840F22F
:10543000011101FA00F0039009E0049808384FF0D8
:10544000011101FA00F040F080600390FFE7079837
:105450000399069A526800F031F907980399069A61
:10546000126900F0C7F906984068012805D0FFE7E7
:105470000698406809280DD1FFE707980399069A16
:10548000926800F0D9F907980399069AD26800F05B
:105490007DF9FFE7FFE7049801300490B4E70120AD
:1054A0000AB080BD84B00A46034603900291039877
:1054B0008068BDF809100840401AB0FA80F0400931
:1054C0000192009304B0704784B00A4603460390EB
:1054D000029103988068BDF809100840401AB0FA9C
:1054E00080F040090192009304B0704784B00A46EE
:1054F00003460390029103988068BDF809100840A4
:10550000401AB0FA80F040090192009304B070474D
:1055100084B00A4603460390029103988068BDF860
:1055200009100840401AB0FA80F040090192009337
:1055300004B0704784B00A46034603900291BDF858
:105540000900039948610192009304B0704700007C
:1055500084B00A46034603900291BDF809000399FE
:1055600048610192009304B07047000084B00A467D
:10557000034603900291BDF8090003994861019226
:10558000009304B07047000084B00A4603460390BD
:105590000291BDF80900039948610192009304B09B
:1055A0007047000084B00A46034603900291BDF89C
:1055B0000900039948610192009304B0704700000C
:1055C00084B00A46034603900291BDF8090003998E
:1055D00048610192009304B07047000084B00A460D
:1055E000034603900291BDF80900039948610192B6
:1055F000009304B07047000084B00A46034603904D
:105600000291BDF80900039948610192009304B02A
:105610007047000084B00A46034603900291BDF82B
:105620000900039908610192009304B070470000DB
:1056300084B00A46034603900291BDF8090003991D
:1056400008610192009304B07047000084B00A46DC
:10565000034603900291BDF8090003990861019285
:10566000009304B07047000084B00A4603460390DC
:105670000291BDF80900039908610192009304B0FA
:105680007047000084B00A46034603900291BDF8BB
:105690000900039908610192009304B0704700006B
:1056A00084B00A46034603900291BDF809000399AD
:1056B00008610192009304B07047000080B58BB080
:1056C00013468C46864606900591049206989DF8EE
:1056D00017100844039003980068059908910899E9
:1056E00091FAA1F107910799B1FA81F189000F228E
:1056F00002FA01F188430499059A0A920A9A92FAE9
:10570000A2F20992099AB2FA82F2920091400843F9
:10571000039908600293CDF804C0CDF800E00BB007
:1057200080BD000080B58BB013468C46864606903F
:105730000591049206989DF8171008440390039869
:10574000006805990891089991FAA1F107910799C4
:10575000B1FA81F189000F2202FA01F1884304991C
:10576000059A0A920A9A92FAA2F20992099AB2FA50
:1057700082F2920091400843039908600293CDF8A9
:1057800004C0CDF800E00BB080BD000080B58BB048
:1057900013468C46864606900591049206989DF81D
:1057A0001710084403900398006805990891089918
:1057B00091FAA1F107910799B1FA81F189000422C8
:1057C00002FA01F188430499059A0A920A9A92FA18
:1057D000A2F20992099AB2FA82F292009140084329
:1057E000039908600293CDF804C0CDF800E00BB037
:1057F00080BD000080B588B013468C468646059073
:10580000049103920598C06804990A0A20EA1120BD
:1058100003990792079A92FAA2F20692069AB2FAAE
:1058200082F2914008430599C8600293CDF804C004
:10583000CDF800E008B080BD80B58BB013468C4633
:10584000864606900591049206989DF81710084424
:1058500003900398006805990891089991FAA1F1BD
:1058600007910799B1FA81F18900032202FA01F147
:1058700088430499059A0A920A9A92FAA2F2099226
:10588000099AB2FA82F292009140084303990860A3
:105890000293CDF804C0CDF800E00BB080BD00004D
:1058A00084B00A460346039002910398C068BDF88D
:1058B000091048400399C8600192009304B07047F2
:1058C00082B00146019043F20000C4F200004AF6A3
:1058D000AA220260009102B07047000084B00A461C
:1058E00003460390029103980299B0FBF1F001384E
:1058F0004EF21401CEF2000108604EF21800CEF212
:105900000000002101604EF21000CEF200000521DF
:1059100001600192009304B07047000047F2040058
:10592000C4F200000068C0F38000704741F2080034
:10593000C4F20200016841F40001016070470000F8
:1059400041F20800C4F20200016841F40021016044
:105950007047000041F20800C4F20200016821F41F
:10596000006101607047000041F20800C4F20200CB
:10597000016841F4006101607047000041F20400D9
:10598000C4F20200006800F0F000704741F2040029
:10599000C4F20200006800F4E060704741F20400C5
:1059A000C4F20200006800F46050704741F2040045
:1059B000C4F20200006800F00C00704741F20400DD
:1059C000C4F20200006800F00C00704780B582B09D
:1059D00001460190009101F0C3FD01990860019812
:1059E000006801F07FFD019948600198406801F06E
:1059F0008FFD019988600198406801F09DFD019933
:105A0000C86002B080BD000041F20000C4F2020094
:105A1000016841F4803101607047000041F20000EC
:105A2000C4F20200016841F4803101607047000057
:105A300041F20000C4F202000068C0F34040704729
:105A400041F20800C4F202000068C0B2C009704709
:105A500041F20800C4F202000068C0F3C0007047C1
:105A600041F22400C4F20200016841F0010101602A
:105A70007047000041F22400C4F202000068C0F345
:105A80004000704780B584B00A46034603900291F7
:105A900041F20400C4F20200016821F47C11DDF837
:105AA0000CC00CF4403CDDF808E04CEA0E0C41EA76
:105AB0000C0101600192009304B080BD41F200002E
:105AC000C4F20200016841F080710160704700007B
:105AD00041F20400C4F20200006800F48030704714
