:020000040800F2
:10000000F02D002045010008DD740008F9390008D2
:10001000D97400083D1B0008E9DE0008000000005C
:10002000000000000000000000000000FDB4000817
:100030000520000800000000257B000849BB0008DF
:1000400045E90008057B00085F0100085F01000822
:100050005F010008857D00085F0100085F0100085E
:100060005F0100085F0100085F010008891F0008A8
:100070005F0100085F0100085F0100085F010008E0
:100080005F0100085F0100085F0100085F010008D0
:100090005F0100085F0100085F0100085F010008C0
:1000A0005F0100085F0100085F0100085F010008B0
:1000B000ADBF00085F0100085F0100085F01000894
:1000C0005F0100085F0100085F0100085F01000890
:1000D0005F010008E5C400085F0100085F01000837
:1000E0005F0100085F0100085F0100085F01000870
:1000F0005F0100085F0100085F0100085F01000860
:100100005F0100085F0100085F0100085F0100084F
:100110005F0100085F0100085F0100085F0100083F
:100120005F0100085F0100085F010008C51F0008AB
:10013000DFF80CD000F002FC0048004771E900082D
:10014000F02D00200648804706480047FEE7FEE7FE
:10015000FEE7FEE7FEE7FEE7FEE7FEE7FEE7FEE777
:100160004DBF0008310100082DE9F05F0546002071
:1001700092469B4688460646814640241BE0284618
:1001800041464746224600F081FA53465A46C01A75
:10019000914110D311461846224600F068FA2D1AF4
:1001A00067EB01084F4622460120002100F05FFA6C
:1001B00017EB00094E41201EA4F10104DFDC484684
:1001C00031462A464346BDE8F09FD2B201E000F82E
:1001D000012B491EFBD270470022F6E710B51346EB
:1001E0000A4604461946FFF7F0FF204610BDF0B45A
:1001F00080EA0102D40F4200B2EB410F02D2024664
:10020000084611464A0042D0C30DDDB2C1F3C752C1
:10021000AD1A202D35DAC1F3160141F4000204B104
:100220005242C5F1200602FA06F12A411044B3EB0E
:10023000D05F23D0C4B1012DA0EBC35009DCF0BCCA
:100240004FF0004202EAC352DBB200F5000000F0BA
:1002500048BA400000F1807000EBC350A0F18070FC
:1002600040EAD170490009E0490841EAC071A0EBB9
:10027000C35000F50000400800EBC350F0BC00F094
:1002800027BA6142012202EB4101001BF6E7F0BCF4
:10029000704781F00041AAE780F00040A7E780EABC
:1002A000010210B502F00043400022D04A001FD0E6
:1002B000010E01EB1261C0F35600C2F3560240F486
:1002C000000042F40002A0FB022000047F39140465
:1002D00000D0401C50EA124001D44000491EC2B276
:1002E0000C0604EBD010401C4008802A02D003E02A
:1002F000002010BD20F00100002900DA0020184382
:1003000010BD30B480EA010202F0004530F0004236
:1003100021F0004013D090B1C30DD40DC2F31601EB
:10032000C0F31600E41A41F4000140F400027D34E9
:10033000914201D3641C00E04900002C02DA30BC79
:10034000002070474FF400000023914201D3891A26
:10035000034340084FEA4101F7D151B1914202D124
:100360004FF0004105E002D24FF0010101E06FF0D3
:10037000010103EBC450284430BC00F0A9B92DE9B9
:10038000FE4F804681EA0300C00F0C46009021F02A
:10039000004123F00045B8EB0200A94105D24046D8
:1003A000214690461C460B46024623F0004010436F
:1003B00047D0270DC7F30A00C3F30A510290401A31
:1003C000019040286BDAC3F3130040F4801B0098BF
:1003D000924620B10023D2EB030A63EB0B0B01988A
:1003E0005946C0F14002504600F041F906460D461C
:1003F00050465946019A00F059F910EB0800614146
:10040000002487EA115284EAE7731A4340D0009A25
:1004100062B3019A012A4FEA075215DC001B61EB17
:1004200002014FF0004202EA0752CDE90042001CEF
:1004300041F5801132462B4600F090F903B0BDE83B
:10044000F08F40462146F9E7001B61EB0201001CDA
:1004500041F5801300185B412018A2F5001747EB07
:10046000030140EAD570B6196D4111E06D084FEAFD
:10047000360645EAC0754FEA0752001B61EB0201E0
:10048000001C41F5801149084FEA30000019514124
:1004900032462B4603B0BDE8F04F00F050B900984B
:1004A000012240000023D0EB020263EBE0730098CE
:1004B00021464FEAE074B8EB000061EB0401E9E784
:1004C00083F000435BE781F0004158E72DE9F04DF0
:1004D00081EA030404F0004B21F0004514464FF07C
:1004E000000A23F0004150EA050220D054EA01023C
:1004F0001DD0C5F30A570246C5F31303C1F3130019
:10050000C1F30A5640F4801543F48013A7EB0608A4
:10051000101BD64608F2FD3873EB050002D308F134
:10052000010801E092185B41B8F1000F03DA0020E6
:100530000146BDE8F08D00204FF480110646844648
:100540000EE0171B73EB050705D3121B63EB0503C6
:1005500006434CEA010C49084FEA300092185B410F
:1005600050EA0107EDD152EA030012D082EA0400FA
:1005700083EA0501084305D0101BAB4106D20122D6
:10058000002306E000224FF0004302E06FF001027A
:1005900053101AEB06004CEB085110EB0A0041EB2C
:1005A0000B01BDE8F04D00F0CAB8C10F80EAE07061
:1005B0000844CA079623002100F093B8962300222E
:1005C000114600F08EB80EB5C10F80EAE070084405
:1005D000CA07002140F233438DE80E000A460B465D
:1005E00000F0BCF803B000BD20F00040C10DC0F326
:1005F000160040F400007F2901DA00207047962998
:1006000003DCC1F19601C8407047963988407047B5
:10061000C1F30A5210B5C1F3130140F2FF3341F4A4
:1006200080119A4201DA002010BD40F233439A4211
:10063000A2F2334203DC524200F028F810BD904091
:1006400010BD30B50B46014600202022012409E0F0
:1006500021FA02F59D4205D303FA02F5491B04FA7B
:1006600002F52844151EA2F10102F1DC30BD202A5A
:1006700004DB203A00FA02F1002070479140C2F1F9
:10068000200320FA03F3194390407047202A04DB2B
:10069000203A21FA02F00021704721FA02F3D040FB
:1006A000C2F120029140084319467047202A06DB18
:1006B000CB17203A41FA02F043EAE07306E041FA30
:1006C00002F3D040C2F1200291400843194670471E
:1006D0000029A8BF7047401C490008BF20F0010056
:1006E000704710B4B0FA80FC00FA0CF050EA010434
:1006F00004BF10BC704749B1CCF1200421FA04F4C6
:1007000011FA0CF118BF012121430843A3EB0C019E
:10071000CB1D4FEA00614FEA102042BF002010BC01
:10072000704700EBC35010440029A4BF10BC7047B1
:10073000401C490008BF20F0010010BC704710B5F4
:10074000141E73F1000408DA401C41F100019218F4
:100750005B411A4301D120F0010010BD2DE9F04D9D
:1007600092469B4611B1B1FA81F202E0B0FA80F2F2
:1007700020329046FFF77BFF04460F4640EA0A000E
:1007800041EA0B0153465A46084313D0114653EA37
:10079000010019D0C8F140025046FFF777FF054627
:1007A0000E46504659464246FFF761FF084305D0C2
:1007B000012004E020463946BDE8F08D00200543C5
:1007C00046EAE0762C4337430A986305E40AA0EB37
:1007D00008000022FD0A44EA47540A3002D50020EE
:1007E0000146E9E7010510196941DDE908450019ED
:1007F0006941BDE8F04DA2E72DE9FE4F81EA03040F
:1008000004F0004421F0004100944FF0000B23F06D
:10081000004350EA01045ED052EA03045BD0C3F304
:100820000A54C1F30A552C44A4F2F3340194A0FBFA
:100830000254C1F3130141F48011C3F3130343F4D1
:10084000801301FB024400FB034E840A970A44EA2A
:10085000815447EA8357A4FB076802958D0A05FB7C
:1008600007854FEA932C04FB0C542705029D4FEAA1
:10087000065847EA1637B5EB08056EEB070C870EEE
:10088000920E47EA811742EA8312A7FB0201B6EBF8
:100890000B0164EB00042B0D43EA0C335E1844EBB0
:1008A0001C50DA465146E7FB0201C5F313044FEA38
:1008B0000B3343EA14534FEA0432019C43EA060324
:1008C000A4F10C040294009CCDE900B4FFF746FFAC
:1008D00003B0BDE8F08F00200146F9E7C1F30A52EA
:1008E000C1F3130140F2FF3341F480119A4202DA5E
:1008F00000200146704740F233439A42A2F233424D
:1009000002DC5242FFF7C2BEFFF7B1BE30B5041E93
:1009100071F1000404DB4FF00044404264EB01013C
:10092000141E73F1000405DB1C464FF000435242D5
:1009300063EB0403994208BF904230BD064C074D5B
:1009400006E0E06840F0010394E80700984710349F
:10095000AC42F6D3FFF7F0FB38F8000858F800086F
:1009600080B582B0014601900198009100F00EFB25
:1009700002B080BD80B582B001460190019800911F
:1009800000F046FB02B080BD80B500F085FB80BD65
:1009900080B582B0014601900198009100F00AFCF8
:1009A00002B080BD80B582B00146019001980091EF
:1009B000FFF7E0FF02B080BD80B5FFF7E5FF80BD27
:1009C00080B58AB00A46034609908DF823100020AE
:1009D0008DF8220042F20040C4F201000792069313
:1009E000FFF7BEFF9DF823100329059008DBFFE702
:1009F00043F60040C4F20100FFF7B2FF0490FFE7A6
:100A0000FFE740F20800C2F200000068007800280A
:100A100001D1FFE7F5E79DF8230003280CDBFFE792
:100A2000FFE740F21000C2F20000006800780028E2
:100A300001D1FFE7F5E7FFE740F20800C2F200004E
:100A40000068FFF7A5FF9DF823E0BEF1030F0390B8
:100A500009DBFFE740F21000C2F200000068FFF778
:100A600097FF0290FFE700208DF82200FFE79DF836
:100A700022009DF8231088423CDAFFE79DF822000F
:100A800001460328019128D80199DFE801F0020B03
:100A9000141D40F20800C2F2000000684088099965
:100AA000088020E040F20800C2F200000068808860
:100AB0000999488017E040F21000C2F20000006877
:100AC0004088099988800EE040F21000C2F20000D0
:100AD000006880880999C88005E009989DF823106E
:100AE000FFF77AFBFFE7FFE79DF8220001308DF862
:100AF0002200BCE700200AB080BD000080B582B0B3
:100B000000F00AF8019000F09FF84FF0000E0090FE
:100B1000704602B080BD000080B592B00020C4F2E3
:100B2000020001210790069104F01AFC0699059035
:100B3000084604F0A5F908A828210490FFF74CFB0B
:100B40002420109000200A9040F20801C2F2000117
:100B50000968063109914FF480610F9180210D9150
:100B60000B9042F24C41C4F2010108914FF48071A4
:100B70000E910C904FF40051119107990390084683
:100B80000699049A04F078FD0799029008460699A0
:100B900004F042FD06F022FE0699039A06F0DEFC00
:100BA0000B2101900846019A0091114606F0A4FE1F
:100BB000009806F097FC0798069904F045FD039805
:100BC00012B080BD80B586B00020C4F202000121C1
:100BD00024220590049104F0D3FD0598049904F0B3
:100BE0001BFD42F20040C4F20100039003F0E8FF55
:100BF000039800F06FFB0021039A029010460191C8
:100C0000019A00F03FFB01990090084606B080BDB4
:100C100080B582B00020C4F202000121019004F0EE
:100C2000E3FC019804F000FB019804F04DFB0198EF
:100C300004F05EFB42F20040C4F2010003F0B4FF96
:100C4000002002B080BD000080B594B00020139059
:100C50001290119010900F900E900D900C9042F207
:100C60000041C4F201010B9008460A9103F020FFF5
:100C70000121DDF828E009907046089100F016FA8D
:100C80000B9912914FF4807ECDF84CE012A90A9A8C
:100C900007901046CDF818E003F0B0FF4FF4602144
:100CA0000D914FF480110E910B990F910222109229
:100CB000069A11920DA9DDF828E00590704603F020
:100CC000DBFF4FF400410490084605F063FB0B98EE
:100CD0000C900CA90A9803F09BFE4FF400710A22B5
:100CE000DDF828E003907046029204F025F80A9897
:100CF0000299089A04F070F840F205210B20C0F226
:100D000030000A9A01901046019A04F015F80A98EA
:100D10000199089A04F060F80A9803F051FF0A98C4
:100D200000F0D8FA0B990090084614B080BD00007E
:100D300080B582B000F00AF8019000F0A1F84FF001
:100D4000000E0090704602B080BD000080B592B0E9
:100D500040F20040C4F2020005210790069104F021
:100D6000FFFA02210590084604F08AF808A8282115
:100D70000490FFF731FA2420109000200A9040F2EE
:100D80001001C2F200010968063109914FF4806137
:100D90000F9180210D910B9043F64C41C4F201015B
:100DA00008914FF480710E910C904FF40051119105
:100DB0000799039008460699049A04F05DFC079988
:100DC00002900846069904F027FC06F007FD012171
:100DD000039A06F0C3FB3B2101900846019A00915B
:100DE000114606F089FD009806F07CFB07980699ED
:100DF00004F02AFC039812B080BD000080B586B0D4
:100E000040F20040C4F20200052124220590049122
:100E100004F0B6FC0598049904F0FEFB43F600408C
:100E2000C4F20100039003F0CBFE039800F052FAE5
:100E30000021029008460191039A00F023FA0199DB
:100E40000090084606B080BD80B582B040F20040F8
:100E5000C4F202000521019004F0C6FB019804F0E1
:100E600015FA019804F03AFA019804F04BFA43F6A7
:100E70000040C4F2010003F097FE002002B080BDE4
:100E800080B594B0002013901290119010900F90A4
:100E90000E900D900C9043F60041C4F201010B90AE
:100EA00008460A9103F004FE0121DDF828E00990CC
:100EB000704600F0FBF80B9912914FF4807ECDF84C
:100EC0004CE012A90A9A08901046CDF81CE003F0F5
:100ED00095FE4FF460210D914FF480110E910B9906
:100EE0000F9102221092079A11920DA9DDF828E0C5
:100EF0000690704603F0C0FE4FF40041059008468E
:100F000005F048FA0B980C900CA90A9803F080FDA4
:100F10004FF400710C22C0F26002DDF828E004906A
:100F20007046039203F008FF03200A9902900846D6
:100F30000399029A03F050FF40F205210D20C0F200
:100F400090000A9A01901046019A03F0F5FE0A9863
:100F50000199029A03F040FF0A9803F031FE0A98C3
:100F600000F0B8F90B990090084614B080BD00005D
:100F700080B582B0FFF7C2FD0190FFF7D9FE4FF0B8
:100F8000000E0090704602B080BD000080B584B0B5
:100F900001460290029842F20042C4F201029042DD
:100FA00001910CD1FFE740F20800C2F20000006896
:100FB00000210170FFF706FE8DF80F0023E0029874
:100FC00042F60001C4F20101884204D1FFE700208B
:100FD0008DF80F0017E0029843F60041C4F20101BA
:100FE00088420CD1FFE740F21000C2F20000006816
:100FF00000210170FFF702FF8DF80F0003E00020D1
:101000008DF80F00FFE79DF80F0004B080BD0000D1
:1010100080B584B001460290029842F20042C4F2C8
:101020000102904201910DD1FFE740F20800C2F2A7
:1010300000000068017801310170FFF7E9FD8DF8CB
:101040000F0024E0029842F60001C4F20101884238
:1010500004D1FFE700208DF80F0018E0029843F656
:101060000041C4F2010188420DD1FFE740F21000B7
:10107000C2F200000068017801310170FFF7E4FE60
:101080008DF80F0003E000208DF80F00FFE79DF8BA
:101090000F0004B080BD000080B582B000F068F899
:1010A0000190FFF765FF02B080BD000080B586B0FB
:1010B0000A46034604908DF80F1004980028029207
:1010C000019304D1FFE701208DF817004BE004984D
:1010D00042F20041C4F20101884210D1FFE79DF8BD
:1010E0000F00002805D0FFE74FF4007003F0B4FFB5
:1010F00004E04FF4007003F06FFFFFE7FFE7049890
:1011000042F60001C4F20101884210D1FFE79DF8C8
:101110000F00002805D0FFE74FF4806003F09CFF2C
:1011200004E04FF4806003F057FFFFE7FFE7049807
:1011300043F60041C4F20101884210D1FFE79DF857
:101140000F00002805D0FFE74FF4004003F084FFB4
:1011500004E04FF4004003F03FFFFFE7FFE700200B
:101160008DF81700FFE79DF8170006B080BD00005E
:1011700080B588B041F20000C4F201000121029064
:1011800002F032FB00200790069005900490039037
:1011900040F60F7103910490079003A9DDF808E071
:1011A0000190704604F006FD01990090084608B0D1
:1011B00080BD000080B5A0B001461F9000208DF8D2
:1011C0007B000DF1560224230A901046099119461E
:1011D0000893FFF701F80DF132000899FEF7FCFFC4
:1011E0001F9806300B900A988DF87B00FFE79DF85A
:1011F0007B0011281DDCFFE70B9800889DF87B1011
:101200000DF1560222F811000B9802300B900B984A
:1012100000889DF87B100DF1320222F811000B9826
:1012200002300B90FFE79DF87B0001308DF87B00CA
:10123000DDE70DF1560012210790069102F0C8F982
:101240000DF1320105900846DDF818E00491714671
:1012500002F0BEF911214FF0010E079A03901046DB
:1012600002917246CDF804E000F038FE1F994880E4
:1012700004980299019A00F031FE1F99888000209D
:1012800020B080BD80B586B013468C46864605905A
:1012900004910392059800280293CDF804C0CDF87C
:1012A00000E004D0FFE7059803F08AFDFFE704980B
:1012B000002804D0FFE7049803F082FDFFE70398BD
:1012C000002804D0FFE7039803F07AFDFFE7002031
:1012D00006B080BD80B584B0014602900298002817
:1012E00001911CD0FFE70298816841F008018160FC
:1012F000FFE7029880680007002801D5FFE7F8E7BC
:10130000029803F0B1FDFFE7029803F0A1FC00286A
:1013100001D0FFE7F8E700208DF80F0003E001207F
:101320008DF80F00FFE79DF80F0004B080BD0000AE
:1013300080B586B013468C468646059004918DF89C
:101340000F20059804999DF80F200293CDF804C052
:10135000CDF800E000F06EF906B080BDB0B588B001
:101360009C4696460C4605460790ADF81A10059225
:10137000ADF812300798BDF81A10059ABDF8123072
:10138000CDF80CC0CDF808E00194009500F0BCF950
:1013900008B0B0BDB0B588B09C4696460C46054630
:1013A0000790ADF81A100592ADF812300798BDF805
:1013B0001A10059ABDF81230CDF80CC0CDF808E02F
:1013C0000194009500F0D2F908B0B0BD80B586B0A8
:1013D00013468C468646059004918DF80F2005989B
:1013E00004999DF80F200293CDF804C0CDF800E0D9
:1013F000FFF79EFF06B080BDB0B588B09C4696460C
:101400000C4605460790ADF81A100592ADF812305B
:101410000798BDF81A10059ABDF81230CDF80CC027
:10142000CDF808E001940095FFF798FF08B0B0BD33
:10143000B0B588B09C4696460C4605460790ADF878
:101440001A100592ADF812300798BDF81A10059AD7
:10145000BDF81230CDF80CC0CDF808E0019400952D
:10146000FFF798FF08B0B0BDB0B588B09C4696466F
:101470000C4605460790ADF81A100592ADF81230EB
:101480000120CDF80CC0CDF808E00194009508B01B
:10149000B0BD0000B0B588B09C4696460C460546E7
:1014A0000790ADF81A100592ADF812300120CDF872
:1014B0000CC0CDF808E00194009508B0B0BD000064
:1014C00080B58AB0014608900898032202700898F7
:1014D00041F20002C4F201024260089841F2100297
:1014E0008260089840680028029106D0FFE70898BB
:1014F0004068012102F078F9FFE70020079006908C
:1015000005900490039001210491059106900791A4
:101510000898806803900898406800280ED0FFE77C
:101520000898406803A904F045FB0899D1F804E045
:1015300089680190704604F05BFCFFE70898002181
:10154000C160089840F60042C4F2010202610898A6
:1015500044F24003436108988261089848F280028F
:10156000C261089880F82010089880F82110089827
:1015700081620898A0224284089841620898007805
:10158000002807D1FFE7089810214170089808212A
:10159000817037E008980078012807D1FFE70898A4
:1015A000202141700898082181702AE0089800786D
:1015B000022807D1FFE708982021417008981021E0
:1015C00081701DE008980078032807D1FFE708988C
:1015D0004021417008981021817010E0089800782F
:1015E000042807D1FFE7089880214170089810214E
:1015F000817003E001208DF8270007E0FFE7FFE797
:10160000FFE7FFE700208DF82700FFE79DF82700A0
:101610000AB080BD82B0014601900020009102B066
:101620007047000082B0014601900020009102B096
:101630007047000080B58AB013468C4686460890F5
:1016400007918DF81B2000208DF81A0008980028BB
:101650000593CDF810C0CDF80CE00ED0FFE7089848
:1016600040F20C01C2F200010968884205D1FFE78F
:101670000898FFF725FF02901FE00898002809D07E
:10168000FFE70898002805D1FFE70898FFF7C2FF99
:10169000019011E00898002809D0FFE70898002879
:1016A00005D1FFE70898FFF7BDFF009003E0012098
:1016B0008DF8270023E0FFE7FFE79DF81B000028D7
:1016C0000CD0FFE708980C3002F00EFA8DF81A00E3
:1016D00008984FF0010E80F820E00BE008980C30DD
:1016E000079902F009FA8DF81A000898002180F88D
:1016F0002010FFE79DF81A008DF82700FFE79DF8FE
:1017000027000AB080BD0000B0B58AB09C4696465E
:101710000C4605460890ADF81E100692ADF816303E
:10172000089890F820000028CDF810C0CDF80CE003
:10173000029401950BD1FFE70898BDF81E10069A98
:10174000BDF8163000F044F88DF827000AE008983C
:10175000BDF81E10069ABDF81630FFF785FE8DF80D
:101760002700FFE79DF827000AB0B0BDB0B58AB0EA
:101770009C4696460C4605460890ADF81E1006920B
:10178000ADF81630089890F820000028CDF810C069
:10179000CDF80CE0029401950BD1FFE70898BDF855
:1017A0001E10069ABDF8163000F0EAF88DF82700F2
:1017B0000AE00898BDF81E10069ABDF81630FFF72B
:1017C00069FE8DF82700FFE79DF827000AB0B0BD3D
:1017D000B0B58EB09C4696460C4605460D90ADF8C9
:1017E00032100B92ADF82A30BDF82A000D99897895
:1017F0008842CDF820C0CDF81CE00694059505DDA3
:10180000FFE70D988078ADF82A00FFE700208DF8FB
:1018100029000D99498CADF82610ADF824000D98DB
:101820000078052828DBFFE70D980C30012102F035
:1018300085F98DF829009DF82900002804D0FFE7DC
:1018400002208DF829008BE00D980C309DF83310A4
:1018500002F09EF90D990C310490084602F05AF9F5
:101860008DF829009DF82900002804D0FFE7032007
:101870008DF8290074E019E0BDF83200C0F30220B1
:101880000D994A8C02EB400048840D980C300121E0
:1018900002F054F98DF829009DF82900002804D0A1
:1018A000FFE702208DF829005AE0FFE70D980C3081
:1018B0009DF8321002F06CF90D990C310390084636
:1018C00002F028F98DF829009DF82900002804D09D
:1018D000FFE703208DF8290042E00D980C3000212D
:1018E00002F02CF98DF829009DF82900002804D079
:1018F000FFE704208DF8290032E00020ADF8240035
:10190000FFE7BDF82400BDF82A10884224DAFFE77B
:101910000D980C3002F008F9DDF82CE0BDF8241029
:101920000EF80100BDF82400BDF82A1001398842E4
:1019300004D1FFE701208DF82900FFE70D980C3056
:101940009DF8291002F014F90290FFE7BDF8240079
:101950000130ADF82400D4E700208DF82900FFE71E
:101960000D980C3002F0FAF8BDF826E00D99A1F8B8
:1019700022E09DF82910019008460EB0B0BD00008D
:10198000B0B590B09C4696460C4605460F90ADF813
:101990003A100D92ADF83230BDF832000F998978C7
:1019A0008842CDF828C0CDF824E00894079505DDDD
:1019B000FFE70F988078ADF83200FFE700208DF840
:1019C00031000F99498CADF82E10ADF82C000F980E
:1019D0004068002809D0FFE70F98416880680690AA
:1019E0000846069904F094F9FFE70F980078052857
:1019F00028DBFFE70F980C30012102F09FF88DF8EB
:101A000031009DF83100002804D0FFE702208DF856
:101A1000310074E00F980C309DF83B1002F0B8F8DC
:101A20000F990C310590084602F074F88DF83100DA
:101A30009DF83100002804D0FFE703208DF8310025
:101A40005DE019E0BDF83A00C0F302200F994A8C1E
:101A500002EB400048840F980C30012102F06EF830
:101A60008DF831009DF83100002804D0FFE70220F6
:101A70008DF8310043E0FFE70F980C309DF83A10E5
:101A800002F086F80F990C310490084602F042F8F3
:101A90008DF831009DF83100002804D0FFE70320C5
:101AA0008DF831002BE00020ADF82C00FFE7BDF8E9
:101AB0002C00BDF83210884220DAFFE70F980C3076
:101AC0000D99BDF82C20895C02F062F80F990C3159
:101AD0000390084602F01EF88DF831009DF83100A1
:101AE000002804D0FFE704208DF8310007E0FFE76D
:101AF000BDF82C000130ADF82C00D8E7FFE70F98B7
:101B00000C3002F02BF8DDF83CE0DEF804E0BEF12A
:101B1000000F029009D0FFE70F984168806801909C
:101B20000846019904F064F9FFE7BDF82E000F990B
:101B300048849DF8310010B0B0BD0000FFE7FEE71B
:101B400080B584B00A460346039002910398029937
:101B50000192009300F084F804B080BD80B584B099
:101B60000A4603460390029103980299019200935A
:101B700000F0A6F804B080BD80B586B013468C4650
:101B800086468DF81700049103929DF8170004997A
:101B9000039A0293CDF804C0CDF800E000F0D4F829
:101BA00006B080BD80B584B00A460346039002911A
:101BB000039802990192009300F010F904B080BDDF
:101BC00080B500F047F980BD80B500F049F980BDCF
:101BD00080B584B00A4603460390029103980299A7
:101BE00001920093FFF7ACFF04B080BD80B584B0D4
:101BF0000A460346039002910398029901920093CA
:101C0000FFF7ACFF04B080BD80B586B013468C46AC
:101C100086468DF81700049103929DF817000499E9
:101C2000039A0293CDF804C0CDF800E0FFF7A4FFBB
:101C300006B080BD80B584B00A4603460390029189
:101C40000398029901920093FFF7ACFF04B080BDA6
:101C500080B5FFF7B5FF80BD80B5FFF7B5FF80BD4C
:101C600086B00A460346059004910020ADF80C00AA
:101C7000029001920093FFE70298049988421BD2D8
:101C8000FFE79DF80D000599029A895C48408DF8A0
:101C90000F00BDF80C009DF80F104FF28632C0F611
:101CA000000232F8111081EA0020ADF80C00FFE7C5
:101CB000029801300290DFE7BDF80C0006B07047D3
:101CC00080B584B00A4603460390029103980299B6
:101CD0000192009300F002F804B080BD80B588B096
:101CE0000A4603460790069100200590049003924F
:101CF0000293019000F020F801980590FFE7059805
:101D00000699884210D2FFE707980599405C049035
:101D1000049943F20000C4F2020003F047FAFFE71F
:101D2000059801300590EAE743F20000C4F2020092
:101D300003F048FA08B080BD80B543F20000C4F259
:101D4000020003F051FA80BD80B589B013468C467D
:101D500086468DF823000791069200208DF8160024
:101D600004900393CDF808C0CDF804E0FFE7049891
:101D7000069988422DD2FFE79DF816000799049A2C
:101D8000895C48408DF817009DF82300014607281C
:101D9000009104D0FFE7009831280AD013E09DF8A5
:101DA00017004FF28651C0F60001085C8DF816004E
:101DB0000AE09DF817004FF28661C0F60001085C4A
:101DC0008DF8160000E0FFE7FFE70498013004906B
:101DD000CDE79DF8160009B080BD000086B00A4628
:101DE000034605900491002003908DF80B000390AA
:101DF00001920093FFE70398049988420DD2FFE710
:101E000005980399405C9DF80B1008448DF80B0071
:101E1000FFE7039801300390EDE79DF80B00C0F554
:101E200080708DF80B009DF80B0006B07047000025
:101E300080B582B043F20000C4F2020003F098F9CA
:101E400040F2040EC2F2000E01218EF80010019043
:101E500002B080BD40F20400C2F20000007870477A
:101E600080B5FFF7E5FF402003F01EF840F20400C4
:101E7000C2F200004FF0000E80F800E080BD0000CC
:101E800080B500F00DF880BD80B500F017F880BD7A
:101E900080B5FFF7F5FF80BD80B5FFF7F5FF80BD8A
:101EA00080B504F00FFA002807D0FFE704F0F8F936
:101EB00004F09CF904F07CF9FFE780BD80B504F0E4
:101EC00009FA002809D0FFE704F086F904F07AF94E
:101ED0000CF04AFD05F0FAFDFFE780BD80B58EB03D
:101EE00013468C4686460D90ADF83210ADF8302082
:101EF00000200B900A90ADF82600BDF83000ADF838
:101F000026000893CDF81CC0CDF818E0FFE7BDF817
:101F10002600BDF8321088421BDAFFE70D98BDF8A5
:101F2000261030F81100FEF74EFBDDF828E00B9A82
:101F30000590704604911146059A049BFEF71FFA1E
:101F40000B910A90FFE7BDF826000130ADF826009E
:101F5000DDE70A980B99BDF83220BDF83030D21A6F
:101F6000039010460291FEF72EFB039A0190104653
:101F7000029B00911946019A009BFEF7A7FAFEF713
:101F800047FB0EB080BD000080B582B00020C4F2D7
:101F9000020003F0A5FB002811D0FFE70020C4F2E7
:101FA0000200012103F0B0FB002808D0FFE742F255
:101FB0000040C4F20100FEF7F5FC0190FFE702B01B
:101FC00080BD000080B582B040F20040C4F2020043
:101FD00003F090FB002812D0FFE740F20040C4F26B
:101FE0000200052103F090FB002808D0FFE743F62C
:101FF0000040C4F20100FEF7D5FC0190FFE702B0FB
:1020000080BD00007047000080B582B001468DF8A9
:1020100007009DF80700009100F056F802B080BD5F
:1020200080B500F0F5FA80BD80B500F0CFFE80BD30
:1020300080B500F0A1FF80BD80B500F0A9FF80BD94
:1020400080B501F095F980BD80B501F0E9F980BD5A
:1020500080B501F009FA80BD80B582B001468DF8E7
:1020600007009DF807000091FFF7CEFF02B080BD8A
:1020700080B5FFF7D5FF80BD80B5FFF7D5FF80BDE8
:1020800080B5FFF7D5FF80BD80B5FFF7D5FF80BDD8
:1020900080B582B001468DF807000F200091FFF750
:1020A000DBFFFFF7E5FF00F003F802B080BD0000A2
:1020B00080B5FFF7C5FF80BD80B5FFF7C5FF80BDC8
:1020C00080B5FFF7C5FF80BD82B001468DF80700DF
:1020D00000208DF806000091FFE79DF80600032818
:1020E00024DCFFE79DF80700C007002809D0FFE7C0
:1020F0009DF8060040F65E61C2F2000101220A541A
:1021000008E09DF8060040F65E61C2F20001002280
:102110000A54FFE79DF8070040088DF80700FFE725
:102120009DF8060001308DF80600D6E702B0704732
:1021300083B00A460346ADF80A00ADF80810BDF8B2
:10214000080000280192009301D0FFE700E0FFE7BC
:1021500003B070478BB001468DF82B00002009902A
:102160009DF82B0040F6E062C2F2000252F8200017
:102170000028089100F09180FFE79DF82B0040F6C1
:102180000471C2F2000151F820009DF82B1040F6B6
:102190007C62C2F2000252F8211088420AD9FFE79D
:1021A0009DF82B0040F60471C2F2000151F82000A6
:1021B000079009E09DF82B0040F67C61C2F2000117
:1021C00051F820000790FFE707984CF25031884201
:1021D00063D0FFE79DF82B0040F6E061C2F20001FA
:1021E00051F820004CF2503148439DF82B1040F636
:1021F0000472C2F2000252F821109DF82B2040F622
:102200007C63C2F2000353F82220914206900AD266
:10221000FFE79DF82B0040F60471C2F2000151F86F
:102220002000059009E09DF82B0040F67C61C2F289
:10223000000151F820000590FFE705980699084431
:102240009DF82B2040F60473C2F2000353F82220BD
:102250009DF82B3040F67C6CC2F2000C5CF8233009
:102260009A4204900AD9FFE79DF82B0040F60471CA
:10227000C2F2000151F82000039009E09DF82B0004
:1022800040F67C61C2F2000151F820000390FFE7A4
:1022900003980499081A099054E09DF82B0040F621
:1022A0000471C2F2000151F820009DF82B1040F695
:1022B0007C62C2F2000252F8211088420AD9FFE77C
:1022C0009DF82B0040F60471C2F2000151F8200085
:1022D000029009E09DF82B0040F67C61C2F20001FB
:1022E00051F820000290FFE702989DF82B1040F66D
:1022F0000472C2F2000252F821109DF82B2040F621
:102300007C63C2F2000353F82220914201900AD26A
:10231000FFE79DF82B0040F60471C2F2000151F86E
:102320002000009009E09DF82B0040F67C61C2F28D
:10233000000151F820000090FFE700980199081A69
:102340000990FFE709980BB0704700008BB0014679
:102350008DF82B00002009909DF82B0040F6E062DC
:10236000C2F2000252F820000028089100F091808B
:10237000FFE79DF82B0040F60471C2F2000151F80E
:1023800020009DF82B1040F67C62C2F2000252F849
:10239000211088420AD9FFE79DF82B0040F604710E
:1023A000C2F2000151F82000079009E09DF82B00CF
:1023B00040F67C61C2F2000151F820000790FFE76F
:1023C00007984CF25031884263D0FFE79DF82B000C
:1023D00040F6E061C2F2000151F820004CF25031A9
:1023E00048439DF82B1040F60472C2F2000252F8E6
:1023F00021109DF82B2040F67C63C2F2000353F8B5
:102400002220914206900AD2FFE79DF82B0040F669
:102410000471C2F2000151F82000059009E09DF816
:102420002B0040F67C61C2F2000151F820000590BB
:10243000FFE70598069908449DF82B2040F60473A1
:10244000C2F2000353F822209DF82B3040F67C6C3A
:10245000C2F2000C5CF823309A4204900AD9FFE7DC
:102460009DF82B0040F60471C2F2000151F82000E3
:10247000039009E09DF82B0040F67C61C2F2000158
:1024800051F820000390FFE703980499081A099077
:1024900054E09DF82B0040F60471C2F2000151F89F
:1024A00020009DF82B1040F67C62C2F2000252F828
:1024B000211088420AD9FFE79DF82B0040F60471ED
:1024C000C2F2000151F82000029009E09DF82B00B3
:1024D00040F67C61C2F2000151F820000290FFE753
:1024E00002989DF82B1040F60472C2F2000252F8D6
:1024F00021109DF82B2040F67C63C2F2000353F8B4
:102500002220914201900AD2FFE79DF82B0040F66D
:102510000471C2F2000151F82000009009E09DF81A
:102520002B0040F67C61C2F2000151F820000090BF
:10253000FFE700980199081A0990FFE709980BB086
:102540007047000080B584B00A46034603908DF8BA
:102550000B109DF80B0040F6D061C2F2000151F85B
:1025600020009DF80BC040F6C06EC2F2000E4EF87F
:102570002C009DF80B004FF0000C41F820C003998F
:102580004FF080400192009304F0B6F900281FD06C
:10259000FFE79DF80B0040F66C61C2F2000151F8B4
:1025A00020009DF80B1040F67C62C2F2000242F857
:1025B00021009DF80B0040F68C61C2F2000101225F
:1025C0000A5403994FF08040002204F0F5FA1DE010
:1025D0009DF80B0040F66C61C2F2000151F820003A
:1025E0009DF80B1040F60472C2F2000242F821007E
:1025F0009DF80B0040F68C61C2F2000102220A54E1
:1026000003994FF0804004F0D7FAFFE704B080BD93
:1026100081B000200090FFE7009803284ADCFFE724
:10262000009840F61471C2F2000100220A5400988A
:1026300040F6D061C2F2000141F82020009840F637
:10264000E061C2F2000141F82020009840F6A0614C
:10265000C2F2000141F82020009840F69061C2F2D9
:10266000000141F82020009840F67C61C2F2000190
:1026700041F82020009840F60471C2F2000141F8B0
:102680002020009840F6B061C2F2000141F82020FD
:10269000009840F60071C2F200010A54009840F61A
:1026A000C061C2F2000141F82020FFE7009801302C
:1026B0000090B1E701B0704780B590B040F60000DF
:1026C000C4F2010001210A90099101F08DF80A98E5
:1026D000099901F089F80A98099901F085F80A9892
:1026E000099901F081F800200F900E900D900C9048
:1026F0000B9008210C9103210D910E900F9040F248
:1027000001100B900BA9DDF828E0089070460791A6
:1027100003F050FA0A9906900846089903F006FB60
:1027200040F202200B900A9905900846079903F0A1
:1027300041FA0A9904900846059903F0F7FA40F225
:1027400004400B900A9903900846079903F032FA67
:102750000A9902900846039903F0E8FA40F6080047
:102760000B900A9901900846079903F023FA0A99F9
:1027700000900846019903F0D9FA10B080BD00001E
:1027800080B584B00A4603468DF80F008DF80E1010
:102790009DF80F00014603280292019300916CD826
:1027A0000099DFE801F0021C36509DF80E00002869
:1027B0000AD0FFE740F60040C4F201001021C0F249
:1027C000104103F023FB09E040F60040C4F2010091
:1027D0001021C0F2104103F0A9FAFFE74EE09DF886
:1027E0000E0000280AD0FFE740F60040C4F20100C6
:1027F0002021C0F2204103F009FB09E040F600402F
:10280000C4F201002021C0F2204103F08FFAFFE75B
:1028100034E09DF80E0000280AD0FFE740F60040A3
:10282000C4F201004021C0F2404103F0EFFA09E098
:1028300040F60040C4F201004021C0F2404103F0E4
:1028400075FAFFE71AE09DF80E0000280AD0FFE7AE
:1028500040F60040C4F201000821C0F2084103F034
:10286000D5FA09E040F60040C4F201000821C0F2A8
:10287000084103F05BFAFFE700E0FFE704B080BD2A
:1028800080B590B040F60040C4F2010001210A90EA
:10289000099100F0A9FF0A98099900F0A5FF0A988C
:1028A000099900F0A1FF0A98099900F09DFF002006
:1028B0000F900E900D900C900B9009990C910D912A
:1028C0000E900F911020C0F210400B900DF12C0EC5
:1028D0000A9A089010467146CDF81CE003F06AF998
:1028E0000A9906900846089903F020FA2020C0F2C1
:1028F00020400B900A9905900846079903F05AF971
:102900000A9904900846059903F010FA4020C0F295
:1029100040400B900A9903900846079903F04AF942
:102920000A9902900846039903F000FA0820C0F2C1
:1029300008400B900A9901900846079903F03AF96C
:102940000A9900900846019903F0F0F910B080BD93
:1029500080B584B00A4603468DF80F008DF80E103E
:102960009DF80F000146032802920193009168D858
:102970000099DFE801F0021C344C9DF80E0000289D
:102980000AD0FFE741F60000C4F201000221C0F2C4
:10299000024103F0CBF909E041F60000C4F2010066
:1029A0000221C0F2024103F031FAFFE74AE09DF84C
:1029B0000E00002809D0FFE741F60000C4F2010034
:1029C00040F2011103F0B2F908E041F60000C4F250
:1029D000010040F2011103F019FAFFE732E09DF81F
:1029E0000E00002809D0FFE741F20040C4F20100C8
:1029F00040F2022103F09AF908E041F20040C4F2EB
:102A0000010040F2022103F001FAFFE71AE09DF80D
:102A10000E0000280AD0FFE741F20040C4F2010096
:102A20000221C0F2024103F081F909E041F20040C5
:102A3000C4F201000221C0F2024103F0E7F9FFE70E
:102A400000E0FFE704B080BD80B590B041F6000023
:102A5000C4F2010001210A90099100F0C5FE0A9814
:102A6000099900F0C1FE41F20040C4F20100089053
:102A7000099900F0B9FE0898099900F0B5FE002008
:102A80000F900E900D900C900B9009980C900D905B
:102A900004210E910F900221C0F202410B910DF121
:102AA0002C0E0A9807917146CDF818E003F082F8D1
:102AB0000A9905900846079903F0A8F940F2011019
:102AC0000B900A9904900846069903F073F80A9946
:102AD00003900846049903F099F940F202200B9004
:102AE000089902900846069903F064F80899019045
:102AF0000846029903F08AF907980B9008980699FE
:102B000003F058F8089900900846079903F07EF9F9
:102B100010B080BD80B592B041F60000C4F2010053
:102B200001210C900B9100F05FFE40F60040C4F2D2
:102B300001000A900B9900F057FE41F20040C4F2E8
:102B4000010009900B9900F04FFE09980B9900F0D5
:102B50004BFE0020119010900F900E900D900B984E
:102B60000E900F900421109111900121C0F20141AB
:102B70000D910DF1340E0C9808917146CDF81CE0C2
:102B800003F018F80C9906900846089903F03EF9EE
:102B90000220C0F202400D900A990590084607995C
:102BA00003F008F80A9904900846059903F02EF9F5
:102BB00040F201100D90099903900846079902F020
:102BC000F9FF099902900846039903F01FF9089844
:102BD0000D900998079902F0EDFF099901900846B8
:102BE000089903F013F912B080BD000080B596B0CB
:102BF0004FF0804001210C900B9109F0FBF900206F
:102C00001590149013901290119010900F900E90B8
:102C10000D900C990A90084603F080FC4CF250315C
:102C2000139140F20001C2F2000109684DF6836E73
:102C3000C4F21B3EA1FB0E1E4FF0FF3202EB9E4280
:102C4000ADF844200A9A149212928DF854200DF196
:102C5000440E0C9B099018460891714604F064F8E4
:102C60000C990790084603F057FD0C980A9904F058
:102C700069F90C980A9904F0CBF90C9803F088FDD7
:102C80004FF480300E900A980F900D904FF4401141
:102C900010910DA90C980B9A06911146069A03F013
:102CA0007DFE10210C9A05901046069A03F076FEE0
:102CB0004FF480710C9A04901046069A03F06EFE51
:102CC0004FF480510C9A03901046069A03F066FE6A
:102CD000029004F093FD0A990A9A04F0BFFC1C21AB
:102CE00001900846019A0091114604F049FE0098AF
:102CF00004F00CFC0C9803F0D5FB0C9803F084FD59
:102D00000C9803F08DFD0C9803F096FD0C9803F0E1
:102D10009FFD0C9803F0A8FD0C9803F05DFD16B024
:102D200080BD000080B582B000208DF8070041F61C
:102D30000000C4F201000121C0F2014102F0A0FF35
:102D4000002807D1FFE79DF8070040F001008DF84B
:102D50000700FFE740F60040C4F201000221C0F284
:102D6000024102F08DFF002807D1FFE79DF8070020
:102D700040F002008DF80700FFE741F20040C4F286
:102D8000010040F2011102F07BFF002807D1FFE7AC
:102D90009DF8070040F004008DF80700FFE741F2BE
:102DA0000040C4F201000121C0F2014102F068FFBD
:102DB000002807D1FFE79DF8070040F008008DF8D4
:102DC0000700FFE79DF8070002B080BD80B586B020
:102DD00000208DF817004FF0804004F09DF8002887
:102DE00038D0FFE700208DF81700FFE79DF81700A7
:102DF00003282ADCFFE79DF8170040F6D061C2F2F5
:102E0000000151F8200041F2873188420CD8FFE7D9
:102E10009DF8170040F6D061C2F2000151F8202061
:102E2000013241F8202009E09DF8170040F6D061FA
:102E3000C2F20001002241F82020FFE7FFE79DF8E1
:102E4000170001308DF81700D0E74FF0804003F0F5
:102E50005BFB8EE04FF0804004F036F800281CD079
:102E6000FFE740F6D060C2F20000006840F6E06183
:102E7000C2F2000108604FF08040049003F01CFD96
:102E800040F66C61C2F20001086001200021FFF7EA
:102E900059FB049803F010FBFFE74FF0804004F06B
:102EA0001DF800281CD0FFE740F6D060C2F20000F9
:102EB000406840F6E061C2F2000148604FF0804097
:102EC000039003F001FD40F66C61C2F2000148601E
:102ED00010200121FFF736FB039803F0F7FAFFE714
:102EE0004FF0804004F004F800281DD0FFE740F6C2
:102EF000D060C2F20000806840F6E061C2F20001DA
:102F000088604FF08040029003F0E6FC40F66C6170
:102F1000C2F2000188604FF480700221FFF712FBBB
:102F2000029803F0DDFAFFE74FF0804003F0EAFF7C
:102F300000281DD0FFE740F6D060C2F20000C06854
:102F400040F6E061C2F20001C8604FF0804001909D
:102F500003F0CAFC40F66C61C2F20001C8604FF495
:102F600080500321FFF7EEFA019803F0C3FAFFE760
:102F7000FFE706B080BD000080B5FFF781FCFFF7DA
:102F8000C9FDFFF799FBFFF75FFDFFF72FFE80BD3F
:102F900080B588B0002007908DF81B00FFE79DF8F2
:102FA0001B00032800F3E181FFE79DF81B0040F6BA
:102FB0005E61C2F20001085C012840F0CF81FFE7AA
:102FC0009DF81B0040F60471C2F2000151F8200088
:102FD0009DF81B1040F67C62C2F2000252F82110EC
:102FE00088420AD2FFE79DF81B0040F60471C2F246
:102FF000000151F82000059009E09DF81B0040F603
:103000007C61C2F2000151F820000590FFE70598AD
:103010009DF81B1040F6A062C2F2000242F82100A7
:103020004FF0804003F038FC9DF81B1040F6B06272
:10303000C2F2000242F821009DF81B0040F6D06168
:10304000C2F2000151F82000002816D0FFE79DF8D9
:103050001B0040F6D061C2F2000151F820004CF292
:10306000503148439DF81B1040F6A062C2F20002A6
:1030700052F82110401A049010E09DF81B0040F611
:10308000B061C2F2000151F8201040F6A062C2F215
:10309000000252F82000081A0490FFE704980790F5
:1030A0009DF81B0040F61471C2F20001085C014655
:1030B0000428039100F248810399DFE811F005002C
:1030C00022003F00B00044019DF81B0040F614713F
:1030D000C2F2000101220A549DF81B0040F68C61E7
:1030E000C2F2000100220A549DF81B0040F6F06174
:1030F000C2F2000141F820209DF81B0000F0C8F941
:103100002BE19DF81B0040F66261C2F20001002233
:1031100021F810209DF81B0040F61471C2F2000146
:1031200002230B549DF81B0011460292FFF728FB67
:103130009DF81B000299FFF70BFC0EE19DF81B00A8
:1031400040F68C61C2F20001085C00F00300022826
:1031500041D1FFE79DF81B00FEF7FCFF9DF81BE047
:1031600040F6F061C2F2000141F82E009DF81B000C
:1031700040F68C6EC2F2000E00220EF800209DF880
:103180001B0051F82000B0F5BE7F1AD3FFE79DF871
:103190001B0040F6F061C2F2000151F82000B0F5CA
:1031A0001B7F0ED8FFE79DF81B0040F61471C2F29A
:1031B000000103220A549DF81B000121FEF7B8FF0D
:1031C00008E09DF81B0040F61471C2F200010122D4
:1031D0000A54FFE722E09DF81B0040F6F061C2F2BE
:1031E000000151F82000002817D0FFE707989DF84C
:1031F0001B1040F6F062C2F2000252F821102322A6
:103200005143884209D9FFE79DF81B0040F614712D
:10321000C2F2000100220A54FFE7FFE79DE09DF89B
:103220001B0040F68C61C2F20001085C00F0030054
:10323000012864D1FFE79DF81B00FFF787F89DF890
:103240001BE040F6F061C2F2000141F82E009DF84B
:103250001B0040F68C6EC2F2000E00220EF8002019
:103260009DF81B0051F82000B0F5BE7F3DD3FFE76D
:103270009DF81B0040F6F061C2F2000151F82000F9
:10328000B0F51B7F31D8FFE79DF81B0040F61471A5
:10329000C2F2000102220A549DF81B000021FEF731
:1032A00047FF9DF81B0040F66261C2F2000131F851
:1032B00010004F280CDCFFE79DF81B0040F6626110
:1032C000C2F2000131F81020013221F810200BE089
:1032D0009DF81B0001210191FFF752FA9DF81B0098
:1032E0000199FFF735FBFFE708E09DF81B0040F66A
:1032F0001471C2F2000101220A54FFE722E09DF896
:103300001B0040F6F061C2F2000151F820000028D5
:1033100017D0FFE707989DF81B1040F6F062C2F245
:10332000000252F8211023225143884209D9FFE7B5
:103330009DF81B0040F61471C2F2000100220A54ED
:10334000FFE7FFE709E0FFE79DF81B0040F6147177
:10335000C2F2000100220A54FFE7FFE7FFE79DF8F1
:103360001B0001308DF81B0019E608B080BD00007D
:1033700080B586B040F60040C4F201001021C0F2D2
:103380001041059002F0D2FC2021C0F220410598A6
:1033900002F0CCFC4021C0F24041059802F0C6FC8E
:1033A0000821C0F20841059802F0C0FC41F6000077
:1033B000C4F201000221C0F202410490039102F024
:1033C00025FD40F20111049802F020FD41F2004079
:1033D000C4F2010040F20221029002F017FD0298AF
:1033E000039902F013FD4FF08040019003F0A0F923
:1033F000019803F089F8019803F05EF8019803F052
:1034000065F8019803F06CF8019803F073F8002157
:10341000019803F0BBFD019803F0DEF906B080BD12
:1034200080B582B04FF0804003F082F940F6004052
:10343000C4F201001021C0F21041019002F076FCAC
:103440002021C0F22041019802F070FC4021C0F21E
:103450004041019802F06AFC0821C0F2084101983D
:1034600002F064FC02B080BD80B582B0FFF75AFC68
:103470008DF807009DF80700002805D0FFE7FFF74B
:1034800051FC8DF80700FFE79DF8070002B080BDF2
:1034900080B584B001468DF80F009DF80F000246FC
:1034A00003280291019222D80199DFE801F0020974
:1034B00010184FF080400121002203F07DFB17E03F
:1034C0004FF080401021002203F076FB10E04FF017
:1034D00080404FF48071002203F06EFB08E04FF053
:1034E00080404FF48051002203F066FB00E0FFE7CC
:1034F00004B080BD80B582B0014601900198009172
:1035000000F04CF802B080BD80B582B00146019059
:103510000198009100F01EF802B080BD80B584B023
:103520000146039003980028029110D0FFE7FFE7BF
:103530000398411E0391002808D0FFE74FF47A70EA
:1035400000F008F800F094FE0190F1E7FFE704B006
:1035500080BD000080B584B0014603900398002828
:10356000029105D0FFE7039808F02AFA0190FFE7DF
:1035700004B080BD80B582B00146019001980091F1
:10358000FFF7B8FF02B080BD80B582B00146019060
:1035900001980091FFF7B8FF02B080BD80B584B0FC
:1035A000014603900398002802910FD0FFE708F02E
:1035B000E3F9002805D1FFE7039808F0E1F901904D
:1035C00003E00398FFF7AAFFFFE7FFE704B080BD21
:1035D00086B00A4603460590ADF812100020ADF8FB
:1035E0001000ADF80E00BDF812100139ADF80C1046
:1035F000ADF8100001920093FFE7BDF81000BDF890
:103600000C1088423FDAFFE70020ADF80E00FFE71C
:10361000BDF80E00BDF80C10BDF81020891A8842C4
:103620002ADAFFE70598BDF80E1000EB410230F8EA
:1036300011005188884218DAFFE70598BDF80E108E
:1036400000EB41004088ADF80A000598BDF80E1067
:1036500000EB410230F811005080BDF80A000599D6
:10366000BDF80E2021F81200FFE7FFE7BDF80E00BD
:103670000130ADF80E00CBE7FFE7BDF810000130D8
:10368000ADF81000B9E7002006B0704780B500F033
:1036900005F880BD80B5FFF7F9FF80BD80B540F625
:1036A000F071C2F200014FF60000C0F60F004FF4B7
:1036B000806200F017F880BD80B586B013468C4656
:1036C000864605900491ADF80E2005980499BDF842
:1036D0000E200293CDF804C0CDF800E000F018F8F9
:1036E00006B080BD80B586B013468C4686460590F0
:1036F0000491ADF80E2005980499BDF80E200293B0
:10370000CDF804C0CDF800E0FFF7D6FF06B080BDCD
:1037100080B586B013468C46864605900491ADF878
:103720000E200020ADF80C000293CDF804C0CDF8B7
:1037300000E0FFE7BDF80C00BDF80E10884213DA78
:10374000FFE7059802F0ACF9DDF810E0BDF80C10C9
:103750002EF81100059802300590FFE7BDF80C0027
:103760000130ADF80C00E5E706B080BD80B500F093
:1037700005F880BD80B5FFF7F9FF80BD80B584B046
:1037800002F07CF802F01AF9039002F0F5F80290CA
:1037900002F00CF98DF807000298A5280DD1FFE77B
:1037A00002F096F902F06CF9002002F017F900908F
:1037B00002F00AF902F0CAF8FFE704B080BD000089
:1037C00080B584B00A46034603908DF80B10039829
:1037D0009DF80B100192009300F01AF804B080BD20
:1037E00080B500F0BDF880BD80B584B00A460346C0
:1037F00003908DF80B1003989DF80B100192009325
:10380000FFF7DEFF04B080BD80B5FFF7E9FF80BDA4
:1038100080B584B00A46034603908DF80B100398D8
:1038200040F60001C4F201018842019200930ED1DA
:10383000FFE79DF80B00002804D0FFE7042001F00B
:103840001FFC03E0042001F0D7FBFFE785E00398AD
:1038500040F60041C4F2010188420ED1FFE79DF815
:103860000B00002804D0FFE7082001F009FC03E06A
:10387000082001F0C1FBFFE76FE0039841F200016F
:10388000C4F2010188420ED1FFE79DF80B00002829
:1038900004D0FFE7102001F0F3FB03E0102001F05B
:1038A000ABFBFFE759E0039841F20041C4F201018C
:1038B00088420ED1FFE79DF80B00002804D0FFE7F7
:1038C000202001F0DDFB03E0202001F095FBFFE765
:1038D00043E0039841F60001C4F2010188420ED191
:1038E000FFE79DF80B00002804D0FFE7402001F01F
:1038F000C7FB03E0402001F07FFBFFE72DE00398CA
:1039000041F60041C4F2010188420ED1FFE79DF863
:103910000B00002804D0FFE7802001F0B1FB03E09A
:10392000802001F069FBFFE717E0039842F20001F5
:10393000C4F20101884210D1FFE79DF80B00002876
:1039400005D0FFE74FF4807001F09AFB04E04FF4DC
:10395000807001F051FBFFE7FFE704B080BD00007D
:1039600080B582B040F60000C4F20100012101914F
:10397000FFF74EFF40F60040C4F201000199FFF747
:1039800047FF41F20000C4F201000199FFF740FF38
:1039900041F20040C4F201000199FFF739FF41F6FE
:1039A0000000C4F201000199FFF732FF41F6004028
:1039B000C4F201000199FFF72BFF42F20000C4F2AC
:1039C00001000199FFF724FF019801F059FB02F073
:1039D000D9F802F0E3F802B080BD000040F23800F0
:1039E000C2F20000006841F6EC51C2F200010A6820
:1039F0001044086070470000FFE7FEE780B584B020
:103A00000A4603460390029103980299019200939B
:103A100000F0FAF804B080BD80B582B00146019094
:103A20000198009100F072F902B080BD80B582B0BB
:103A3000014601900198009100F0E6F902B080BDC6
:103A400080B586B00A46034605908DF81310059898
:103A50000392029300F014FA9DF8131000290190CC
:103A600006D0FFE70598C18A01F0FE01C18205E09A
:103A70000598C18A41F00101C182FFE70598817D67
:103A800000F000FB05990090084600F03FF906B0F1
:103A900080BD000080B582B0014601900198009180
:103AA00000F040FA02B080BD80B584B00A460346FB
:103AB00003908DF80B1003989DF80B100192009362
:103AC00000F07AFA04B080BD80B584B00A4603469F
:103AD00003908DF80B1003989DF80B100192009342
:103AE00000F0D0FA04B080BD82B001460190012000
:103AF000009102B07047000080B584B00A460346CA
:103B0000039002910398029901920093FFF776FFC8
:103B100004B080BD80B582B001460190019800914B
:103B2000FFF77AFF02B080BD80B582B001460190F8
:103B300001980091FFF77AFF02B080BD80B584B094
:103B40000A46034603908DF80B1003989DF80B105E
:103B500001920093FFF774FF04B080BD80B582B07E
:103B60000146019001980091FFF794FF02B080BDDB
:103B700080B584B00A46034603908DF80B10039875
:103B80009DF80B1001920093FFF78EFF04B080BDEB
:103B900080B584B00A46034603908DF80B10039855
:103BA0009DF80B1001920093FFF78EFF04B080BDCB
:103BB00080B586B0014605900598C26800690490FA
:103BC0001046049A0391114602F0BEF80598416828
:103BD000806802900846029902F026F90598C069AB
:103BE000002805D0FFE70598C169407D8847FFE7B9
:103BF00005984168806801900846019902F0A4F890
:103C0000002006B080BD000080B590B00A46034693
:103C10000F900E910F98406801210891079206932A
:103C2000FFF7E2FD0F98C0680899FFF7DDFD0F98D8
:103C30004168806805900846059902F0F5F80F98EC
:103C4000C168006904900846049902F0EDF800206C
:103C50000D900C900B900A9009900F988068099035
:103C600008980A9002210B9104210C910D900F9954
:103C7000486809A9039101F09DFF0F99096909910D
:103C80000F99C96802900846039901F093FF0E99B5
:103C90000029019004D0FFE70E980F99C86106E053
:103CA0000F9843F28951C0F60001C161FFE700207F
:103CB00010B080BD80B586B0014605900598C268F9
:103CC000006904901046049A0391114602F0ACF882
:103CD00005984168806802900846029902F0A4F8AD
:103CE0000598C069002805D0FFE70598C169407DA7
:103CF0008847FFE705984168806801900846019968
:103D000002F022F8002006B080BD000080B588B027
:103D10000146079000208DF81B000798C2680069D3
:103D200005901046059A0491114602F07DF8079817
:103D30004168806803900846039902F075F8079877
:103D4000C069002805D0FFE70798C169407D884712
:103D5000FFE70798C168006902900846029901F0E0
:103D6000A1FF002804D0FFE701208DF81B00FFE72A
:103D700007984168806801900846019901F0E4FFC6
:103D80009DF81B0008B080BD80B586B00146059047
:103D900000208DF813000598426880680390104653
:103DA000039A0291114602F03FF80598C069002875
:103DB00005D0FFE70598C169407D8847FFE7059872
:103DC000C168006901900846019901F06BFF002865
:103DD00004D0FFE701208DF81300FFE70598416844
:103DE000806800900846009901F0AEFF0598C06910
:103DF000002805D0FFE70598C169407D8847FFE7A7
:103E00009DF8130006B080BD80B586B001460590D0
:103E100000208DF813008DF81200059AD3681269FE
:103E2000039018460291114601F0FEFF0598416883
:103E3000806801900846019901F086FF03988DF88B
:103E40001300FFE79DF81300072815DCFFE79DF836
:103E5000120040008DF812000598FFF795FF9DF8BD
:103E600012E040EA0E008DF81200FFE79DF8130003
:103E700001308DF81300E5E79DF8120006B080BD13
:103E800080B588B0014606900698C2680069059022
:103E90001046059A0491114601F0C6FF0698416844
:103EA000806803900846039901F0BEFF0698C06938
:103EB000002805D0FFE70698C169407D8847FFE7E5
:103EC0000698C168006902900846029901F03CFF1B
:103ED0000698C069002805D0FFE70698C169407DB3
:103EE0008847FFE706984168806801900846019975
:103EF00001F02AFF0698C168006900900846009901
:103F000001F0D0FE002804D0FFE701208DF81F004B
:103F100003E000208DF81F00FFE79DF81F0008B0A8
:103F200080BD000080B588B0014606900698C26842
:103F3000006905901046059A0491114601F004FFAE
:103F400006984168806803900846039901F06CFF69
:103F50000698C069002805D0FFE70698C169407D32
:103F60008847FFE70698C1680069029008460299F1
:103F700001F05AFF0698C069002805D0FFE70698AF
:103F8000C169407D8847FFE70698C16800690190D4
:103F90000846019901F086FE002804D1FFE70120C0
:103FA0008DF81F0003E000208DF81F00FFE79DF84B
:103FB0001F0008B080BD000080B586B00A460346E9
:103FC00004908DF80F109DF80F00002802920193C5
:103FD00006D0FFE70498FFF76DFE8DF8170005E0A7
:103FE0000498FFF7E5FD8DF81700FFE79DF817002F
:103FF00006B080BD80B588B00A46034607908DF8AC
:104000001B109DF81B00000600280592049309D59B
:10401000FFE70798C168006903900846039901F01B
:1040200003FF08E00798C1680069029008460299FA
:1040300001F08AFEFFE70798416880680190084612
:10404000019901F0F1FE0798C069002805D0FFE74B
:104050000798C169407D8847FFE7079841688068F5
:1040600000900846009901F06FFE0798C06900288B
:1040700005D0FFE70798C169407D8847FFE700202A
:1040800008B080BD80B586B00A46034605908DF81D
:10409000131000208DF812000599D1F804C089682A
:1040A000039060460292019301F04EFE03988DF852
:1040B0001200FFE79DF81200072812DCFFE70598C1
:1040C0009DF81310FFF796FF9DF8131049008DF827
:1040D00013100090FFE79DF8120001308DF81200D8
:1040E000E8E7002006B080BD80B584B00A460346EC
:1040F000039002910398016A21F001010162039883
:10410000806920F0FF000299D1F804C0D1F808E0DE
:10411000C96841EA0C0141EA0E0140EA11400399E5
:1041200088610398006A20F00A0002990968084330
:1041300040F001000399086201200192009304B04D
:1041400080BD000080B584B00A460346039002910A
:104150000398016A21F0100101620398806920F43C
:104160007F400299D1F804C0D1F808E0C96841EA5B
:104170000C0141EA0E0140EA11200399886103987D
:10418000006A20F0A0000299096840EA011040F09E
:1041900010000399086201200192009304B080BDD1
:1041A00080B584B00A460346039002910398016AE1
:1041B00021F4807101620398C06920F0FF00029928
:1041C000D1F804C0D1F808E0C96841EA0C0141EA1D
:1041D0000E0140EA11400399C8610398006A20F477
:1041E00030600299096840EA012040F48070039928
:1041F000086201200192009304B080BD80B584B0B4
:104200000A460346039002910398016A21F4805103
:1042100001620398C06920F47F400299D1F804C07C
:10422000D1F808E0C96841EA0C0141EA0E0140EA10
:1042300011200399C8610398006A20F44050029944
:10424000096840EA013040F4805003990862012077
:104250000192009304B080BD80B500F00DF880BDE0
:1042600080B500F039F880BD80B5FFF7F5FF80BD5F
:1042700080B5FFF7F5FF80BD80B582B00AF074FB12
:1042800043F2000EC4F2000E7046CDF804E001F0D7
:1042900013FF019801F01EFF0421019801F044FF73
:1042A00040F27121019801F04DFFFFE743F2000059
:1042B000C4F2000001F01CFF012801D0FFE7F5E780
:1042C00043F20000C4F2000001F020FF0AF04EFBB0
:1042D000002002B080BD000080B543F20000C4F2AF
:1042E000000001F013FF002080BD000080B582B007
:1042F00001468DF807009DF80700009100F076F860
:1043000002B080BD80B582B001468DF807009DF8EF
:104310000700009100F08CF802B080BD80B582B03B
:1043200001468DF807009DF80700009100F0A0F805
:1043300002B080BD80B582B001468DF807009DF8BF
:104340000700009100F0B4F802B080BD80B500F025
:104350009DF980BD80B500F0D3F980BD80B500F037
:1043600045FA80BD80B500F0AFFA80BD80B582B05F
:1043700001468DF807009DF807000091FFF7B6FF92
:1043800002B080BD80B582B001468DF807009DF86F
:1043900007000091FFF7B6FF02B080BD80B582B084
:1043A00001468DF807009DF807000091FFF7B6FF62
:1043B00002B080BD80B582B001468DF807009DF83F
:1043C00007000091FFF7B6FF02B080BD80B5FFF790
:1043D000BDFF80BD80B5FFF7BDFF80BD80B5FFF795
:1043E000BDFF80BD80B5FFF7BDFF80BD80B582B049
:1043F00001468DF807009DF80700002800910AD1BA
:10440000FFE741F60000C4F201000221C0F20241C0
:1044100001F0A8FC09E041F60000C4F2010002210D
:10442000C0F2024101F00EFDFFE702B080BD0000C6
:1044300080B582B001468DF807009DF8070000287E
:10444000009109D1FFE741F60000C4F2010040F2FB
:10445000011101F087FC08E041F60000C4F2010000
:1044600040F2011101F0EEFCFFE702B080BD000058
:1044700080B582B001468DF807009DF8070000283E
:10448000009109D1FFE741F20040C4F2010040F27F
:10449000022101F067FC08E041F20040C4F2010093
:1044A00040F2022101F0CEFCFFE702B080BD000027
:1044B00080B582B001468DF807009DF807000028FE
:1044C00000910AD1FFE741F20040C4F2010002214D
:1044D000C0F2024101F046FC09E041F20040C4F2A2
:1044E00001000221C0F2024101F0ACFCFFE702B082
:1044F00080BD000080B590B041F60000C4F201001C
:1045000001210A900991FFF76FF90A980999FFF7BD
:104510006BF941F20040C4F2010008900999FFF7DD
:1045200063F908980999FFF75FF900200F900E9042
:104530000D900C900B9009980C900D9004210E9109
:104540000F900221C0F202410B910DF12C0E0A983E
:1045500007917146CDF818E001F02CFB0A990590FF
:104560000846079901F06EFC40F201100B900A9981
:1045700004900846069901F01DFB0A99039008462D
:10458000049901F05FFC40F202200B900899029020
:104590000846069901F00EFB089901900846029919
:1045A00001F050FC07980B900898069901F002FB67
:1045B000089900900846079901F044FC10B080BDAE
:1045C00080B590B041F60000C4F2010001210A90CC
:1045D0000991FFF709F90A980999FFF705F941F2DE
:1045E0000040C4F2010008900999FFF7FDF808980F
:1045F0000999FFF7F9F800200F900E900D900C909C
:104600000B9009980C900D9004210E910F900421AD
:10461000C0F204410B910DF12C0E0A9807917146DE
:10462000CDF818E001F0C6FA0A99059008460799F6
:1046300001F008FC40F202200B900A990490084611
:10464000069901F0B7FA0A9903900846049901F017
:10465000F9FB40F204400B90089902900846069935
:1046600001F0A8FA089901900846029901F0EAFBC6
:1046700007980B900898069901F09CFA0899009009
:104680000846079901F0DEFB10B080BD80B586B00A
:1046900041F60000C4F201000421C0F2044105907B
:1046A000049101F0CFFB40F20220059903900846E7
:1046B000039901F0C7FB41F20040C4F2010040F24F
:1046C0000441029001F0BEFB0298049901F0BAFB8C
:1046D0000220C0F20240059901900846019901F0BC
:1046E000B1FB40F20111059801F0ACFB029803996F
:1046F00001F0A8FB0298019901F0A4FB06B080BD6F
:1047000080B584B041F60000C4F201000421C0F27B
:1047100004410390029101F025FB40F2022103982D
:1047200001F020FB41F20040C4F2010040F20441DC
:10473000019001F017FB0198029901F013FB04B0FE
:1047400080BD000080B582B000208DF8070041F6E2
:104750000000C4F201000821C0F2084101F0B4FADF
:10476000002807D1FFE79DF8070040F001008DF811
:104770000700FFE741F60000C4F2010040F20441E7
:1047800001F0A2FA002807D1FFE79DF8070040F0EA
:1047900002008DF80700FFE741F20040C4F201007B
:1047A00040F6080101F090FA002807D1FFE79DF8D4
:1047B000070040F004008DF80700FFE741F20040D9
:1047C000C4F201000821C0F2084101F07DFA00287E
:1047D00007D1FFE79DF8070040F008008DF80700BB
:1047E000FFE79DF8070002B080BD000080B5FFF72D
:1047F00081FE00F003F8FFF7E3FE80BD80B590B0C6
:1048000041F60000C4F2010001210A900991FEF76F
:10481000EBFF0A980999FEF7E7FF41F20040C4F266
:10482000010008900999FEF7DFFF08980999FEF743
:10483000DBFF00200F900E900D900C900B900998CC
:104840000C900D9004210E910F900821C0F20841A8
:104850000B910DF12C0E0A9807917146CDF818E0D6
:1048600001F0A8F90A9905900846079901F0EAFABB
:1048700040F204400B900A9904900846069901F012
:1048800099F90A9903900846049901F0DBFA40F679
:1048900008000B90089902900846069901F08AF9E1
:1048A000089901900846029901F0CCFA07980B90FC
:1048B0000898069901F07EF9089900900846079932
:1048C00001F0C0FA10B080BD80B582B0FFF73AFFAA
:1048D0008DF807009DF80700002805D0FFE7FFF7D7
:1048E00031FF8DF80700FFE79DF8070002B080BD9B
:1048F00080B58AB040F60000C4F2010001210490A6
:104900000391FEF771FF0020099008900790069030
:1049100005900821C0F208410591DDF80CE0CDF8C2
:1049200018E0032207920890099005A8049A0290C3
:104930001046029B0191194601F03CF90499009040
:104940000846019901F01CFA0AB080BD80B500F05C
:1049500059F880BD80B5FFF7F9FF80BD80B58CB0F8
:1049600040F60040C4F20100012106900591FEF7D7
:104970003BFF00200B900A900990089007900421BB
:10498000C0F204410791DDF814E0CDF820E00222E6
:1049900009920A900B9007A8069A04901046049B6F
:1049A0000391194601F006F9069902900846039909
:1049B00001F0E6F944F6C910C0F6000006F0EAFF7F
:1049C00001900CB080BD000080B540F24000C2F202
:1049D00000000168013101600068B0F5FA7F10D96C
:1049E000FFE740F24000C2F200000021016040F603
:1049F0000040C4F201000421C0F2044101F04CFB6C
:104A0000FFE780BD80B5FFF7A9FFFFF771FF80BD0D
:104A100080B588B00A4603460790069101200590AC
:104A2000079842F20041C4F20101884204920393C4
:104A300014D1FFE742F20040C4F2010000F012F985
:104A400042F6000EC4F2010E0290704600F00AF920
:104A5000DDF808E040EA0E00019007E043F6004070
:104A6000C4F2010000F0FEF80190FFE70198002871
:104A700017D1FFE70698006800280AD0FFE70798DB
:104A8000406820F470200699096808430799486037
:104A900006E00798406820F4702007994860FFE717
:104AA00002E000200590FFE7059808B080BD0000F7
:104AB00080B584B0014603900120029003980191D3
:104AC00000F0D0F801280ED1FFE703984FF46021E1
:104AD00000F064F903984FF4E04100F07DF803988A
:104AE00000F056F8FFE703988068C00700284CD113
:104AF000FFE70398016821F01F01016003984168F6
:104B00000022CFF63072114041600398816840F274
:104B1000F062CFF60172114081600398C16801F024
:104B20007F41C1600398016901F040410161039830
:104B3000416940F6FF7291434161039881696FF3C7
:104B40000B0181610398C1696FF30B01C161039887
:104B5000016A6FF30B0101620398416A11434162DC
:104B60000398816A6FF30B0181620398C16A01F0B7
:104B70007F41C1620398016B01F0404101630398DA
:104B8000816B6FF315018163FFE7029804B080BD6C
:104B900082B0014601900198826822F00102826091
:104BA000009102B07047000082B001460190019868
:104BB000826822F001028260009102B0704700001A
:104BC00082B0014601900198826842F00102826041
:104BD000009102B07047000084B00A46034603907B
:104BE0000291039880680299090B61F30E300399D2
:104BF00088600192009304B07047000080B586B0D1
:104C00000A460346059004910120039005980292FC
:104C1000019300F027F8002813D1FFE705984068BA
:104C200020F4807004994968084305994860059804
:104C3000806820F400600499096808430599886039
:104C400002E000200390FFE7039806B080BD00005B
:104C500082B00146019001988068C0F38000009105
:104C600002B0704782B0014601900198806800F060
:104C70000100009102B0704780B586B00A46034635
:104C80000590049101200390049840680028029246
:104C9000019301D0FFE7FFE70598FFF7E3FF002846
:104CA00031D1FFE70498406800280CD0FFE7059851
:104CB000406820F4684004994A68896811430843B1
:104CC0000599486009E00598406820F46840049917
:104CD0004968084305994860FFE7059880684FF6E2
:104CE000FD61CFF6F171084004990A68CB68096943
:104CF0001A43114308430599886005980499496847
:104D000000F008F802E000200390FFE7039806B0E7
:104D100080BD000084B00A460346039002910398C8
:104D2000C06A20F47000029908430399C862019296
:104D3000009304B07047000010B589B013468C464C
:104D400086460690059104920698059901F44071F3
:104D50004FF440720892089A92FAA2F20792079AC8
:104D6000B2FA82F2D14000EB81002C30039003981C
:104D70000168059A02F01F021F249440A143049C7D
:104D800004F01F0404FA02F2114301600293CDF80B
:104D900004C0CDF800E009B010BD000084B00A46A0
:104DA000034603900291039880680299490C61F3CD
:104DB0005340039988600192009304B0704700004B
:104DC00082B0014601900198826842F4A00282609C
:104DD000009102B07047000010B58DB013468C46AC
:104DE00086460690059104920698059901F0007197
:104DF0004FF000720892089A92FAA2F20792079A6C
:104E0000B2FA82F2D14000EB81000C30039003989B
:104E10000068059901F0F8714FF0F8720A920A9C47
:104E200094FAA4F40994099CB4FA84F4E1400724A8
:104E300004FA01F188430499059C04F0F8740C927B
:104E40000C9A92FAA2F20B920B9AB2FA82F224FA1C
:104E500002F291400843039908600293CDF804C020
:104E6000CDF800E00DB010BD82B001460190019870
:104E7000826842F004028260009102B07047000034
:104E800084B001460390039841F21402C4F2020276
:104E90001368184310601068039A1040029002983B
:104EA0000191009004B0704784B0014603900398CC
:104EB00041F21402C4F20202136818431060106831
:104EC000039A1040029002980191009004B070473C
:104ED00082B001460190019841F21C02C4F2020224
:104EE000136823EA00001060009102B070470000D0
:104EF00082B001460190019841F21C02C4F2020204
:104F0000136823EA00001060009102B070470000AF
:104F100084B001460390039841F21C02C4F20202DD
:104F20001368184310601068039A104002900298AA
:104F30000191009004B0704784B00146039003983B
:104F400041F21C02C4F20202136818431060106898
:104F5000039A1040029002980191009004B07047AB
:104F600082B001460190019841F21002C4F202029F
:104F7000136818431060009102B0704782B0014678
:104F80000190019841F21002C4F202021368184322
:104F90001060009102B0704782B001460190019804
:104FA00041F21002C4F20202136823EA000010600A
:104FB000009102B07047000082B001460190019854
:104FC00041F21002C4F20202136823EA00001060EA
:104FD000009102B07047000082B001460190019834
:104FE00041F21802C4F20202136823EA00001060C2
:104FF000009102B07047000082B001460190019814
:1050000041F21802C4F20202136823EA00001060A1
:10501000009102B07047000082B0014601900198F3
:1050200041F21802C4F20202136823EA0000106081
:10503000009102B07047000082B0014601900198D3
:1050400041F21802C4F20202136823EA0000106061
:10505000009102B07047000084B0014603900398AD
:1050600041F21802C4F2020213681843106010687B
:10507000039A1040029002980191009004B070478A
:1050800084B001460390039841F21802C4F2020270
:105090001368184310601068039A10400290029839
:1050A0000191009004B0704784B0014603900398CA
:1050B00041F21802C4F2020213681843106010682B
:1050C000039A1040029002980191009004B070473A
:1050D00084B001460390039841F21802C4F2020220
:1050E0001368184310601068039A104002900298E9
:1050F0000191009004B0704782B001460190019880
:1051000041F20C02C4F202021368184310600091CD
:1051100002B0704782B001460190019841F20C0242
:10512000C4F20202136818431060009102B0704785
:1051300082B001460190019841F20C02C4F20202D1
:10514000136823EA00001060009102B0704700006D
:1051500082B001460190019841F20C02C4F20202B1
:10516000136823EA00001060009102B0704700004D
:1051700080B584B00146039001200290039843F269
:105180000002C4F202029042019108D1FFE70398A5
:1051900000F020F80398002100F030F802E0002031
:1051A0000290FFE7029804B080BD000084B00A4678
:1051B00003460390029102980399086001920093BC
:1051C00004B0704782B001460190019800680091D8
:1051D00002B0704782B001460190019801228260BE
:1051E000009102B07047000082B001460190019822
:1051F00001228260009102B07047000084B00A462C
:10520000034603900291029803990871019200935A
:1052100004B0704782B001460190019801224260BB
:10522000009102B07047000082B0014601900198E1
:1052300001224260009102B07047000082B0014636
:105240000190019810224260009102B07047000066
:1052500082B00146019001984FF480724260009143
:1052600002B0704782B00146019001984FF480521D
:105270004260009102B0704782B0014601900198EF
:105280004FF480324260009102B0704782B0014614
:10529000019001984FF480324260009102B0704753
:1052A00082B00146019001984FF480124260009153
:1052B00002B0704782B00146019001984FF08072B1
:1052C0004260009102B0704782B00146019001989F
:1052D00004224260009102B07047000082B0014693
:1052E000019001984FF480224260009102B0704713
:1052F00082B001460190019802224260009102B002
:105300007047000082B00146019001984FF40032CE
:105310004260009102B0704780B586B013468C465B
:105320008646059004910392059804994FF25B32EA
:10533000C0F60002114411F8011C405804991144B0
:1053400047F6F0729043039A1043059A11F8011C36
:1053500050500293CDF804C0CDF800E006B080BDF7
:1053600080B592B00A460346119010910820C4F20D
:1053700002000F9001200E9011980021C4F202014A
:1053800088420D920C9309D1FFE71098012805D1AE
:10539000FFE70820C4F202000B90D0E0119840F221
:1053A0000041C4F2020188420AD1FFE710980128A7
:1053B00006D1FFE740F20840C4F202000A90BBE0C9
:1053C00011980021C4F20201884209D1FFE7109828
:1053D000022805D1FFE71C20C4F202000990A8E0D2
:1053E000119840F20041C4F2020188420AD1FFE75D
:1053F0001098022806D1FFE740F21C40C4F20200D8
:10540000089093E011980021C4F20201884209D16A
:10541000FFE71098032805D1FFE73020C4F202000F
:10542000079080E0119840F20041C4F202018842E6
:105430000AD1FFE71098032806D1FFE740F2304079
:10544000C4F2020006906BE011980021C4F2020140
:10545000884209D1FFE71098042805D1FFE74420CE
:10546000C4F20200059058E0119840F20041C4F2E5
:10547000020188420AD1FFE71098042806D1FFE70D
:1054800040F24440C4F20200049043E0119800212D
:10549000C4F20201884209D1FFE71098052805D11E
:1054A000FFE75820C4F20200039030E0119840F268
:1054B0000041C4F2020188420AD1FFE71098052892
:1054C00006D1FFE740F25840C4F2020002901BE010
:1054D000119800210022C4F202029042019107D1EA
:1054E000FFE710980638B0FA80F040090190FFE716
:1054F0000198C0078021C4F2020100281CBF6C2162
:10550000C4F202010291FFE702980390FFE70398BB
:105510000490FFE704980590FFE705980690FFE7E1
:1055200006980790FFE707980890FFE7089809900A
:10553000FFE709980A90FFE70A980B90FFE70B989E
:105540000F900F98016821F0010101600F98002170
:1055500001600F9841600F9881600F98C1601098AA
:10556000012804D1FFE71198FFF754FE38E01098A6
:10557000022804D1FFE71198FFF760FE2FE0109892
:10558000032804D1FFE71198FFF762FE26E0109888
:10559000042804D1FFE71198FFF764FE1DE010987E
:1055A000052804D1FFE71198FFF766FE14E0109874
:1055B000062804D1FFE71198FFF772FE0BE0109860
:1055C000072804D1FFE71198FFF774FE02E00020DE
:1055D0000E90FFE7FFE7FFE7FFE7FFE7FFE7FFE7E3
:1055E0000E9812B080BD000084B00A4603460390B6
:1055F0000291039802994FF2623CC0F6000C61449C
:1056000011F8011C50F801C02CF0010C40F801C049
:105610000192009304B0704784B00A460346039099
:105620000291039802994FF2623CC0F6000C61446B
:1056300011F8011C50F801C04CF0010C40F801C0F9
:105640000192009304B0704784B00A460346039069
:105650000291039802994FF2623CC0F6000C61443B
:1056600011F8011C50F801C04CF0020C40F801C0C8
:105670000192009304B07047F0B587B013468C4692
:10568000864606900591049206980599049A9468B6
:10569000D568166957692C4334433C4395692C43BC
:1056A000D5692C43526A22430393CDF808C0CDF844
:1056B00004E0FFF731FE06980599049A526800F05D
:1056C00085F806980599049A126800F09BF80698E8
:1056D0000599049A126A00F02DF8012007B0F0BD78
:1056E00082B00146019001980068C0F3400000912B
:1056F00002B0704782B00146019001980068C0F383
:105700004040009102B0704784B00A4603460390BF
:105710000291039802994FF2543CC0F6000C614488
:1057200011F8011C4058C0F340000192009304B0EE
:105730007047000080B586B013468C4686460590BB
:1057400004910392059804994FF25B32C0F600026F
:10575000114411F8011C08444068049911444FF6A3
:10576000FF729043039A1043059A11F8011C1144EB
:1057700048600293CDF804C0CDF800E006B080BDCB
:1057800080B586B013468C468646059004910392F8
:10579000059804994FF26232C0F60002114411F8E4
:1057A000011C08444068049911444FF6FF7290436D
:1057B000039A1043059A11F8011C114448600293A2
:1057C000CDF804C0CDF800E006B080BD10B586B0BD
:1057D00013468C46864605900491039203980599DA
:1057E000049A4FF25B34C0F60004224412F8012CF4
:1057F0001144C8600293CDF804C0CDF800E006B0B3
:1058000010BD000010B586B013468C468646059044
:105810000491039203980599049A4FF25B34C0F601
:105820000004224412F8012C114488600293CDF840
:1058300004C0CDF800E006B010BD000082B0014603
:105840000190019840F21442C4F2010210600091EC
:1058500002B0704742F20000C4F20200016821F475
:10586000806101607047000042F20000C4F2020053
:10587000016821F0100101607047000042F2000051
:10588000C4F20200016821F01001016070470000BD
:1058900042F20000C4F20200016841F4806101603C
:1058A0007047000042F20000C4F20200016841F4B7
:1058B000007101607047000042F20000C4F2020073
:1058C000016841F0100101607047000042F20000E1
:1058D000C4F20200016841F010010160704700004D
:1058E00082B042F20C00C4F20200006800900098FE
:1058F000C007002804D0FFE701208DF8070019E059
:105900009DF800004007002804D5FFE702208DF82D
:1059100007000FE09DF80000C006002804D5FFE74F
:1059200003208DF8070005E0FFE7FFE700208DF872
:105930000700FFE79DF8070002B0704742F2000041
:10594000C4F20200006800F00700704780B542F220
:105950001000C4F20200016841F08001016042F2CF
:105960005000C4F20200016841F080010160FFF7BD
:105970008FFFFFF7A1FF80BD82B0A520019000201E
:10598000009042F21C00C4F20200006800F0020025
:1059900000900098022803D1FFE70020019002E068
:1059A000A5200190FFE7019802B0704742F21C0069
:1059B000C4F202000068C0F38300704742F2200086
:1059C000C4F202000068704742F21000C4F2020004
:1059D000016821F4007101607047000080B584B057
:1059E00001468DF80F004CF25030029100F08EF815
:1059F0008DF80E009DF80E0000283CD1FFE742F222
:105A00001000C4F20200016841F020010160016849
:105A100041F0400101604CF250310190084600F025
:105A200075F88DF80E000198016821F020010160E1
:105A30009DF80E1000291DD1FFE742F21000C4F2BC
:105A40000200016841F0100101609DF80F104FF64F
:105A50000002C1F6FF7211804CF2503100900846EE
:105A600000F054F88DF80E000098016821F0100144
:105A70000160FFE7FFE79DF80E0004B080BD000065
:105A800042F20800C4F2020040F22311C4F267514E
:105A9000016048F6AB11CCF6EF5101607047000091
:105AA00082B00146019001980088009102B07047D1
:105AB00082B00146019042F20000C4F20200026886
:105AC00022F00702019B1A430260009102B0704766
:105AD00080B5FFF7BFFEFFF7C7FE42F2040EC4F227
