:020000040800F2
:100000000858002045010008ED6400082D2F000865
:10001000116400089113000805D0000800000000DA
:100020000000000000000000000000000DA5000816
:100030005918000800000000356B000859AB000893
:100040004DDB0008156B00085F0100085F01000828
:100050005F010008956D00085F0100085F0100085E
:100060005F0100085F0100085F010008DD1700085C
:100070005F0100085F0100085F0100085F010008E0
:100080005F0100085F0100085F0100085F010008D0
:100090005F0100085F0100085F0100085F010008C0
:1000A0005F0100085F0100085F0100085F010008B0
:1000B000ADAF00085F0100085F0100085F010008A4
:1000C0005F0100085F0100085F0100085F01000890
:1000D0005F01000801B600085F0100085F01000829
:1000E0005F0100085F0100085F0100085F01000870
:1000F0005F0100085F0100085F0100085F01000860
:100100005F0100085F0100085F0100085F0100084F
:100110005F0100085F0100085F0100085F0100083F
:100120005F0100085F0100085F010008191800085E
:10013000DFF80CD000F032FC0048004775DB000807
:10014000085800200648804706480047FEE7FEE7BB
:10015000FEE7FEE7FEE7FEE7FEE7FEE7FEE7FEE777
:100160004DAF0008310100082DE9F05F0546002081
:1001700092469B4688460646814640241BE0284618
:1001800041464746224600F0B0FA53465A46C01A46
:10019000914110D311461846224600F097FA2D1AC5
:1001A00067EB01084F4622460120002100F08EFA3D
:1001B00017EB00094E41201EA4F10104DFDC484684
:1001C00031462A464346BDE8F09FD2B201E000F82E
:1001D000012B491EFBD270470022F6E710B51346EB
:1001E0000A4604461946FFF7F0FF204610BDF0B45A
:1001F00080EA0102D40F4200B2EB410F02D2024664
:10020000084611464A0042D0C30DDDB2C1F3C752C1
:10021000AD1A202D35DAC1F3160141F4000204B104
:100220005242C5F1200602FA06F12A411044B3EB0E
:10023000D05F23D0C4B1012DA0EBC35009DCF0BCCA
:100240004FF0004202EAC352DBB200F5000000F0BA
:1002500077BA400000F1807000EBC350A0F18070CD
:1002600040EAD170490009E0490841EAC071A0EBB9
:10027000C35000F50000400800EBC350F0BC00F094
:1002800056BA6142012202EB4101001BF6E7F0BCC5
:10029000704781F00041AAE780F00040A7E780EABC
:1002A000010210B502F00043400022D04A001FD0E6
:1002B000010E01EB1261C0F35600C2F3560240F486
:1002C000000042F40002A0FB022000047F39140465
:1002D00000D0401C50EA124001D44000491EC2B276
:1002E0000C0604EBD010401C4008802A02D003E02A
:1002F000002010BD20F00100002900DA0020184382
:1003000010BD30B480EA010202F0004530F0004236
:1003100021F0004013D090B1C30DD40DC2F31601EB
:10032000C0F31600E41A41F4000140F400027D34E9
:10033000914201D3641C00E04900002C02DA30BC79
:10034000002070474FF400000023914201D3891A26
:10035000034340084FEA4101F7D151B1914202D124
:100360004FF0004105E002D24FF0010101E06FF0D3
:10037000010103EBC450284430BC00F0D8B92DE98A
:10038000FE4F804681EA0300C00F0C46009021F02A
:10039000004123F00045B8EB0200A94105D24046D8
:1003A000214690461C460B46024623F0004010436F
:1003B00047D0270DC7F30A00C3F30A510290401A31
:1003C000019040286BDAC3F3130040F4801B0098BF
:1003D000924620B10023D2EB030A63EB0B0B01988A
:1003E0005946C0F14002504600F070F906460D46ED
:1003F00050465946019A00F088F910EB0800614117
:10040000002487EA115284EAE7731A4340D0009A25
:1004100062B3019A012A4FEA075215DC001B61EB17
:1004200002014FF0004202EA0752CDE90042001CEF
:1004300041F5801132462B4600F0BFF903B0BDE80C
:10044000F08F40462146F9E7001B61EB0201001CDA
:1004500041F5801300185B412018A2F5001747EB07
:10046000030140EAD570B6196D4111E06D084FEAFD
:10047000360645EAC0754FEA0752001B61EB0201E0
:10048000001C41F5801149084FEA30000019514124
:1004900032462B4603B0BDE8F04F00F07FB900981C
:1004A000012240000023D0EB020263EBE0730098CE
:1004B00021464FEAE074B8EB000061EB0401E9E784
:1004C00083F000435BE781F0004158E72DE9F04DF0
:1004D00081EA030404F0004B21F0004514464FF07C
:1004E000000A23F0004150EA050220D054EA01023C
:1004F0001DD0C5F30A570246C5F31303C1F3130019
:10050000C1F30A5640F4801543F48013A7EB0608A4
:10051000101BD64608F2FD3873EB050002D308F134
:10052000010801E092185B41B8F1000F03DA0020E6
:100530000146BDE8F08D00204FF480110646844648
:100540000EE0171B73EB050705D3121B63EB0503C6
:1005500006434CEA010C49084FEA300092185B410F
:1005600050EA0107EDD152EA030012D082EA0400FA
:1005700083EA0501084305D0101BAB4106D20122D6
:10058000002306E000224FF0004302E06FF001027A
:1005900053101AEB06004CEB085110EB0A0041EB2C
:1005A0000B01BDE8F04D00F0F9B8C10F80EAE07032
:1005B0000844CA079623002100F0C2B896230022FF
:1005C000114600F0BDB80EB5C10F80EAE0700844D6
:1005D000CA07002140F233438DE80E000A460B465D
:1005E00000F0EBF803B000BD20F00040C10DC0F3F7
:1005F000160040F400007F2901DA00207047962998
:1006000003DCC1F19601C8407047963988407047B5
:10061000C1F30A5210B5C1F3130140F2FF3341F4A4
:1006200080119A4201DA002010BD40F233439A4211
:10063000A2F2334203DC524200F057F810BD904062
:1006400010BD00F0004230F000400AD0C10D01F5AD
:100650006071C0F3160042EA0151C208400711431D
:10066000704700200146704701F0004330B421F08C
:10067000004150EA010206D00A0DA2F56072C1F3F2
:100680001301002A02DC30BC00207047440F44EA0A
:10069000C104C100E01830BC00EBC25000F047B804
:1006A00030B50B46014600202022012409E021FA42
:1006B00002F59D4205D303FA02F5491B04FA02F53F
:1006C0002844151EA2F10102F1DC30BD202A04DB12
:1006D000203A00FA02F1002070479140C2F1200355
:1006E00020FA03F3194390407047202A04DB203A94
:1006F00021FA02F00021704721FA02F3D040C2F142
:1007000020029140084319467047202A06DBCB1788
:10071000203A41FA02F043EAE07306E041FA02F3BC
:10072000D040C2F120029140084319467047002989
:10073000A8BF7047401C490008BF20F00100704767
:1007400010B4B0FA80FC00FA0CF050EA010404BFC7
:1007500010BC704749B1CCF1200421FA04F411FA1D
:100760000CF118BF012121430843A3EB0C01CB1D61
:100770004FEA00614FEA102042BF002010BC7047D2
:1007800000EBC35010440029A4BF10BC7047401CAC
:10079000490008BF20F0010010BC704710B5141EBE
:1007A00073F1000408DA401C41F1000192185B412A
:1007B0001A4301D120F0010010BD2DE9F04D924601
:1007C0009B4611B1B1FA81F202E0B0FA80F2203218
:1007D0009046FFF77BFF04460F4640EA0A0041EAD5
:1007E0000B0153465A46084313D0114653EA010001
:1007F00019D0C8F140025046FFF777FF05460E4674
:10080000504659464246FFF761FF084305D0012094
:1008100004E020463946BDE8F08D0020054346EA55
:10082000E0762C4337430A986305E40AA0EB0800FE
:100830000022FD0A44EA47540A3002D5002001464E
:10084000E9E7010510196941DDE908450019694129
:10085000BDE8F04DA2E72DE9FE4F81EA030404F064
:10086000004421F0004100944FF0000B23F00043BE
:1008700050EA01045ED052EA03045BD0C3F30A5489
:10088000C1F30A552C44A4F2F3340194A0FB0254A2
:10089000C1F3130141F48011C3F3130343F4801334
:1008A00001FB024400FB034E840A970A44EA815488
:1008B00047EA8357A4FB076802958D0A05FB078565
:1008C0004FEA932C04FB0C542705029D4FEA06586F
:1008D00047EA1637B5EB08056EEB070C870E920E4C
:1008E00047EA811742EA8312A7FB0201B6EB0B012C
:1008F00064EB00042B0D43EA0C335E1844EB1C50F0
:10090000DA465146E7FB0201C5F313044FEA0B3305
:1009100043EA14534FEA0432019C43EA0603A4F16C
:100920000C040294009CCDE900B4FFF746FF03B02D
:10093000BDE8F08F00200146F9E7C1F30A52C1F388
:10094000130140F2FF3341F480119A4202DA002091
:100950000146704740F233439A42A2F2334202DC2E
:100960005242FFF7C2BEFFF7B1BE000030B5041E11
:1009700071F1000404DB4FF00044404264EB0101DC
:10098000141E73F1000405DB1C464FF00043524275
:1009900063EB0403994208BF904230BD064C074DFB
:1009A00006E0E06840F0010394E80700984710343F
:1009B000AC42F6D3FFF7C0FB3CEA00085CEA000853
:1009C00080B582B0014601900198009100F00EFBC5
:1009D00002B080BD80B582B00146019001980091BF
:1009E00000F046FB02B080BD80B500F085FB80BD05
:1009F00080B582B0014601900198009100F00AFC98
:100A000002B080BD80B582B001460190019800918E
:100A1000FFF7E0FF02B080BD80B5FFF7E5FF80BDC6
:100A200080B58AB00A46034609908DF8231000204D
:100A30008DF8220042F20040C4F2010007920693B2
:100A4000FFF7BEFF9DF823100329059008DBFFE7A1
:100A500043F60040C4F20100FFF7B2FF0490FFE745
:100A6000FFE740F21C00C2F2000000680078002896
:100A700001D1FFE7F5E79DF8230003280CDBFFE732
:100A8000FFE740F22000C2F2000000680078002872
:100A900001D1FFE7F5E7FFE740F21C00C2F20000DA
:100AA0000068FFF7A5FF9DF823E0BEF1030F039058
:100AB00009DBFFE740F22000C2F200000068FFF708
:100AC00097FF0290FFE700208DF82200FFE79DF8D6
:100AD00022009DF8231088423CDAFFE79DF82200AF
:100AE00001460328019128D80199DFE801F0020BA3
:100AF000141D40F21C00C2F20000006840880999F1
:100B0000088020E040F21C00C2F2000000688088EB
:100B10000999488017E040F22000C2F20000006806
:100B20004088099988800EE040F22000C2F200005F
:100B3000006880880999C88005E009989DF823100D
:100B4000FFF74AFBFFE7FFE79DF8220001308DF831
:100B50002200BCE700200AB080BD000080B582B052
:100B600000F00AF8019000F09FF84FF0000E00909E
:100B7000704602B080BD000080B592B00020C4F283
:100B8000020001210790069103F01EFD06990590D1
:100B9000084603F0A9FA08A828210490FFF71CFBD7
:100BA0002420109000200A9040F21C01C2F20001A3
:100BB0000968063109914FF480610F9180210D91F0
:100BC0000B9042F24C41C4F2010108914FF4807144
:100BD0000E910C904FF40051119107990390084623
:100BE0000699049A03F07CFE07990290084606993C
:100BF00003F046FE05F0FAFD0699039A05F0B6FCEF
:100C00000B2101900846019A0091114605F07CFEE7
:100C1000009805F06FFC0798069903F049FE0398C9
:100C200012B080BD80B586B00020C4F20200012160
:100C300024220590049103F0D7FE0598049903F04F
:100C40001FFE42F20040C4F20100039003F0ECF8F2
:100C5000039800F06FFB0021039A02901046019167
:100C6000019A00F03FFB01990090084606B080BD54
:100C700080B582B00020C4F202000121019003F08F
:100C8000E7FD019803F004FC019803F051FC019882
:100C900003F062FC42F20040C4F2010003F0B8F835
:100CA000002002B080BD000080B594B000201390F9
:100CB0001290119010900F900E900D900C9042F2A7
:100CC0000041C4F201010B9008460A9103F024F898
:100CD0000121DDF828E009907046089100F016FA2D
:100CE0000B9912914FF4807ECDF84CE012A90A9A2C
:100CF00007901046CDF818E003F0B4F84FF46021E7
:100D00000D914FF480110E910B990F9102221092C8
:100D1000069A11920DA9DDF828E00590704603F0BF
:100D2000DFF84FF400410490084604F0C5FA0B9830
:100D30000C900CA90A9802F09FFF4FF400710A2250
:100D4000DDF828E003907046029203F029F90A9832
:100D50000299089A03F074F940F205210B20C0F2C1
:100D600030000A9A01901046019A03F019F90A9886
:100D70000199089A03F064F90A9803F055F80A9863
:100D800000F0D8FA0B990090084614B080BD00001E
:100D900080B582B000F00AF8019000F0A1F84FF0A1
:100DA000000E0090704602B080BD000080B592B089
:100DB00040F20040C4F2020005210790069103F0C2
:100DC00003FC02210590084603F08EF908A82821AB
:100DD0000490FFF701FA2420109000200A9040F2BE
:100DE0002001C2F200010968063109914FF48061C7
:100DF0000F9180210D910B9043F64C41C4F20101FB
:100E000008914FF480710E910C904FF400511191A4
:100E10000799039008460699049A03F061FD079923
:100E200002900846069903F02BFD05F0DFFC012136
:100E3000039A05F09BFB3B2101900846019A009123
:100E4000114605F061FD009805F054FB07980699DE
:100E500003F02EFD039812B080BD000080B586B06F
:100E600040F20040C4F202000521242205900491C2
:100E700003F0BAFD0598049903F002FD43F6004023
:100E8000C4F20100039002F0CFFF039800F052FA81
:100E90000021029008460191039A00F023FA01997B
:100EA0000090084606B080BD80B582B040F2004098
:100EB000C4F202000521019003F0CAFC019803F07E
:100EC00019FB019803F03EFB019803F04FFB43F63A
:100ED0000040C4F2010002F09BFF002002B080BD80
:100EE00080B594B0002013901290119010900F9044
:100EF0000E900D900C9043F60041C4F201010B904E
:100F000008460A9102F008FF0121DDF828E0099067
:100F1000704600F0FBF80B9912914FF4807ECDF8EB
:100F20004CE012A90A9A08901046CDF81CE002F095
:100F300099FF4FF460210D914FF480110E910B99A0
:100F40000F9102221092079A11920DA9DDF828E064
:100F50000690704602F0C4FF4FF400410590084629
:100F600004F0AAF90B980C900CA90A9802F084FEE0
:100F70004FF400710C22C0F26002DDF828E004900A
:100F80007046039203F00CF803200A990290084679
:100F90000399029A03F054F840F205210D20C0F2A3
:100FA00090000A9A01901046019A02F0F9FF0A98FF
:100FB0000199029A03F044F80A9802F035FF0A9862
:100FC00000F0B8F90B990090084614B080BD0000FD
:100FD00080B582B0FFF7C2FD0190FFF7D9FE4FF058
:100FE000000E0090704602B080BD000080B584B055
:100FF00001460290029842F20042C4F2010290427D
:1010000001910CD1FFE740F21C00C2F20000006821
:1010100000210170FFF706FE8DF80F0023E0029813
:1010200042F60001C4F20101884204D1FFE700202A
:101030008DF80F0017E0029843F60041C4F2010159
:1010400088420CD1FFE740F22000C2F200000068A5
:1010500000210170FFF702FF8DF80F0003E0002070
:101060008DF80F00FFE79DF80F0004B080BD000071
:1010700080B584B001460290029842F20042C4F268
:101080000102904201910DD1FFE740F21C00C2F233
:1010900000000068017801310170FFF7E9FD8DF86B
:1010A0000F0024E0029842F60001C4F201018842D8
:1010B00004D1FFE700208DF80F0018E0029843F6F6
:1010C0000041C4F2010188420DD1FFE740F2200047
:1010D000C2F200000068017801310170FFF7E4FE00
:1010E0008DF80F0003E000208DF80F00FFE79DF85A
:1010F0000F0004B080BD000080B582B000F068F839
:101100000190FFF765FF02B080BD000080B586B09A
:101110000A46034604908DF80F10049800280292A6
:10112000019304D1FFE701208DF817004BE00498EC
:1011300042F20041C4F20101884210D1FFE79DF85C
:101140000F00002805D0FFE74FF4007003F0B8F857
:1011500004E04FF4007003F073F8FFE7FFE7049832
:1011600042F60001C4F20101884210D1FFE79DF868
:101170000F00002805D0FFE74FF4806003F0A0F8CF
:1011800004E04FF4806003F05BF8FFE7FFE70498AA
:1011900043F60041C4F20101884210D1FFE79DF8F7
:1011A0000F00002805D0FFE74FF4004003F088F857
:1011B00004E04FF4004003F043F8FFE7FFE70020AE
:1011C0008DF81700FFE79DF8170006B080BD0000FE
:1011D00080B588B041F20000C4F201000121029004
:1011E00001F09CFD0020079006900590049003906C
:1011F00040F60F7103910490079003A9DDF808E011
:101200000190704603F0BCFC01990090084608B0BC
:1012100080BD000080B5A0B001461F9000208DF871
:101220007B000DF1560224230A90104609911946BD
:101230000893FEF7D1FF0DF132000899FEF7CCFFBD
:101240001F9806300B900A988DF87B00FFE79DF8F9
:101250007B0011281DDCFFE70B9800889DF87B10B0
:101260000DF1560222F811000B9802300B900B98EA
:1012700000889DF87B100DF1320222F811000B98C6
:1012800002300B90FFE79DF87B0001308DF87B006A
:10129000DDE70DF1560012210790069101F05CFC8C
:1012A0000DF1320105900846DDF818E00491714611
:1012B00001F052FC11214FF0010E079A03901046E5
:1012C00002917246CDF804E000F032FA1F9948808E
:1012D00004980299019A00F02BFA1F998880002047
:1012E00020B080BD80B586B013468C4686460590FA
:1012F00004910392059800280293CDF804C0CDF81C
:1013000000E004D0FFE7059802F08EFEFFE70498A6
:10131000002804D0FFE7049802F086FEFFE7039858
:10132000002804D0FFE7039802F07EFEFFE70020CC
:1013300006B080BD80B584B00146029002980028B6
:1013400001911CD0FFE70298816841F0080181609B
:10135000FFE7029880680007002801D5FFE7F8E75B
:10136000029802F0B5FEFFE7029802F0A5FD002802
:1013700001D0FFE7F8E700208DF80F0003E001201F
:101380008DF80F00FFE79DF80F0004B080BD00004E
:10139000FFE7FEE780B584B00A460346039002915A
:1013A000039802990192009300F084F804B080BD84
:1013B00080B584B00A4603460390029103980299CF
:1013C0000192009300F0A6F804B080BD80B586B00D
:1013D00013468C4686468DF81700049103929DF8BB
:1013E00017000499039A0293CDF804C0CDF800E0E9
:1013F00000F0D4F806B080BD80B584B00A4603463C
:1014000003900291039802990192009300F010F961
:1014100004B080BD80B500F047F980BD80B500F014
:1014200049F980BD80B584B00A4603460390029115
:101430000398029901920093FFF7ACFF04B080BDBE
:1014400080B584B00A46034603900291039802993E
:1014500001920093FFF7ACFF04B080BD80B586B069
:1014600013468C4686468DF81700049103929DF82A
:1014700017000499039A0293CDF804C0CDF800E058
:10148000FFF7A4FF06B080BD80B584B00A460346CE
:10149000039002910398029901920093FFF7ACFF29
:1014A00004B080BD80B5FFF7B5FF80BD80B5FFF704
:1014B000B5FF80BD86B00A46034605900491002022
:1014C000ADF80C00029001920093FFE70298049996
:1014D00088421BD2FFE79DF80D000599029A895CAE
:1014E00048408DF80F00BDF80C009DF80F104EF22B
:1014F0008A52C0F6000232F8111081EA0020ADF8DD
:101500000C00FFE7029801300290DFE7BDF80C0005
:1015100006B0704780B584B00A4603460390029136
:10152000039802990192009300F002F804B080BD84
:1015300080B588B00A4603460790069100200590C2
:10154000049003920293019000F020F80198059016
:10155000FFE705980699884210D2FFE7079805999A
:10156000405C0490049943F20000C4F2020002F0CF
:1015700051FFFFE7059801300590EAE743F20000CC
:10158000C4F2020002F052FF08B080BD80B543F201
:101590000000C4F2020002F05BFF80BD80B589B09C
:1015A00013468C4686468DF823000791069200204C
:1015B0008DF8160004900393CDF808C0CDF804E030
:1015C000FFE70498069988422DD2FFE79DF81600A0
:1015D0000799049A895C48408DF817009DF823000C
:1015E00001460728009104D0FFE7009831280AD06F
:1015F00013E09DF817004EF28A71C0F60001085CF6
:101600008DF816000AE09DF817004EF68A01C0F624
:101610000001085C8DF8160000E0FFE7FFE7049882
:1016200001300490CDE79DF8160009B080BD0000A0
:1016300086B00A46034605900491002003908DF879
:101640000B00039001920093FFE7039804998842EE
:101650000DD2FFE705980399405C9DF80B100844F4
:101660008DF80B00FFE7039801300390EDE79DF83C
:101670000B00C0F580708DF80B009DF80B0006B0D4
:101680007047000080B582B043F20000C4F202004F
:1016900002F0A2FE40F2040EC2F2000E01218EF80A
:1016A0000010019002B080BD40F20400C2F20000C0
:1016B0000078704780B5FFF7E5FF402002F028FD75
:1016C00040F20400C2F200004FF0000E80F800E08B
:1016D00080BD000080B500F00DF880BD80B500F041
:1016E00017F880BD80B5FFF7F5FF80BD80B5FFF727
:1016F000F5FF80BD80B503F077FD002807D0FFE738
:1017000003F060FD03F004FD03F0E4FCFFE780BD9F
:1017100080B503F071FD002809D0FFE703F0EEFC6F
:1017200003F0E2FC0CF024FA05F0D8F9FFE780BDE5
:1017300080B58EB013468C4686460D90ADF83210BB
:10174000ADF8302000200B900A90ADF82600BDF8CF
:101750003000ADF826000893CDF81CC0CDF818E095
:10176000FFE7BDF82600BDF8321088421BDAFFE71C
:101770000D98BDF8261030F81100FEF724FFDDF8B3
:1017800028E00B9A0590704604911146059A049B37
:10179000FEF7F5FD0B910A90FFE7BDF8260001303A
:1017A000ADF82600DDE70A980B99BDF83220BDF8A8
:1017B0003030D21A039010460291FEF704FF039ACC
:1017C00001901046029B00911946019A009BFEF77A
:1017D0007DFEFEF71DFF0EB080BD000080B582B01B
:1017E0000020C4F2020003F0AFF8002811D0FFE798
:1017F0000020C4F20200012103F0BAF8002808D04A
:10180000FFE742F20040C4F20100FFF7FBF801904D
:10181000FFE702B080BD000080B582B040F200401A
:10182000C4F2020003F09AF8002812D0FFE740F259
:101830000040C4F20200052103F09AF8002808D005
:10184000FFE743F60040C4F20100FFF7DBF8019028
:10185000FFE702B080BD00007047000080B582B095
:1018600001468DF807009DF80700009100F056F83A
:1018700002B080BD80B500F0DFF980BD80B500F01A
:10188000C1FD80BD80B500F045FE80BD80B500F093
:101890004DFE80BD80B501F02FF880BD80B501F010
:1018A00083F880BD80B501F0A3F880BD80B582B01B
:1018B00001468DF807009DF807000091FFF7CEFF65
:1018C00002B080BD80B5FFF7D5FF80BD80B5FFF7C2
:1018D000D5FF80BD80B5FFF7D5FF80BD80B5FFF790
:1018E000D5FF80BD80B582B001468DF807000F207E
:1018F0000091FFF7DBFFFFF7E5FF00F003F802B010
:1019000080BD000080B5FFF7C5FF80BD80B5FFF743
:10191000C5FF80BD80B5FFF7C5FF80BD82B0014621
:101920008DF8070000208DF806000091FFE79DF874
:101930000600032824DCFFE79DF80700C007002805
:1019400009D0FFE79DF8060040F60C71C2F20001D5
:1019500001220A5408E09DF8060040F60C71C2F21C
:10196000000100220A54FFE79DF8070040088DF8A7
:101970000700FFE79DF8060001308DF80600D6E766
:1019800002B0704780B584B00A460346ADF80E0039
:10199000ADF80C10BDF80C0000280292019310D095
:1019A000FFE7BDF80E0000280AD1FFE740F600006F
:1019B000C4F201000821C0F2084103F0FFF9FFE77B
:1019C0000FE0BDF80E0000280AD1FFE740F6000046
:1019D000C4F201000821C0F2084103F08DF9FFE7CD
:1019E000FFE704B080BD000080B584B001468DF8EB
:1019F0000F00019108F0E0FF0130029002989DF87D
:101A00000F1040F6847EC2F2000E5EF8211088426C
:101A100014D2FFE79DF80F0040F68471C2F2000176
:101A200051F82000C043029908449DF80F1040F679
:101A30006072C2F2000242F8210012E002989DF8A2
:101A40000F1040F68472C2F2000252F82110401AC0
:101A50009DF80F1040F66072C2F2000242F82100B9
:101A6000FFE704B080BD000080B584B00A4603469D
:101A700003908DF80B1003994FF080400192009372
:101A800003F0CCFE002865D0FFE703994FF08040BB
:101A9000002204F023F89DF80B0040F63871C2F2E2
:101AA000000151F820009DF80B1040F61872C2F2A8
:101AB000000242F821009DF80B0052F820009DF82A
:101AC0000B1040F67072C2F2000252F821108842E8
:101AD0001DD2FFE79DF80B0040F61871C2F200011D
:101AE00051F820004CF2503108449DF80B1040F69C
:101AF0007072C2F2000252F82110401A9DF80B10C9
:101B000040F62872C2F2000242F8210019E09DF866
:101B10000B0040F61871C2F2000151F820009DF848
:101B20000B1040F67072C2F2000252F82110401AF7
:101B30009DF80B1040F62872C2F2000242F8210014
:101B4000FFE79DF80B0040F64C71C2F20001012244
:101B50000A5464E003994FF08040022203F0BEFF74
:101B60009DF80B0040F63871C2F2000151F82000D8
:101B70009DF80B1040F67072C2F2000242F821008C
:101B80009DF80B0052F820009DF80B1040F61872DB
:101B9000C2F2000252F8211088421DD2FFE79DF8E0
:101BA0000B0040F67071C2F2000151F820004CF2B7
:101BB000503108449DF80B1040F61872C2F2000232
:101BC00052F82110401A9DF80B1040F65072C2F2E4
:101BD000000242F8210019E09DF80B0040F67071F8
:101BE000C2F2000151F820009DF80B1040F6187267
:101BF000C2F2000252F82110401A9DF80B1040F674
:101C00005072C2F2000242F82100FFE79DF80B007B
:101C100040F64C71C2F2000102220A54FFE708F0BC
:101C2000CBFE9DF80BE040F68471C2F2000141F852
:101C30002E0004B080BD000081B000200090FFE7BE
:101C40000098032849DCFFE7009840F63871C2F29B
:101C50000001002241F82020009840F62871C2F2CD
:101C6000000141F82020009840F65071C2F20001B6
:101C700041F82020009840F64C71C2F200010A544D
:101C8000009840F64871C2F200010A54009840F6EC
:101C90008071C2F200010A54009840F67071C2F2DD
:101CA000000141F82020009840F61871C2F20001AE
:101CB00041F82020009840F68471C2F2000141F8FA
:101CC0002020009840F66071C2F2000141F8202007
:101CD000FFE7009801300090B2E701B070470000C4
:101CE00080B590B040F60000C4F2010001210A90D6
:101CF000099101F013F80A98099901F00FF80A9870
:101D0000099901F00BF80A98099901F007F80020E9
:101D10000F900E900D900C900B9008210C910321C8
:101D20000D910E900F9040F201100B900BA9DDF871
:101D300028E008907046079102F022FF0A99069069
:101D40000846089902F0D8FF40F202200B900A9949
:101D500005900846079902F013FF0A990490084677
:101D6000059902F0C9FF40F204400B900A990390D4
:101D70000846079902F004FF0A9902900846039961
:101D800002F0BAFF40F608000B900A99019008464D
:101D9000079902F0F5FE0A9900900846019902F0B1
:101DA000ABFF10B080BD000080B584B00A4603468A
:101DB0008DF80F008DF80E109DF80F0001460328D6
:101DC0000292019300916CD80099DFE801F0021CA7
:101DD00036509DF80E0000280AD0FFE740F600407C
:101DE000C4F201001021C0F2104102F0E7FF09E047
:101DF00040F60040C4F201001021C0F2104102F090
:101E00007BFFFFE74EE09DF80E0000280AD0FFE7B9
:101E100040F60040C4F201002021C0F2204102F04F
:101E2000CDFF09E040F60040C4F201002021C0F2DD
:101E3000204102F061FFFFE734E09DF80E0000282A
:101E40000AD0FFE740F60040C4F201004021C0F292
:101E5000404102F0B3FF09E040F60040C4F2010047
:101E60004021C0F2404102F047FFFFE71AE09DF831
:101E70000E0000280AD0FFE740F60040C4F201003F
:101E80000821C0F2084102F099FF09E040F6004045
:101E9000C4F201000821C0F2084102F02DFFFFE763
:101EA00000E0FFE704B080BD80B590B040F6004090
:101EB000C4F2010001210A90099100F02FFF0A9855
:101EC000099900F02BFF0A98099900F027FF0A985A
:101ED000099900F023FF00200F900E900D900C90B8
:101EE0000B9009990C910D910E900F911020C0F25A
:101EF00010400B900DF12C0E0A9A08901046714676
:101F0000CDF81CE002F03CFE0A99069008460899BC
:101F100002F0F2FE2020C0F220400B900A990590BA
:101F20000846079902F02CFE0A9904900846059984
:101F300002F0E2FE4020C0F240400B900A9903906C
:101F40000846079902F01CFE0A9902900846039978
:101F500002F0D2FE0820C0F208400B900A990190CE
:101F60000846079902F00CFE0A990090084601996C
:101F700002F0C2FE10B080BD80B584B00A460346B0
:101F80008DF80F008DF80E109DF80F000146032804
:101F900002920193009168D80099DFE801F0021CD9
:101FA000344C9DF80E0000280AD0FFE741F60000EF
:101FB000C4F201000221C0F2024102F09DFE09E0DC
:101FC00041F60000C4F201000221C0F2024102F019
:101FD000F5FEFFE74AE09DF80E00002809D0FFE774
:101FE00041F60000C4F2010040F2011102F084FE4B
:101FF00008E041F60000C4F2010040F2011102F0D5
:10200000DDFEFFE732E09DF80E00002809D0FFE773
:1020100041F20040C4F2010040F2022102F06CFEE5
:1020200008E041F20040C4F2010040F2022102F057
:10203000C5FEFFE71AE09DF80E0000280AD0FFE772
:1020400041F20040C4F201000221C0F2024102F05C
:1020500053FE09E041F20040C4F201000221C0F247
:10206000024102F0ABFEFFE700E0FFE704B080BDF5
:1020700080B590B041F60000C4F2010001210A9041
:10208000099100F04BFE0A98099900F047FE41F2D1
:102090000040C4F201000890099900F03FFE089842
:1020A000099900F03BFE00200F900E900D900C90CF
:1020B0000B9009980C900D9004210E910F90022125
:1020C000C0F202410B910DF12C0E0A980791714656
:1020D000CDF818E002F054FD0A99059008460799DA
:1020E00002F06CFE40F201100B900A990490084631
:1020F000069902F045FD0A9903900846049902F0FA
:102100005DFE40F202200B90089902900846069965
:1021100002F036FD089901900846029902F04EFE41
:1021200007980B900898069902F02AFD08990090EC
:102130000846079902F042FE10B080BD80B592B00B
:1021400041F60000C4F2010001210C900B9100F057
:10215000E5FD40F60040C4F201000A900B9900F042
:10216000DDFD41F20040C4F2010009900B9900F03E
:10217000D5FD09980B9900F0D1FD00201190109029
:102180000F900E900D900B980E900F9004211091CF
:1021900011900121C0F201410D910DF1340E0C9806
:1021A00008917146CDF81CE002F0EAFC0C9906900B
:1021B0000846089902F002FE0220C0F202400D908B
:1021C0000A9905900846079902F0DAFC0A990490EA
:1021D0000846059902F0F2FD40F201100D900999B0
:1021E00003900846079902F0CBFC09990290084633
:1021F000039902F0E3FD08980D900998079902F001
:10220000BFFC099901900846089902F0D7FD12B069
:1022100080BD000080B598B04FF0804001210E9045
:102220000D9108F0E7FE002017901690159014907D
:1022300013901290119010900F900E990C900846E8
:1022400003F012F94CF25031159140F20001C2F244
:10225000000109684DF6836EC4F21B3EA1FB0E1E01
:102260004FEA9E4E4FF47A720EFB02F244F6D35EB2
:10227000C1F2620EA2FB0E2E4FF0FF3303EB9E1352
:10228000ADF84C300C9B169314938DF85C300DF127
:102290004C0EDDF838C00B9060460A9171460992E9
:1022A00003F0D4FC0E990890084603F0DBF90E9871
:1022B0000C9903F0E3FD0E980C9903F045FE0E987F
:1022C00003F00CFA4FF4803010900C9811900F909E
:1022D00012900FA90E980D9A07911146079A03F0D4
:1022E000EFFA10210E9A06901046079A03F0E8FACA
:1022F0004FF480710E9A05901046079A03F0E0FAA9
:102300004FF480510E9A04901046079A03F0D8FAC1
:10231000039004F07BFA0C990C9A04F0A7F91C21A5
:1023200002900846029A0191114604F031FB01988F
:1023300004F0F4F80E9803F047F80E9803F00AFA48
:102340000E9803F013FA0E9803F01CFA0E9803F09F
:1023500025FA0E9803F0E6F918B080BD80B582B07A
:1023600000208DF8070041F60000C4F201000121B1
:10237000C0F2014102F06AFC002807D1FFE79DF896
:10238000070040F001008DF80700FFE740F600402D
:10239000C4F201000221C0F2024102F057FC002801
:1023A00007D1FFE79DF8070040F002008DF8070015
:1023B000FFE741F20040C4F2010040F2011102F0D7
:1023C00045FC002807D1FFE79DF8070040F0040016
:1023D0008DF80700FFE741F20040C4F2010001213F
:1023E000C0F2014102F032FC002807D1FFE79DF85E
:1023F000070040F008008DF80700FFE79DF8070090
:1024000002B080BD80B586B000208DF817004FF077
:10241000804003F0EBFC002819D0FFE74FF080402C
:10242000049003F0DBF940F6387EC2F2000ECEF8DD
:10243000000040F64870C2F2000090F800E00EF193
:10244000010E80F800E0049802F0C8FFFFE74FF0AB
:10245000804003F0D5FC002819D0FFE74FF0804002
:10246000039003F0C3F940F6387EC2F2000ECEF8B6
:10247000040040F64870C2F2000090F801E00EF14E
:10248000010E80F801E0039802F0B2FFFFE74FF081
:10249000804003F0BFFC002819D0FFE74FF08040D8
:1024A000029003F0ABF940F6387EC2F2000ECEF88F
:1024B000080040F64870C2F2000090F802E00EF109
:1024C000010E80F802E0029802F09CFFFFE74FF057
:1024D000804003F0A9FC002819D0FFE74FF08040AE
:1024E000019003F093F940F6387EC2F2000ECEF868
:1024F0000C0040F64870C2F2000090F803E00EF1C4
:10250000010E80F803E0019802F086FFFFE706B0B5
:1025100080BD000080B5FFF7C7FCFFF70FFEFFF797
:10252000DFFBFFF7A5FDFFF775FE80BD80B586B028
:10253000002005908DF81300FFE79DF81300032895
:1025400000F39C81FFE79DF8130040F60C71C2F286
:102550000001085C012840F08A81FFE79DF8130024
:10256000FFF742FA9DF8130000F08AF99DF8130076
:1025700040F6807EC2F2000E1EF800008646042857
:10258000CDF80CE000F269810399DFE811F0050055
:102590002A005100B50065019DF8130040F68071D6
:1025A000C2F2000101220A549DF8130040F64C715A
:1025B000C2F2000100220A549DF8130040F6707127
:1025C000C2F2000141F820209DF8130040F6187176
:1025D000C2F2000141F820209DF8130000F01CFA1F
:1025E00044E19DF8130040F61071C2F20001002290
:1025F00021F810209DF8130040F68071C2F200010E
:1026000002230B549DF8130011460292FFF7CCFBF6
:102610009DF813000299FFF7AFFC08F0CDF99DF883
:10262000131040F68472C2F2000242F821001DE14C
:102630009DF8130040F64C71C2F20001085C00F0F6
:102640000300012838D1FFE79DF8130040F64C71D4
:10265000C2F2000100220A549DF8130040F62871CE
:10266000C2F2000151F82000B0F5967F1AD3FFE7BF
:102670009DF8130040F62871C2F2000151F82000C5
:10268000B0F52F7F0ED8FFE79DF8130040F680715C
:10269000C2F2000103220A549DF813000021FFF743
:1026A00071F908E09DF8130040F68071C2F2000154
:1026B00001220A54FFE71EE09DF8130040F6607106
:1026C000C2F2000151F82000152813D3FFE79DF84E
:1026D000130040F68071C2F2000101220A5408F092
:1026E0006BF99DF8131040F68472C2F2000242F8B2
:1026F0002100FFE7FFE7B9E09DF8130040F64C71B9
:10270000C2F20001085C00F00300022840F084805F
:10271000FFE79DF8130040F64C71C2F20001002261
:102720000A549DF8130040F65071C2F2000151F8AE
:102730002000B0F5967F3DD3FFE79DF8130040F6EB
:102740005071C2F2000151F82000B0F52F7F31D84E
:10275000FFE79DF8130040F68071C2F200010222EB
:102760000A549DF813000121FFF70CF99DF813009E
:1027700040F61071C2F2000131F8100027280CDC7D
:10278000FFE79DF8130040F61071C2F2000131F826
:102790001020013221F810200BE09DF813000121D8
:1027A0000191FFF701FB9DF813000199FFF7E4FB8E
:1027B000FFE730E09DF8130040F65071C2F20001CF
:1027C00051F82000B0F52F7F1BD9FFE79DF81300CB
:1027D00040F65071C2F2000151F8200044F2672126
:1027E00088420ED8FFE79DF8130040F68071C2F2D0
:1027F000000102220A549DF813000121FFF7C2F8DC
:1028000008E09DF8130040F68071C2F20001012239
:102810000A54FFE7FFE71EE09DF8130040F66071E1
:10282000C2F2000151F82000152813D3FFE79DF8EC
:10283000130040F68071C2F2000101220A5408F030
:10284000BBF89DF8131040F68472C2F2000242F801
:102850002100FFE7FFE709E0FFE79DF8130040F6DE
:102860008071C2F2000100220A54FFE7FFE7FFE790
:102870009DF8130001308DF813005EE606B080BDB0
:1028800080B584B001468DF80F00002002909DF8BD
:102890000F00024603280191009212D80099DFE848
:1028A00001F00205080C012002900BE010200290BC
:1028B00008E04FF48070029004E04FF480500290E2
:1028C00000E017E09DF80F0040F64871C2F20001E9
:1028D000085C00280ED0FFE79DF80F0040F6487115
:1028E000C2F2000100220A5402989DF80F10FFF76F
:1028F000BBF8FFE704B080BD80B586B040F600406D
:10290000C4F201001021C0F21041059002F0F4F968
:102910002021C0F22041059802F0EEF94021C0F2DA
:102920004041059802F0E8F90821C0F208410598F5
:1029300002F0E2F941F60000C4F201000221C0F207
:1029400002410490039102F039FA40F20111049817
:1029500002F034FA41F20040C4F2010040F20221D8
:10296000029002F02BFA0298039902F027FA4FF036
:102970008040019002F082FE019802F061FD019812
:1029800002F02CFD019802F033FD019802F03AFDAF
:10299000019802F041FD0021019803F093FA01989B
:1029A00002F0C0FE06B080BD80B582B04FF080401E
:1029B00002F064FE40F60040C4F201001021C0F2B3
:1029C0001041019002F098F92021C0F220410198B5
:1029D00002F092F94021C0F24041019802F08CF9D6
:1029E0000821C0F20841019802F086F902B080BDCA
:1029F00080B582B0FFF7B2FC8DF807009DF80700A4
:102A0000002805D0FFE7FFF7A9FC8DF80700FFE7D6
:102A10009DF8070002B080BD80B584B001468DF8F6
:102A20000F009DF80F00024603280291019222D860
:102A30000199DFE801F0020910184FF080400121F0
:102A4000002203F04BF817E04FF0804010210022E5
:102A500003F044F810E04FF080404FF48071002202
:102A600003F03CF808E04FF080404FF48051002222
:102A700003F034F800E0FFE704B080BD80B582B019
:102A8000014601900198009100F04CF802B080BD21
:102A900080B582B0014601900198009100F01EF8C7
:102AA00002B080BD80B584B0014603900398002831
:102AB000029110D0FFE7FFE70398411E0391002821
:102AC00008D0FFE74FF47A7000F008F800F034FD0A
:102AD0000190F1E7FFE704B080BD000080B584B04D
:102AE0000146039003980028029105D0FFE7039860
:102AF00007F06EFF0190FFE704B080BD80B582B0A3
:102B00000146019001980091FFF7B8FF02B080BD27
:102B100080B582B00146019001980091FFF7B8FF9F
:102B200002B080BD80B584B00146039003980028B0
:102B300002910FD0FFE707F027FF002805D1FFE73C
:102B4000039807F025FF019003E00398FFF7AAFF21
:102B5000FFE7FFE704B080BD86B00A460346059054
:102B6000ADF812100020ADF81000ADF80E00BDF861
:102B700012100139ADF80C10ADF81000019200935D
:102B8000FFE7BDF81000BDF80C1088423FDAFFE700
:102B90000020ADF80E00FFE7BDF80E00BDF80C10E8
:102BA000BDF81020891A88422ADAFFE70598BDF897
:102BB0000E1000EB410230F811005188884218DAFB
:102BC000FFE70598BDF80E1000EB41004088ADF816
:102BD0000A000598BDF80E1000EB410230F8110014
:102BE0005080BDF80A000599BDF80E2021F81200AA
:102BF000FFE7FFE7BDF80E000130ADF80E00CBE7B0
:102C0000FFE7BDF810000130ADF81000B9E7002073
:102C100006B0704780B500F005F880BD80B5FFF7BD
:102C2000F9FF80BD80B540F69471C2F200014FF605
:102C30000000C0F60F004FF4806200F017F880BD6E
:102C400080B586B013468C46864605900491ADF853
:102C50000E2005980499BDF80E200293CDF804C00B
:102C6000CDF800E000F018F806B080BD80B586B061
:102C700013468C46864605900491ADF80E200598C3
:102C80000499BDF80E200293CDF804C0CDF800E001
:102C9000FFF7D6FF06B080BD80B586B013468C46E0
:102CA000864605900491ADF80E200020ADF80C008A
:102CB0000293CDF804C0CDF800E0FFE7BDF80C00AA
:102CC000BDF80E10884213DAFFE7059801F01CFFEB
:102CD000DDF810E0BDF80C102EF811000598023058
:102CE0000590FFE7BDF80C000130ADF80C00E5E7FA
:102CF00006B080BD80B584B00A46034603908DF8C7
:102D00000B1003989DF80B100192009300F01AF835
:102D100004B080BD80B500F0BDF880BD80B584B042
:102D20000A46034603908DF80B1003989DF80B108C
:102D300001920093FFF7DEFF04B080BD80B5FFF77E
:102D4000E9FF80BD80B584B00A46034603908DF844
:102D50000B10039840F60001C4F201018842019271
:102D600000930ED1FFE79DF80B00002804D0FFE789
:102D7000042001F0B9FA03E0042001F071FAFFE742
:102D800085E0039840F60041C4F2010188420ED16B
:102D9000FFE79DF80B00002804D0FFE7082001F0B2
:102DA000A3FA03E0082001F05BFAFFE76FE0039865
:102DB00041F20001C4F2010188420ED1FFE79DF803
:102DC0000B00002804D0FFE7102001F08DFA03E08B
:102DD000102001F045FAFFE759E0039841F2004165
:102DE000C4F2010188420ED1FFE79DF80B000028D4
:102DF00004D0FFE7202001F077FA03E0202001F063
:102E00002FFAFFE743E0039841F60001C4F2010105
:102E100088420ED1FFE79DF80B00002804D0FFE7A1
:102E2000402001F061FA03E0402001F019FAFFE7C9
:102E30002DE0039841F60041C4F2010188420ED111
:102E4000FFE79DF80B00002804D0FFE7802001F089
:102E50004BFA03E0802001F003FAFFE717E0039844
:102E600042F20001C4F20101884210D1FFE79DF84F
:102E70000B00002805D0FFE74FF4807001F034FA12
:102E800004E04FF4807001F0EBF9FFE7FFE704B0D6
:102E900080BD000080B582B040F60000C4F20100A1
:102EA00001210191FFF74EFF40F60040C4F20100FE
:102EB0000199FFF747FF41F20000C4F201000199B8
:102EC000FFF740FF41F20040C4F201000199FFF713
:102ED00039FF41F60000C4F201000199FFF732FF0B
:102EE00041F60040C4F201000199FFF72BFF42F2C6
:102EF0000000C4F201000199FFF724FF019801F0DE
:102F0000F3F901F025FE01F02FFE02B080BD0000B4
:102F100040F23C00C2F20000006844F60401C2F234
:102F200000010A681044086070470000FFE7FEE7F0
:102F300080B584B00A460346039002910398029933
:102F40000192009300F092F804B080BD80B582B089
:102F5000014601900198009100F0DEF802B080BDBA
:102F600080B586B00A46034605908DF81310059883
:102F70000392029300F00EF99DF8131000290190BE
:102F800006D0FFE70598C18A01F0FE01C18205E085
:102F90000598C18A41F00101C182FFE70598817D52
:102FA00000F0DCF905990090084600F0B5F806B08D
:102FB00080BD000080B582B001460190019800916B
:102FC00000F03AF902B080BD80B584B00A460346ED
:102FD00003908DF80B1003989DF80B10019200934D
:102FE00000F0BCF904B080BD80B584B00A46034649
:102FF000039002910398029901920093FFF798FFC2
:1030000004B080BD80B582B0014601900198009166
:10301000FFF79CFF02B080BD80B584B00A4603462E
:1030200003908DF80B1003989DF80B1001920093FC
:10303000FFF796FF04B080BD80B582B001460190D5
:1030400001980091FFF7B6FF02B080BD80B584B053
:103050000A46034603908DF80B1003989DF80B1059
:1030600001920093FFF7B0FF04B080BD80B590B02F
:103070000A4603460F900E910F984068012108916F
:1030800007920693FFF74AFE0F98C0680899FFF76A
:1030900045FE0F984168806805900846059901F043
:1030A0009BFE0F98C168006904900846049901F0DE
:1030B00093FE00200D900C900B900A9009900F98B1
:1030C0008068099008980A9002210B9104210C91C4
:1030D0000D900F99486809A9039101F051FD0F99CE
:1030E000096909910F99C96802900846039901F08E
:1030F00047FD0E990029019004D0FFE70E980F9923
:10310000C86106E00F9842F61131C0F60001C161B6
:10311000FFE7002010B080BD80B588B00146079061
:1031200000208DF81B000798C268006905901046C2
:10313000059A0491114601F04FFE07984168806896
:1031400003900846039901F047FE0798C0690028DC
:1031500005D0FFE70798C169407D8847FFE70798DA
:10316000C168006902900846029901F081FD0028BB
:1031700004D0FFE701208DF81B00FFE707984168A6
:10318000806801900846019901F0C4FD9DF81B007C
:1031900008B080BD80B588B0014606900698C26828
:1031A000006905901046059A0491114601F014FE3D
:1031B00006984168806803900846039901F00CFE68
:1031C0000698C069002805D0FFE70698C169407DD0
:1031D0008847FFE70698C16800690290084602998F
:1031E00001F098FD0698C069002805D0FFE7069811
:1031F000C169407D8847FFE7069841688068019073
:103200000846019901F086FD0698C16800690090A2
:103210000846009901F02CFD002804D0FFE70120AA
:103220008DF81F0003E000208DF81F00FFE79DF8D8
:103230001F0008B080BD000080B588B00146069030
:103240000698C268006905901046059A04911146D7
:1032500001F060FD06984168806803900846039974
:1032600001F0BAFD0698C069002805D0FFE706986E
:10327000C169407D8847FFE70698C16800690290F0
:103280000846029901F0A8FD0698C069002805D0FB
:10329000FFE70698C169407D8847FFE70698C16847
:1032A000006901900846019901F0E2FC002804D170
:1032B000FFE701208DF81F0003E000208DF81F00BC
:1032C000FFE79DF81F0008B080BD000080B588B002
:1032D0000A46034607908DF81B109DF81B00000658
:1032E00000280592049309D5FFE70798C168006993
:1032F00003900846039901F06FFD08E00798C16844
:10330000006902900846029901F004FDFFE7079862
:103310004168806801900846019901F05DFD0798B9
:10332000C069002805D0FFE70798C169407D88473C
:10333000FFE707984168806800900846009901F00F
:10334000E9FC0798C069002805D0FFE70798C16924
:10335000407D8847FFE7002008B080BD80B586B07B
:103360000A46034605908DF8131000208DF81200D0
:103370000599D1F804C089680390604602920193D0
:1033800001F0C8FC03988DF81200FFE79DF81200C9
:10339000072812DCFFE705989DF81310FFF796FF4A
:1033A0009DF8131049008DF813100090FFE79DF869
:1033B000120001308DF81200E8E7002006B080BD51
:1033C00080B584B00A460346039002910398016ACF
:1033D00021F0010101620398806920F0FF00029949
:1033E000D1F804C0D1F808E0C96841EA0C0141EA0B
:1033F0000E0140EA1140039988610398006A20F0A9
:103400000A0002990968084340F001000399086224
:1034100001200192009304B080BD000080B584B00B
:103420000A460346039002910398016A21F01001B5
:1034300001620398806920F47F400299D1F804C0AA
:10344000D1F808E0C96841EA0C0141EA0E0140EAFE
:103450001120039988610398006A20F0A000029966
:10346000096840EA011040F0100003990862012049
:103470000192009304B080BD80B584B00A46034633
:10348000039002910398016A21F48071016203980C
:10349000C06920F0FF000299D1F804C0D1F808E01B
:1034A000C96841EA0C0141EA0E0140EA1140039962
:1034B000C8610398006A20F430600299096840EA04
:1034C000012040F48070039908620120019200936A
:1034D00004B080BD80B584B00A46034603900291D3
:1034E0000398016A21F4805101620398C06920F4B5
:1034F0007F400299D1F804C0D1F808E0C96841EAD8
:103500000C0141EA0E0140EA11200399C8610398B9
:10351000006A20F440500299096840EA013040F402
:1035200080500399086201200192009304B080BD8D
:1035300080B500F005F880BD80B5FFF7F9FF80BDCC
:1035400080B543F20000C4F2000001F08DFD0020C0
:1035500080BD000080B582B001468DF807009DF85F
:103560000700009100F076F802B080BD80B582B00F
:1035700001468DF807009DF80700009100F08CF8D7
:1035800002B080BD80B582B001468DF807009DF87D
:103590000700009100F0A0F802B080BD80B582B0B5
:1035A00001468DF807009DF80700009100F0B4F87F
:1035B00002B080BD80B500F09DF980BD80B500F0FF
:1035C000D3F980BD80B500F045FA80BD80B500F02C
:1035D000AFFA80BD80B582B001468DF807009DF836
:1035E00007000091FFF7B6FF02B080BD80B582B042
:1035F00001468DF807009DF807000091FFF7B6FF20
:1036000002B080BD80B582B001468DF807009DF8FC
:1036100007000091FFF7B6FF02B080BD80B582B011
:1036200001468DF807009DF807000091FFF7B6FFEF
:1036300002B080BD80B5FFF7BDFF80BD80B5FFF74C
:10364000BDFF80BD80B5FFF7BDFF80BD80B5FFF732
:10365000BDFF80BD80B582B001468DF807009DF8A2
:103660000700002800910AD1FFE741F60000C4F2EC
:1036700001000221C0F2024101F05AFB09E041F6CB
:103680000000C4F201000221C0F2024101F0B2FBCD
:10369000FFE702B080BD000080B582B001468DF822
:1036A00007009DF807000028009109D1FFE741F6C7
:1036B0000000C4F2010040F2011101F039FB08E002
:1036C00041F60000C4F2010040F2011101F092FB4A
:1036D000FFE702B080BD000080B582B001468DF8E2
:1036E00007009DF807000028009109D1FFE741F28B
:1036F0000040C4F2010040F2022101F019FB08E091
:1037000041F20040C4F2010040F2022101F072FBDC
:10371000FFE702B080BD000080B582B001468DF8A1
:1037200007009DF80700002800910AD1FFE741F249
:103730000040C4F201000221C0F2024101F0F8FA97
:1037400009E041F20040C4F201000221C0F202414E
:1037500001F050FBFFE702B080BD000080B590B0E3
:1037600041F60000C4F2010001210A900991FFF71F
:10377000D5FA0A980999FFF7D1FA41F20040C4F24C
:10378000010008900999FFF7C9FA08980999FFF70D
:10379000C5FA00200F900E900D900C900B90099898
:1037A0000C900D9004210E910F900221C0F2024165
:1037B0000B910DF12C0E0A9807917146CDF818E087
:1037C00001F0DEF90A9905900846079901F012FB0D
:1037D00040F201100B900A9904900846069901F0F6
:1037E000CFF90A9903900846049901F003FB40F2CF
:1037F00002200B90089902900846069901F0C0F942
:10380000089901900846029901F0F4FA07980B9084
:103810000898069901F0B4F90899009008460799AC
:1038200001F0E8FA10B080BD80B590B041F600001C
:10383000C4F2010001210A900991FFF76FFA0A987A
:103840000999FFF76BFA41F20040C4F201000890B9
:103850000999FFF763FA08980999FFF75FFA0020C2
:103860000F900E900D900C900B9009980C900D906D
:1038700004210E910F900421C0F204410B910DF12F
:103880002C0E0A9807917146CDF818E001F078F9EE
:103890000A9905900846079901F0ACFA40F2022017
:1038A0000B900A9904900846069901F069F90A9963
:1038B00003900846049901F09DFA40F204400B90F1
:1038C000089902900846069901F05AF90899019062
:1038D0000846029901F08EFA07980B90089806990D
:1038E00001F04EF9089900900846079901F082FA14
:1038F00010B080BD80B586B041F60000C4F2010072
:103900000421C0F204410590049101F073FA40F2E1
:103910000220059903900846039901F06BFA41F2E1
:103920000040C4F2010040F20441029001F062FA4A
:103930000298049901F05EFA0220C0F20240059953
:1039400001900846019901F055FA40F201110598DD
:1039500001F050FA0298039901F04CFA029801998B
:1039600001F048FA06B080BD80B584B041F6000091
:10397000C4F201000421C0F204410390029101F05D
:10398000D7F940F20221039801F0D2F941F2004048
:10399000C4F2010040F20441019001F0C9F901981C
:1039A000029901F0C5F904B080BD000080B582B075
:1039B00000208DF8070041F60000C4F20100082144
:1039C000C0F2084101F066F9002807D1FFE79DF831
:1039D000070040F001008DF80700FFE741F6000006
:1039E000C4F2010040F2044101F054F9002807D16B
:1039F000FFE79DF8070040F002008DF80700FFE7A1
:103A000041F20040C4F2010040F6080101F042F921
:103A1000002807D1FFE79DF8070040F004008DF86B
:103A20000700FFE741F20040C4F201000821C0F2A4
:103A3000084101F02FF9002807D1FFE79DF80700A2
:103A400040F008008DF80700FFE79DF8070002B07E
:103A500080BD000080B5FFF781FE00F003F8FFF79E
:103A6000E3FE80BD80B590B041F60000C4F20100D5
:103A700001210A900991FFF751F90A980999FFF776
:103A80004DF941F20040C4F2010008900999FFF796
:103A900045F908980999FFF741F900200F900E9019
:103AA0000D900C900B9009980C900D9004210E91A4
:103AB0000F900821C0F208410B910DF12C0E0A98CD
:103AC00007917146CDF818E001F05AF80A9905906F
:103AD0000846079901F08EF940F204400B900A99CC
:103AE00004900846069901F04BF80A99039008469D
:103AF000049901F07FF940F608000B9008990290B4
:103B00000846069901F03CF8089901900846029988
:103B100001F070F907980B900898069901F030F8B9
:103B2000089900900846079901F064F910B080BD2B
:103B300080B582B0FFF73AFF8DF807009DF80700C7
:103B4000002805D0FFE7FFF731FF8DF80700FFE7FA
:103B50009DF8070002B080BD80B58AB040F6000035
:103B6000C4F20100012104900391FFF7D7F800206F
:103B7000099008900790069005900821C0F208412E
:103B80000591DDF80CE0CDF818E0032207920890CB
:103B9000099005A8049A02901046029B01911946CB
:103BA00000F0EEFF049900900846019901F0CEF86C
:103BB0000AB080BD80B500F059F880BD80B5FFF730
:103BC000F9FF80BD80B58CB040F60040C4F2010022
:103BD000012106900591FFF7A1F800200B900A90B3
:103BE0000990089007900421C0F204410791DDF884
:103BF00014E0CDF820E0022209920A900B9007A869
:103C0000069A04901046049B0391194600F0B8FFF1
:103C1000069902900846039901F098F843F631405E
:103C2000C0F6000006F0BEFE01900CB080BD0000A2
:103C300080B540F24000C2F200000168013101602D
:103C40000068B0F5FA7F10D9FFE740F24000C2F2F9
:103C500000000021016040F60040C4F20100042190
:103C6000C0F2044101F0F0F9FFE780BD80B5FFF735
:103C7000A9FFFFF771FF80BD80B588B00A460346F3
:103C80000790069101200590079842F20041C4F286
:103C9000010188420492039314D1FFE742F20040ED
:103CA000C4F2010000F012F942F6000EC4F2010E57
:103CB0000290704600F00AF9DDF808E040EA0E00D4
:103CC000019007E043F60040C4F2010000F0FEF866
:103CD0000190FFE70198002817D1FFE706980068D8
:103CE00000280AD0FFE70798406820F47020069962
:103CF000096808430799486006E00798406820F47F
:103D0000702007994860FFE702E000200590FFE778
:103D1000059808B080BD000080B584B001460390CE
:103D2000012002900398019100F0D0F801280ED1F3
:103D3000FFE703984FF4602100F064F903984FF413
:103D4000E04100F07DF8039800F056F8FFE7039893
:103D50008068C00700284CD1FFE70398016821F074
:103D60001F010160039841680022CFF630721140B4
:103D700041600398816840F2F062CFF60172114011
:103D800081600398C16801F07F41C16003980169B7
:103D900001F0404101610398416940F6FF7291438F
:103DA0004161039881696FF30B0181610398C169D7
:103DB0006FF30B01C1610398016A6FF30B0101629C
:103DC0000398416A114341620398816A6FF30B01C2
:103DD00081620398C16A01F07F41C1620398016B5F
:103DE00001F0404101630398816B6FF3150181631A
:103DF000FFE7029804B080BD82B0014601900198AF
:103E0000826822F001028260009102B070470000D7
:103E100082B0014601900198826822F0010282601E
:103E2000009102B07047000082B0014601900198F5
:103E3000826842F001028260009102B07047000087
:103E400084B00A4603460390029103988068029961
:103E5000090B61F30E30039988600192009304B05E
:103E60007047000080B586B00A460346059004916D
:103E70000120039005980292019300F027F8002892
:103E800013D1FFE70598406820F4807004994968D1
:103E90000843059948600598806820F400600499FB
:103EA000096808430599886002E000200390FFE755
:103EB000039806B080BD000082B0014601900198D1
:103EC0008068C0F38000009102B0704782B0014664
:103ED00001900198806800F00100009102B07047E5
:103EE00080B586B00A4603460590049101200390F0
:103EF0000498406800280292019301D0FFE7FFE791
:103F00000598FFF7E3FF002831D1FFE704984068E8
:103F100000280CD0FFE70598406820F46840049919
:103F20004A688968114308430599486009E0059883
:103F3000406820F46840049949680843059948603E
:103F4000FFE7059880684FF6FD61CFF6F1710840F4
:103F500004990A68CB6809691A4311430843059913
:103F6000886005980499496800F008F802E000208C
:103F70000390FFE7039806B080BD000084B00A46B6
:103F80000346039002910398C06A20F470000299DE
:103F900008430399C8620192009304B0704700007F
:103FA00010B589B013468C4686460690059104925A
:103FB0000698059901F440714FF440720892089AEE
:103FC00092FAA2F20792079AB2FA82F2D14000EB7B
:103FD00081002C30039003980168059A02F01F02BB
:103FE0001F249440A143049C04F01F0404FA02F22D
:103FF000114301600293CDF804C0CDF800E009B090
:1040000010BD000084B00A46034603900291039855
:1040100080680299490C61F35340039988600192CA
:10402000009304B07047000082B0014601900198EF
:10403000826842F4A0028260009102B070470000E2
:1040400010B58DB013468C468646069005910492B5
:104050000698059901F000714FF000720892089AD5
:1040600092FAA2F20792079AB2FA82F2D14000EBDA
:1040700081000C30039003980068059901F0F871F5
:104080004FF0F8720A920A9C94FAA4F40994099CDD
:10409000B4FA84F4E140072404FA01F18843049956
:1040A000059C04F0F8740C920C9A92FAA2F20B920E
:1040B0000B9AB2FA82F224FA02F291400843039971
:1040C00008600293CDF804C0CDF800E00DB010BD3B
:1040D00082B0014601900198826842F00402826039
:1040E000009102B07047000084B00146039003982D
:1040F00041F21402C4F202021368184310601068FF
:10410000039A1040029002980191009004B0704709
:1041100084B001460390039841F21402C4F20202F3
:104120001368184310601068039A104002900298B8
:104130000191009004B0704782B00146019001984F
:1041400041F21C02C4F20202136823EA000010606C
:10415000009102B07047000082B0014601900198C2
:1041600041F21C02C4F20202136823EA000010604C
:10417000009102B07047000084B00146039003989C
:1041800041F21C02C4F20202136818431060106866
:10419000039A1040029002980191009004B0704779
:1041A00084B001460390039841F21C02C4F202025B
:1041B0001368184310601068039A10400290029828
:1041C0000191009004B0704782B0014601900198BF
:1041D00041F21002C4F20202136818431060009109
:1041E00002B0704782B001460190019841F210027E
:1041F000C4F20202136818431060009102B07047C5
:1042000082B001460190019841F21002C4F202020C
:10421000136823EA00001060009102B070470000AC
:1042200082B001460190019841F21002C4F20202EC
:10423000136823EA00001060009102B0704700008C
:1042400082B001460190019841F21802C4F20202C4
:10425000136823EA00001060009102B0704700006C
:1042600082B001460190019841F21802C4F20202A4
:10427000136823EA00001060009102B0704700004C
:1042800082B001460190019841F21802C4F2020284
:10429000136823EA00001060009102B0704700002C
:1042A00082B001460190019841F21802C4F2020264
:1042B000136823EA00001060009102B0704700000C
:1042C00084B001460390039841F21802C4F202023E
:1042D0001368184310601068039A10400290029807
:1042E0000191009004B0704784B001460390039898
:1042F00041F21802C4F202021368184310601068F9
:10430000039A1040029002980191009004B0704707
:1043100084B001460390039841F21802C4F20202ED
:104320001368184310601068039A104002900298B6
:104330000191009004B0704784B001460390039847
:1043400041F21802C4F202021368184310601068A8
:10435000039A1040029002980191009004B07047B7
:1043600082B001460190019841F20C02C4F20202AF
:10437000136818431060009102B0704782B0014684
:104380000190019841F20C02C4F202021368184332
:104390001060009102B0704782B001460190019810
:1043A00041F20C02C4F20202136823EA000010601A
:1043B000009102B07047000082B001460190019860
:1043C00041F20C02C4F20202136823EA00001060FA
:1043D000009102B07047000080B584B001460390A0
:1043E00001200290039843F20002C4F202029042BC
:1043F000019108D1FFE7039800F020F8039800210D
:1044000000F030F802E000200290FFE7029804B0CC
:1044100080BD000084B00A460346039002910298D2
:10442000039908600192009304B0704782B001467E
:10443000019001980068009102B0704782B0014677
:104440000190019801228260009102B07047000043
:1044500082B001460190019801228260009102B071
:104460007047000084B00A46034603900291029808
:10447000039908710192009304B0704782B001461D
:104480000190019801224260009102B07047000043
:1044900082B001460190019801224260009102B071
:1044A0007047000082B001460190019810224260DE
:1044B000009102B07047000082B00146019001985F
:1044C0004FF480724260009102B0704782B00146A2
:1044D000019001984FF480524260009102B0704701
:1044E00082B00146019001984FF480324260009101
:1044F00002B0704782B00146019001984FF48032BB
:104500004260009102B0704782B00146019001986C
:104510004FF480124260009102B0704782B00146B1
:10452000019001984FF080724260009102B0704794
:1045300082B001460190019804224260009102B0CD
:104540007047000082B00146019001984FF480222C
:104550004260009102B0704782B00146019001981C
:1045600002224260009102B07047000082B0014612
:10457000019001984FF400324260009102B0704700
:1045800080B586B013468C4686460590049103920A
:10459000059804994EF25F52C0F60002114411F8DA
:1045A000011C40580499114447F6F0729043039A55
:1045B0001043059A11F8011C50500293CDF804C025
:1045C000CDF800E006B080BD80B592B00A46034643
:1045D000119010910820C4F202000F9001200E905B
:1045E00011980021C4F2020188420D920C9309D166
:1045F000FFE71098012805D1FFE70820C4F2020068
:104600000B90D0E0119840F20041C4F202018842C0
:104610000AD1FFE71098012806D1FFE740F20840D1
:10462000C4F202000A90BBE011980021C4F202011A
:10463000884209D1FFE71098022805D1FFE71C2026
:10464000C4F202000990A8E0119840F20041C4F2BF
:10465000020188420AD1FFE71098022806D1FFE73D
:1046600040F21C40C4F20200089093E0119800212F
:10467000C4F20201884209D1FFE71098032805D14E
:10468000FFE73020C4F20200079080E0119840F26A
:104690000041C4F2020188420AD1FFE710980328C2
:1046A00006D1FFE740F23040C4F2020006906BE012
:1046B00011980021C4F20201884209D1FFE7109845
:1046C000042805D1FFE74420C4F20200059058E019
:1046D000119840F20041C4F2020188420AD1FFE77A
:1046E0001098042806D1FFE740F24440C4F20200CB
:1046F000049043E011980021C4F20201884209D1DC
:10470000FFE71098052805D1FFE75820C4F2020002
:10471000039030E0119840F20041C4F20201884257
:104720000AD1FFE71098052806D1FFE740F258406C
:10473000C4F2020002901BE0119800210022C4F292
:1047400002029042019107D1FFE710980638B0FAB3
:1047500080F040090190FFE70198C0078021C4F272
:10476000020100281CBF6C21C4F202010291FFE784
:1047700002980390FFE703980490FFE704980590E0
:10478000FFE705980690FFE706980790FFE7079870
:104790000890FFE708980990FFE709980A90FFE75B
:1047A0000A980B90FFE70B980F900F98016821F083
:1047B000010101600F98002101600F9841600F987E
:1047C00081600F98C1601098012804D1FFE711980B
:1047D000FFF754FE38E01098022804D1FFE7119843
:1047E000FFF760FE2FE01098032804D1FFE711982F
:1047F000FFF762FE26E01098042804D1FFE7119825
:10480000FFF764FE1DE01098052804D1FFE711981A
:10481000FFF766FE14E01098062804D1FFE7119810
:10482000FFF772FE0BE01098072804D1FFE71198FC
:10483000FFF774FE02E000200E90FFE7FFE7FFE7BE
:10484000FFE7FFE7FFE7FFE70E9812B080BD00002B
:1048500084B00A46034603900291039802994EF2EF
:10486000665CC0F6000C614411F8011C50F801C0F0
:104870002CF0010C40F801C00192009304B0704785
:1048800084B00A46034603900291039802994EF2BF
:10489000665CC0F6000C614411F8011C50F801C0C0
:1048A0004CF0010C40F801C00192009304B0704735
:1048B00084B00A46034603900291039802994EF28F
:1048C000665CC0F6000C614411F8011C50F801C090
:1048D0004CF0020C40F801C00192009304B0704704
:1048E000F0B587B013468C46864606900591049233
:1048F00006980599049A9468D568166957692C43F7
:1049000034433C4395692C43D5692C43526A224376
:104910000393CDF808C0CDF804E0FFF731FE069808
:104920000599049A526800F085F806980599049A4A
:10493000126800F09BF806980599049A126A00F034
:104940002DF8012007B0F0BD82B00146019001981A
:104950000068C0F34000009102B0704782B0014689
:10496000019001980068C0F34040009102B0704788
:1049700084B00A46034603900291039802994EF2CE
:10498000585CC0F6000C614411F8011C4058C0F39B
:1049900040000192009304B07047000080B586B0DB
:1049A00013468C4686460590049103920598049917
:1049B0004EF25F52C0F60002114411F8011C084487
:1049C0004068049911444FF6FF729043039A1043D4
:1049D000059A11F8011C114448600293CDF804C0F7
:1049E000CDF800E006B080BD80B586B013468C4699
:1049F0008646059004910392059804994EF26652FA
:104A0000C0F60002114411F8011C084440680499E2
:104A100011444FF6FF729043039A1043059A11F820
:104A2000011C114448600293CDF804C0CDF800E0A9
:104A300006B080BD10B586B013468C4686460590FC
:104A40000491039203980599049A4EF25F54C0F6BC
:104A50000004224412F8012C1144C8600293CDF8DE
:104A600004C0CDF800E006B010BD000010B586B05F
:104A700013468C4686460590049103920398059947
:104A8000049A4EF25F54C0F60004224412F8012C3E
:104A9000114488600293CDF804C0CDF800E006B060
:104AA00010BD000082B001460190019840F214420E
:104AB000C4F201021060009102B0704742F200009F
:104AC000C4F20200016841F4806101607047000097
:104AD00042F20000C4F20200016841F4007101607A
:104AE0007047000042F20000C4F20200016841F089
:104AF000100101607047000042F20000C4F20200A1
:104B0000006800F00700704782B0014601900198EC
:104B10000088009102B0704782B00146019042F2D5
:104B20000000C4F20200026822F00702019B1A434F
:104B30000260009102B070470420C4F201000168D5
:104B400021F440610160016841F400610160704737
:104B50000420C4F20100016821F0E06101600168F5
:104B600041F00071016070470420C4F20100016847
:104B700021F0E0610160016841F0807101607047DF
:104B800080B58AB00A4603460790069106980068E9
:104B9000C0F30F20059005980990099890FAA0F0AD
:104BA00008900898B0FA80F0049002920193FFE711
:104BB00005980499C840002845D0FFE70598049956
:104BC000012202FA01F1084239D0FFE704980728D0
:104BD00007D8FFE7049840F2011101FA00F00390B2
:104BE00009E0049808384FF0011101FA00F040F094
:104BF00080600390FFE707980399069A526800F0D7
:104C000031F907980399069A126900F0C7F90698D6
:104C10004068012805D0FFE70698406809280DD1B3
:104C2000FFE707980399069A926800F0D9F9079868
:104C30000399069AD26800F07DF9FFE7FFE7049830
:104C400001300490B4E701200AB080BD84B00A4668
:104C500003460390029103988068BDF8091008404C
:104C6000401AB0FA80F040090192009304B07047F6
:104C700084B00A4603460390029103988068BDF809
:104C800009100840401AB0FA80F0400901920093E0
:104C900004B0704784B00A4603460390029103981B
:104CA0008068BDF809100840401AB0FA80F0400949
:104CB0000192009304B0704784B00A460346039003
:104CC000029103988068BDF809100840401AB0FAB4
:104CD00080F040090192009304B0704784B00A4606
:104CE000034603900291BDF80900039948610192BF
:104CF000009304B07047000084B00A460346039056
:104D00000291BDF80900039948610192009304B033
:104D10007047000084B00A46034603900291BDF834
:104D20000900039948610192009304B070470000A4
:104D300084B00A46034603900291BDF80900039926
:104D400048610192009304B07047000084B00A46A5
:104D5000034603900291BDF809000399486101924E
:104D6000009304B07047000084B00A4603460390E5
:104D70000291BDF80900039948610192009304B0C3
:104D80007047000084B00A46034603900291BDF8C4
:104D90000900039948610192009304B07047000034
:104DA00084B00A46034603900291BDF809000399B6
:104DB00048610192009304B07047000084B00A4635
:104DC000034603900291BDF809000399086101921E
:104DD000009304B07047000084B00A460346039075
:104DE0000291BDF80900039908610192009304B093
:104DF0007047000084B00A46034603900291BDF854
:104E00000900039908610192009304B07047000003
:104E100084B00A46034603900291BDF80900039945
:104E200008610192009304B07047000084B00A4604
:104E3000034603900291BDF80900039908610192AD
:104E4000009304B07047000084B00A460346039004
:104E50000291BDF80900039908610192009304B022
:104E60007047000080B58BB013468C46864606908E
:104E70000591049206989DF8171008440390039832
:104E8000006805990891089991FAA1F1079107998D
:104E9000B1FA81F189000F2202FA01F188430499E5
:104EA000059A0A920A9A92FAA2F20992099AB2FA19
:104EB00082F2920091400843039908600293CDF872
:104EC00004C0CDF800E00BB080BD000080B58BB011
:104ED00013468C46864606900591049206989DF8E6
:104EE00017100844039003980068059908910899E1
:104EF00091FAA1F107910799B1FA81F189000F2286
:104F000002FA01F188430499059A0A920A9A92FAE0
:104F1000A2F20992099AB2FA82F2920091400843F1
:104F2000039908600293CDF804C0CDF800E00BB0FF
:104F300080BD000080B58BB013468C468646069037
:104F40000591049206989DF8171008440390039861
:104F5000006805990891089991FAA1F107910799BC
:104F6000B1FA81F18900042202FA01F1884304991F
:104F7000059A0A920A9A92FAA2F20992099AB2FA48
:104F800082F2920091400843039908600293CDF8A1
:104F900004C0CDF800E00BB080BD000080B588B043
:104FA00013468C4686460590049103920598C06886
:104FB00004990A0A20EA112003990792079A92FAA3
:104FC000A2F20692069AB2FA82F29140084305993B
:104FD000C8600293CDF804C0CDF800E008B080BDF1
:104FE00080B58BB013468C46864606900591049298
:104FF00006989DF8171008440390039800680599D7
:105000000891089991FAA1F107910799B1FA81F1F4
:105010008900032202FA01F188430499059A0A9251
:105020000A9A92FAA2F20992099AB2FA82F29200CC
:1050300091400843039908600293CDF804C0CDF86D
:1050400000E00BB080BD000084B00A460346039028
:1050500002910398C068BDF8091048400399C860E0
:105060000192009304B0704782B00146019043F270
:105070000000C4F200004AF6AA220260009102B0C9
:105080007047000084B00A460346039002910398DB
:105090000299B0FBF1F001384EF21401CEF200019A
:1050A00008604EF21800CEF20000002101604EF2BE
:1050B0001000CEF20000052101600192009304B0BF
:1050C0007047000047F20400C4F200000068C0F31B
:1050D0008000704741F20800C4F20200016841F408
:1050E000000101607047000041F20800C4F20200B4
:1050F000016841F4002101607047000041F208009E
:10510000C4F20200016821F40061016070470000F0
:1051100041F20800C4F20200016841F4006101603C
:105120007047000041F20400C4F20200006800F081
:10513000F000704741F20400C4F20200006800F47D
:10514000E060704741F20400C4F20200006800F41D
:105150006050704741F20400C4F20200006800F0A1
:105160000C00704741F20400C4F20200006800F035
:105170000C00704780B582B001460190009101F0AB
:10518000DBFD019908600198006801F097FD019925
:1051900048600198406801F0A7FD01998860019876
:1051A000406801F0B5FD0199C86002B080BD000003
:1051B00041F20000C4F20200016841F48031016054
:1051C0007047000041F20000C4F20200016841F49F
:1051D000803101607047000041F20000C4F202001B
:1051E0000068C0F34040704741F20800C4F202007A
:1051F0000068C0B2C009704741F20800C4F2020062
:105200000068C0F3C000704741F22400C4F20200FD
:10521000016841F0010101607047000041F2240083
:10522000C4F202000068C0F34000704780B584B04B
:105230000A4603460390029141F20400C4F20200C0
:10524000016821F47C11DDF80CC00CF4403CDDF861
:1052500008E04CEA0E0C41EA0C0101600192009357
:1052600004B080BD41F20000C4F20200016841F0C8
:10527000807101607047000041F20400C4F2020036
:10528000006800F48030704741F20400C4F202006C
:10529000006800F47010704741F20400C4F202008C
:1052A0000068C0F34040704741F20000C4F20200C1
:1052B0000068C0F34060704782B00146019041F23F
:1052C0000400C4F20200026822F44042019B1A4327
:1052D0000260009102B0704782B00146019041F235
:1052E0000400C4F20200026822F0F002019B1A439B
:1052F0000260009102B0704782B00146019041F215
:105300000400C4F20200026822F4E062019B1A4326
:105310000260009102B0704782B00146019041F2F4
:105320000400C4F20200026822F46052019B1A4396
:105330000260009102B0704782B00146019041F2D4
:105340000400C4F20200026822F00302019B1A4327
:105350000260009102B0704782B00146019001984E
:105360000428009109D1FFE74EF21000CEF20000B0
:10537000016841F00401016008E04EF21000CEF235
:105380000000016821F004010160FFE702B07047EE
:1053900082B001460190019840F20002C2F2000280
:1053A0001060009102B0704784B00A460346039033
:1053B000029102980399D1F820C02CEA00000862FB
:1053C0000192009304B0704782B0014601900198A9
:1053D0004FF0FF320261009102B0704782B0014687
:1053E000019001986FF002020261009102B07047D3
:1053F00082B00146019001986FF0040202610091B1
:1054000002B0704782B00146019001986FF0080227
:105410000261009102B0704782B00146019001988C
:105420006FF010020261009102B0704782B0014635
:10543000019001986FF040020261009102B0704744
:1054400082B00146019001986FF001020261009163
:1054500002B0704782B00146019001986FF00102DE
:105460000261009102B0704780B592B00146119080
:10547000012010901198B0F1804F0F9108D1FFE7F3
:1054800001200E90FEF7AEFE0E98FEF7C9FEE5E095
:10549000119842F60041C4F20101884209D1FFE7A8
:1054A0004FF400600D90FEF769FF0D98FEF784FF42
:1054B000D3E0119840F20041C4F20001884208D1C3
:1054C000FFE702200C90FEF78DFE0C98FEF7A8FE79
:1054D000C2E0119840F60001C4F20001884208D1F0
:1054E000FFE704200B90FEF77DFE0B98FEF798FE79
:1054F000B1E0119840F60041C4F20001884208D1A1
:10550000FFE708200A90FEF76DFE0A98FEF788FE76
:10551000A0E0119841F20001C4F20001884208D1D4
:10552000FFE710200990FEF75DFE0998FEF778FE70
:105530008FE0119841F20041C4F20001884208D185
:10554000FFE720200890FEF74DFE0898FEF768FE62
:105550007EE0119843F20041C4F20101884209D172
:10556000FFE74FF400500790FEF708FF0798FEF79B
:1055700023FF6CE0119844F60041C4F20101884217
:1055800009D1FFE74FF400200690FEF7F7FE0698DA
:10559000FEF712FF5AE0119845F20001C4F2010132
:1055A000884209D1FFE74FF480100590FEF7E6FE30
:1055B0000598FEF701FF48E0119845F20041C4F25A
:1055C0000101884209D1FFE74FF400100490FEF773
:1055D000D5FE0498FEF7F0FE36E0119841F6000182
:1055E000C4F20001884208D1FFE740200390FEF793
:1055F000F9FD0398FEF714FE25E0119841F60041ED
:10560000C4F20001884208D1FFE780200290FEF733
:10561000E9FD0298FEF704FE14E0119842F2000141
:10562000C4F20001884209D1FFE74FF48070019075
:10563000FEF7D8FD0198FEF7F3FD02E00020109080
:10564000FFE7FFE7FFE7FFE7FFE7FFE7FFE7FFE72A
:10565000FFE7FFE7FFE7FFE7FFE7FFE7109812B07C
:1056600080BD000082B0014601900198026822F0DE
:1056700080020260009102B07047000082B00146D3
:1056800001900198026822F001020260009102B0CC
:105690007047000082B0014601900198026822F034
:1056A00001020260009102B07047000082B0014622
:1056B00001900198C26822F48042C260009102B059
:1056C0007047000082B0014601900198C26822F044
:1056D0004002C260009102B07047000082B00146F3
:1056E00001900198826822F080028260009102B0ED
:1056F0007047000082B0014601900198826822F054
:1057000080028260009102B07047000082B00146C2
:1057100001900198026842F080020260009102B09C
:105720007047000082B0014601900198026842F083
:1057300001020260009102B07047000082B0014691
:1057400001900198026842F001020260009102B0EB
:105750007047000082B0014601900198C26842F093
:105760000202C260009102B07047000082B00146A0
:1057700001900198C26842F00402C260009102B038
:105780007047000082B0014601900198C26842F063
:105790000802C260009102B07047000082B001466A
:1057A00001900198C26842F01002C260009102B0FC
:1057B0007047000082B0014601900198426942F0B2
:1057C00001024261009102B07047000082B00146C0
:1057D00001900198406A009102B0704782B0014682
:1057E00001900198406B009102B0704782B0014671
:1057F00001900198806B009102B0704782B0014621
:1058000001900198C06B009102B0704782B00146D0
:1058100001900198006C009102B070478AB00A466E
:10582000034609900891089801280692059303D130
:10583000FFE70020049030E00898042803D1FFE738
:105840000120039026E00898102803D1FFE70220EA
:1058500002901CE00898402803D1FFE70320019044
:1058600012E00898B0F5807F03D1FFE70420009094
:1058700007E008980621B0F5806F08BF0521009168
:10588000FFE700980190FFE701980290FFE7029878
:105890000390FFE703980490FFE704988DF81F003A
:1058A0000998006A9DF81F104EF27452C0F600026B
:1058B000515C0A228A401040C8400AB0704700007C
:1058C00080B588B013468C468646079006910592AF
:1058D00000200490069801280393CDF808C0CDF865
:1058E00004E000900ED0FFE70098102810D0FFE7EA
:1058F0000098B0F5807F11D0FFE70098B0F5805F89
:1059000012D017E007980599FDF75AFD049012E0B0
:1059100007980599FDF782FD04900CE0079805991A
:10592000FDF7AAFD049006E007980599FDF7D2FD62
:10593000049000E0FFE7049808B080BD80B58DB00A
:1059400013468C4686460C900B910A920B980128C0
:105950000793CDF818C0CDF814E003D1FFE700207D
:10596000049030E00B98042803D1FFE70120039056
:1059700026E00B98102803D1FFE7022002901CE0DC
:105980000B98402803D1FFE70320019012E00B9809
:10599000B0F5807F03D1FFE70420009007E00B986B
:1059A0000621B0F5806F08BF05210091FFE7009840
:1059B0000190FFE701980290FFE702980390FFE74C
:1059C00003980490FFE704988DF827000C989DF841
:1059D00027104EF26D52C0F60002515C0844183098
:1059E0000890089801689DF827204EF28253C0F66F
:1059F00000039A5C032393409943BDF82A3003FACD
:105A000002F2114301600DB080BD000080B58DB081
:105A100013468C4686460C900B910A920B980128EF
:105A20000793CDF818C0CDF814E003D1FFE70020AC
:105A3000049030E00B98042803D1FFE70120039085
:105A400026E00B98102803D1FFE7022002901CE00B
:105A50000B98402803D1FFE70320019012E00B9838
:105A6000B0F5807F03D1FFE70420009007E00B989A
:105A70000621B0F5806F08BF05210091FFE700986F
:105A80000190FFE701980290FFE702980390FFE77B
:105A900003980490FFE704988DF827000C989DF870
:105AA00027104EF26D52C0F60002515C08441830C7
:105AB0000890089801689DF827204EF28253C0F69E
:105AC00000039A5CF02393409943BDF82A3003FA0F
:105AD00002F2114301600DB080BD000080B58CB0B2
